{
	"contracts/Marketplace.sol": {
		"NFTMarketplace": {
			"abi": [
				{
					"inputs": [],
					"stateMutability": "nonpayable",
					"type": "constructor"
				},
				{
					"anonymous": false,
					"inputs": [
						{
							"indexed": false,
							"internalType": "address",
							"name": "nftContract",
							"type": "address"
						},
						{
							"indexed": false,
							"internalType": "uint256",
							"name": "tokenId",
							"type": "uint256"
						},
						{
							"indexed": false,
							"internalType": "address",
							"name": "seller",
							"type": "address"
						},
						{
							"indexed": false,
							"internalType": "address",
							"name": "owner",
							"type": "address"
						},
						{
							"indexed": false,
							"internalType": "uint256",
							"name": "price",
							"type": "uint256"
						}
					],
					"name": "NFTListed",
					"type": "event"
				},
				{
					"anonymous": false,
					"inputs": [
						{
							"indexed": false,
							"internalType": "address",
							"name": "nftContract",
							"type": "address"
						},
						{
							"indexed": false,
							"internalType": "uint256",
							"name": "tokenId",
							"type": "uint256"
						},
						{
							"indexed": false,
							"internalType": "address",
							"name": "seller",
							"type": "address"
						},
						{
							"indexed": false,
							"internalType": "address",
							"name": "owner",
							"type": "address"
						},
						{
							"indexed": false,
							"internalType": "uint256",
							"name": "price",
							"type": "uint256"
						}
					],
					"name": "NFTSold",
					"type": "event"
				},
				{
					"inputs": [],
					"name": "LISTING_FEE",
					"outputs": [
						{
							"internalType": "uint256",
							"name": "",
							"type": "uint256"
						}
					],
					"stateMutability": "view",
					"type": "function"
				},
				{
					"inputs": [
						{
							"internalType": "address",
							"name": "_nftContract",
							"type": "address"
						},
						{
							"internalType": "uint256",
							"name": "_tokenId",
							"type": "uint256"
						}
					],
					"name": "buyNFT",
					"outputs": [],
					"stateMutability": "payable",
					"type": "function"
				},
				{
					"inputs": [
						{
							"internalType": "address",
							"name": "_nftContract",
							"type": "address"
						},
						{
							"internalType": "uint256",
							"name": "_tokenId",
							"type": "uint256"
						},
						{
							"internalType": "string",
							"name": "_name",
							"type": "string"
						},
						{
							"internalType": "string",
							"name": "_tokenURI",
							"type": "string"
						}
					],
					"name": "listNFT",
					"outputs": [],
					"stateMutability": "payable",
					"type": "function"
				},
				{
					"inputs": [
						{
							"internalType": "address",
							"name": "_nftContract",
							"type": "address"
						},
						{
							"internalType": "uint256",
							"name": "_tokenId",
							"type": "uint256"
						}
					],
					"name": "resellNFT",
					"outputs": [],
					"stateMutability": "payable",
					"type": "function"
				}
			],
			"devdoc": {
				"kind": "dev",
				"methods": {},
				"version": 1
			},
			"evm": {
				"assembly": "    /* \"contracts/Marketplace.sol\":698:3679  contract NFTMarketplace is ReentrancyGuard {... */\n  mstore(0x40, 0x80)\n    /* \"contracts/Marketplace.sol\":893:905  0.0001 ether */\n  0x5af3107a4000\n    /* \"contracts/Marketplace.sol\":864:905  uint256 public LISTING_FEE = 0.0001 ether */\n  0x03\n  sstore\n    /* \"contracts/Marketplace.sol\":1512:1573  constructor() {... */\n  callvalue\n  dup1\n  iszero\n  tag_1\n  jumpi\n  0x00\n  dup1\n  revert\ntag_1:\n  pop\n    /* \"@openzeppelin/contracts/security/ReentrancyGuard.sol\":1716:1717  1 */\n  0x01\n    /* \"@openzeppelin/contracts/security/ReentrancyGuard.sol\":1821:1828  _status */\n  0x00\n    /* \"@openzeppelin/contracts/security/ReentrancyGuard.sol\":1821:1843  _status = _NOT_ENTERED */\n  dup2\n  swap1\n  sstore\n  pop\n    /* \"contracts/Marketplace.sol\":1556:1566  msg.sender */\n  caller\n    /* \"contracts/Marketplace.sol\":1533:1545  _marketOwner */\n  0x04\n  0x00\n    /* \"contracts/Marketplace.sol\":1533:1567  _marketOwner = payable(msg.sender) */\n  0x0100\n  exp\n  dup2\n  sload\n  dup2\n  0xffffffffffffffffffffffffffffffffffffffff\n  mul\n  not\n  and\n  swap1\n  dup4\n  0xffffffffffffffffffffffffffffffffffffffff\n  and\n  mul\n  or\n  swap1\n  sstore\n  pop\n    /* \"contracts/Marketplace.sol\":698:3679  contract NFTMarketplace is ReentrancyGuard {... */\n  dataSize(sub_0)\n  dup1\n  dataOffset(sub_0)\n  0x00\n  codecopy\n  0x00\n  return\nstop\n\nsub_0: assembly {\n        /* \"contracts/Marketplace.sol\":698:3679  contract NFTMarketplace is ReentrancyGuard {... */\n      mstore(0x40, 0x80)\n      jumpi(tag_1, lt(calldatasize, 0x04))\n      shr(0xe0, calldataload(0x00))\n      dup1\n      0x2b86ae38\n      eq\n      tag_2\n      jumpi\n      dup1\n      0x9e1001b0\n      eq\n      tag_3\n      jumpi\n      dup1\n      0xa82ba76f\n      eq\n      tag_4\n      jumpi\n      dup1\n      0xdbcc7575\n      eq\n      tag_5\n      jumpi\n    tag_1:\n      0x00\n      dup1\n      revert\n        /* \"contracts/Marketplace.sol\":864:905  uint256 public LISTING_FEE = 0.0001 ether */\n    tag_2:\n      callvalue\n      dup1\n      iszero\n      tag_6\n      jumpi\n      0x00\n      dup1\n      revert\n    tag_6:\n      pop\n      tag_7\n      tag_8\n      jump\t// in\n    tag_7:\n      mload(0x40)\n      tag_9\n      swap2\n      swap1\n      tag_10\n      jump\t// in\n    tag_9:\n      mload(0x40)\n      dup1\n      swap2\n      sub\n      swap1\n      return\n        /* \"contracts/Marketplace.sol\":3178:3676  function resellNFT(address _nftContract, uint256 _tokenId) public payable nonReentrant {... */\n    tag_3:\n      tag_11\n      0x04\n      dup1\n      calldatasize\n      sub\n      dup2\n      add\n      swap1\n      tag_12\n      swap2\n      swap1\n      tag_13\n      jump\t// in\n    tag_12:\n      tag_14\n      jump\t// in\n    tag_11:\n      stop\n        /* \"contracts/Marketplace.sol\":2347:3120  function buyNFT(address _nftContract, uint256 _tokenId) public payable nonReentrant  {... */\n    tag_4:\n      tag_15\n      0x04\n      dup1\n      calldatasize\n      sub\n      dup2\n      add\n      swap1\n      tag_16\n      swap2\n      swap1\n      tag_13\n      jump\t// in\n    tag_16:\n      tag_17\n      jump\t// in\n    tag_15:\n      stop\n        /* \"contracts/Marketplace.sol\":1621:2323  function listNFT(address _nftContract, uint256 _tokenId, string memory _name, string memory _tokenURI) public payable nonReentrant {... */\n    tag_5:\n      tag_18\n      0x04\n      dup1\n      calldatasize\n      sub\n      dup2\n      add\n      swap1\n      tag_19\n      swap2\n      swap1\n      tag_20\n      jump\t// in\n    tag_19:\n      tag_21\n      jump\t// in\n    tag_18:\n      stop\n        /* \"contracts/Marketplace.sol\":864:905  uint256 public LISTING_FEE = 0.0001 ether */\n    tag_8:\n      sload(0x03)\n      dup2\n      jump\t// out\n        /* \"contracts/Marketplace.sol\":3178:3676  function resellNFT(address _nftContract, uint256 _tokenId) public payable nonReentrant {... */\n    tag_14:\n        /* \"@openzeppelin/contracts/security/ReentrancyGuard.sol\":2261:2282  _nonReentrantBefore() */\n      tag_23\n        /* \"@openzeppelin/contracts/security/ReentrancyGuard.sol\":2261:2280  _nonReentrantBefore */\n      tag_24\n        /* \"@openzeppelin/contracts/security/ReentrancyGuard.sol\":2261:2282  _nonReentrantBefore() */\n      jump\t// in\n    tag_23:\n        /* \"contracts/Marketplace.sol\":3272:3285  address owner */\n      0x00\n        /* \"contracts/Marketplace.sol\":3296:3308  _nftContract */\n      dup3\n        /* \"contracts/Marketplace.sol\":3288:3317  IERC721(_nftContract).ownerOf */\n      0xffffffffffffffffffffffffffffffffffffffff\n      and\n      0x6352211e\n        /* \"contracts/Marketplace.sol\":3318:3326  _tokenId */\n      dup4\n        /* \"contracts/Marketplace.sol\":3288:3327  IERC721(_nftContract).ownerOf(_tokenId) */\n      mload(0x40)\n      dup3\n      0xffffffff\n      and\n      0xe0\n      shl\n      dup2\n      mstore\n      0x04\n      add\n      tag_26\n      swap2\n      swap1\n      tag_10\n      jump\t// in\n    tag_26:\n      0x20\n      mload(0x40)\n      dup1\n      dup4\n      sub\n      dup2\n      dup7\n      gas\n      staticcall\n      iszero\n      dup1\n      iszero\n      tag_28\n      jumpi\n      returndatasize\n      0x00\n      dup1\n      returndatacopy\n      revert(0x00, returndatasize)\n    tag_28:\n      pop\n      pop\n      pop\n      pop\n      mload(0x40)\n      returndatasize\n      not(0x1f)\n      0x1f\n      dup3\n      add\n      and\n      dup3\n      add\n      dup1\n      0x40\n      mstore\n      pop\n      dup2\n      add\n      swap1\n      tag_29\n      swap2\n      swap1\n      tag_30\n      jump\t// in\n    tag_29:\n        /* \"contracts/Marketplace.sol\":3272:3327  address owner = IERC721(_nftContract).ownerOf(_tokenId) */\n      swap1\n      pop\n        /* \"contracts/Marketplace.sol\":3334:3351  Token storage nft */\n      0x00\n        /* \"contracts/Marketplace.sol\":3354:3364  _idToToken */\n      0x05\n        /* \"contracts/Marketplace.sol\":3354:3374  _idToToken[_tokenId] */\n      0x00\n        /* \"contracts/Marketplace.sol\":3365:3373  _tokenId */\n      dup5\n        /* \"contracts/Marketplace.sol\":3354:3374  _idToToken[_tokenId] */\n      dup2\n      mstore\n      0x20\n      add\n      swap1\n      dup2\n      mstore\n      0x20\n      add\n      0x00\n      keccak256\n        /* \"contracts/Marketplace.sol\":3334:3374  Token storage nft = _idToToken[_tokenId] */\n      swap1\n      pop\n        /* \"contracts/Marketplace.sol\":3391:3403  _nftContract */\n      dup4\n        /* \"contracts/Marketplace.sol\":3383:3417  IERC721(_nftContract).transferFrom */\n      0xffffffffffffffffffffffffffffffffffffffff\n      and\n      0x23b872dd\n        /* \"contracts/Marketplace.sol\":3418:3423  owner */\n      dup4\n        /* \"contracts/Marketplace.sol\":3433:3437  this */\n      address\n        /* \"contracts/Marketplace.sol\":3440:3448  _tokenId */\n      dup7\n        /* \"contracts/Marketplace.sol\":3383:3449  IERC721(_nftContract).transferFrom(owner, address(this), _tokenId) */\n      mload(0x40)\n      dup5\n      0xffffffff\n      and\n      0xe0\n      shl\n      dup2\n      mstore\n      0x04\n      add\n      tag_31\n      swap4\n      swap3\n      swap2\n      swap1\n      tag_32\n      jump\t// in\n    tag_31:\n      0x00\n      mload(0x40)\n      dup1\n      dup4\n      sub\n      dup2\n      0x00\n      dup8\n      dup1\n      extcodesize\n      iszero\n      dup1\n      iszero\n      tag_33\n      jumpi\n      0x00\n      dup1\n      revert\n    tag_33:\n      pop\n      gas\n      call\n      iszero\n      dup1\n      iszero\n      tag_35\n      jumpi\n      returndatasize\n      0x00\n      dup1\n      returndatacopy\n      revert(0x00, returndatasize)\n    tag_35:\n      pop\n      pop\n      pop\n      pop\n        /* \"contracts/Marketplace.sol\":3477:3487  msg.sender */\n      caller\n        /* \"contracts/Marketplace.sol\":3456:3459  nft */\n      dup2\n        /* \"contracts/Marketplace.sol\":3456:3466  nft.seller */\n      0x02\n      add\n      0x00\n        /* \"contracts/Marketplace.sol\":3456:3488  nft.seller = payable(msg.sender) */\n      0x0100\n      exp\n      dup2\n      sload\n      dup2\n      0xffffffffffffffffffffffffffffffffffffffff\n      mul\n      not\n      and\n      swap1\n      dup4\n      0xffffffffffffffffffffffffffffffffffffffff\n      and\n      mul\n      or\n      swap1\n      sstore\n      pop\n        /* \"contracts/Marketplace.sol\":3523:3527  this */\n      address\n        /* \"contracts/Marketplace.sol\":3495:3498  nft */\n      dup2\n        /* \"contracts/Marketplace.sol\":3495:3504  nft.owner */\n      0x03\n      add\n      0x00\n        /* \"contracts/Marketplace.sol\":3495:3529  nft.owner = payable(address(this)) */\n      0x0100\n      exp\n      dup2\n      sload\n      dup2\n      0xffffffffffffffffffffffffffffffffffffffff\n      mul\n      not\n      and\n      swap1\n      dup4\n      0xffffffffffffffffffffffffffffffffffffffff\n      and\n      mul\n      or\n      swap1\n      sstore\n      pop\n        /* \"contracts/Marketplace.sol\":3551:3555  true */\n      0x01\n        /* \"contracts/Marketplace.sol\":3536:3539  nft */\n      dup2\n        /* \"contracts/Marketplace.sol\":3536:3548  nft.isListed */\n      0x07\n      add\n      0x00\n        /* \"contracts/Marketplace.sol\":3536:3555  nft.isListed = true */\n      0x0100\n      exp\n      dup2\n      sload\n      dup2\n      0xff\n      mul\n      not\n      and\n      swap1\n      dup4\n      iszero\n      iszero\n      mul\n      or\n      swap1\n      sstore\n      pop\n        /* \"contracts/Marketplace.sol\":3564:3585  _nftsSold.decrement() */\n      tag_36\n        /* \"contracts/Marketplace.sol\":3564:3573  _nftsSold */\n      0x01\n        /* \"contracts/Marketplace.sol\":3564:3583  _nftsSold.decrement */\n      tag_37\n        /* \"contracts/Marketplace.sol\":3564:3585  _nftsSold.decrement() */\n      jump\t// in\n    tag_36:\n        /* \"contracts/Marketplace.sol\":3597:3670  NFTListed(_nftContract, _tokenId, msg.sender, address(this), LISTING_FEE) */\n      0xa0c6c0d02d86fdacecbaa5fdf5894bab204e31a778250474108540733a9b8d19\n        /* \"contracts/Marketplace.sol\":3607:3619  _nftContract */\n      dup5\n        /* \"contracts/Marketplace.sol\":3621:3629  _tokenId */\n      dup5\n        /* \"contracts/Marketplace.sol\":3631:3641  msg.sender */\n      caller\n        /* \"contracts/Marketplace.sol\":3651:3655  this */\n      address\n        /* \"contracts/Marketplace.sol\":3658:3669  LISTING_FEE */\n      sload(0x03)\n        /* \"contracts/Marketplace.sol\":3597:3670  NFTListed(_nftContract, _tokenId, msg.sender, address(this), LISTING_FEE) */\n      mload(0x40)\n      tag_38\n      swap6\n      swap5\n      swap4\n      swap3\n      swap2\n      swap1\n      tag_39\n      jump\t// in\n    tag_38:\n      mload(0x40)\n      dup1\n      swap2\n      sub\n      swap1\n      log1\n        /* \"contracts/Marketplace.sol\":3265:3676  {... */\n      pop\n      pop\n        /* \"@openzeppelin/contracts/security/ReentrancyGuard.sol\":2303:2323  _nonReentrantAfter() */\n      tag_40\n        /* \"@openzeppelin/contracts/security/ReentrancyGuard.sol\":2303:2321  _nonReentrantAfter */\n      tag_41\n        /* \"@openzeppelin/contracts/security/ReentrancyGuard.sol\":2303:2323  _nonReentrantAfter() */\n      jump\t// in\n    tag_40:\n        /* \"contracts/Marketplace.sol\":3178:3676  function resellNFT(address _nftContract, uint256 _tokenId) public payable nonReentrant {... */\n      pop\n      pop\n      jump\t// out\n        /* \"contracts/Marketplace.sol\":2347:3120  function buyNFT(address _nftContract, uint256 _tokenId) public payable nonReentrant  {... */\n    tag_17:\n        /* \"@openzeppelin/contracts/security/ReentrancyGuard.sol\":2261:2282  _nonReentrantBefore() */\n      tag_43\n        /* \"@openzeppelin/contracts/security/ReentrancyGuard.sol\":2261:2280  _nonReentrantBefore */\n      tag_24\n        /* \"@openzeppelin/contracts/security/ReentrancyGuard.sol\":2261:2282  _nonReentrantBefore() */\n      jump\t// in\n    tag_43:\n        /* \"contracts/Marketplace.sol\":2439:2456  Token storage nft */\n      0x00\n        /* \"contracts/Marketplace.sol\":2459:2469  _idToToken */\n      0x05\n        /* \"contracts/Marketplace.sol\":2459:2479  _idToToken[_tokenId] */\n      0x00\n        /* \"contracts/Marketplace.sol\":2470:2478  _tokenId */\n      dup4\n        /* \"contracts/Marketplace.sol\":2459:2479  _idToToken[_tokenId] */\n      dup2\n      mstore\n      0x20\n      add\n      swap1\n      dup2\n      mstore\n      0x20\n      add\n      0x00\n      keccak256\n        /* \"contracts/Marketplace.sol\":2439:2479  Token storage nft = _idToToken[_tokenId] */\n      swap1\n      pop\n        /* \"contracts/Marketplace.sol\":2507:2510  nft */\n      dup1\n        /* \"contracts/Marketplace.sol\":2507:2516  nft.price */\n      0x06\n      add\n      sload\n        /* \"contracts/Marketplace.sol\":2494:2503  msg.value */\n      callvalue\n        /* \"contracts/Marketplace.sol\":2494:2516  msg.value >= nft.price */\n      lt\n      iszero\n        /* \"contracts/Marketplace.sol\":2486:2558  require(msg.value >= nft.price, \"Not enough ether to cover token price\") */\n      tag_45\n      jumpi\n      mload(0x40)\n      0x08c379a000000000000000000000000000000000000000000000000000000000\n      dup2\n      mstore\n      0x04\n      add\n      tag_46\n      swap1\n      tag_47\n      jump\t// in\n    tag_46:\n      mload(0x40)\n      dup1\n      swap2\n      sub\n      swap1\n      revert\n    tag_45:\n        /* \"contracts/Marketplace.sol\":2567:2580  address owner */\n      0x00\n        /* \"contracts/Marketplace.sol\":2591:2603  _nftContract */\n      dup4\n        /* \"contracts/Marketplace.sol\":2583:2612  IERC721(_nftContract).ownerOf */\n      0xffffffffffffffffffffffffffffffffffffffff\n      and\n      0x6352211e\n        /* \"contracts/Marketplace.sol\":2613:2621  _tokenId */\n      dup5\n        /* \"contracts/Marketplace.sol\":2583:2622  IERC721(_nftContract).ownerOf(_tokenId) */\n      mload(0x40)\n      dup3\n      0xffffffff\n      and\n      0xe0\n      shl\n      dup2\n      mstore\n      0x04\n      add\n      tag_48\n      swap2\n      swap1\n      tag_10\n      jump\t// in\n    tag_48:\n      0x20\n      mload(0x40)\n      dup1\n      dup4\n      sub\n      dup2\n      dup7\n      gas\n      staticcall\n      iszero\n      dup1\n      iszero\n      tag_50\n      jumpi\n      returndatasize\n      0x00\n      dup1\n      returndatacopy\n      revert(0x00, returndatasize)\n    tag_50:\n      pop\n      pop\n      pop\n      pop\n      mload(0x40)\n      returndatasize\n      not(0x1f)\n      0x1f\n      dup3\n      add\n      and\n      dup3\n      add\n      dup1\n      0x40\n      mstore\n      pop\n      dup2\n      add\n      swap1\n      tag_51\n      swap2\n      swap1\n      tag_30\n      jump\t// in\n    tag_51:\n        /* \"contracts/Marketplace.sol\":2567:2622  address owner = IERC721(_nftContract).ownerOf(_tokenId) */\n      swap1\n      pop\n        /* \"contracts/Marketplace.sol\":2629:2642  address buyer */\n      0x00\n        /* \"contracts/Marketplace.sol\":2653:2663  msg.sender */\n      caller\n        /* \"contracts/Marketplace.sol\":2629:2664  address buyer = payable(msg.sender) */\n      swap1\n      pop\n        /* \"contracts/Marketplace.sol\":2685:2688  nft */\n      dup3\n        /* \"contracts/Marketplace.sol\":2685:2695  nft.seller */\n      0x02\n      add\n      0x00\n      swap1\n      sload\n      swap1\n      0x0100\n      exp\n      swap1\n      div\n      0xffffffffffffffffffffffffffffffffffffffff\n      and\n        /* \"contracts/Marketplace.sol\":2677:2705  payable(nft.seller).transfer */\n      0xffffffffffffffffffffffffffffffffffffffff\n      and\n        /* \"contracts/Marketplace.sol\":2677:2716  payable(nft.seller).transfer(msg.value) */\n      0x08fc\n        /* \"contracts/Marketplace.sol\":2706:2715  msg.value */\n      callvalue\n        /* \"contracts/Marketplace.sol\":2677:2716  payable(nft.seller).transfer(msg.value) */\n      swap1\n      dup2\n      iszero\n      mul\n      swap1\n      mload(0x40)\n      0x00\n      mload(0x40)\n      dup1\n      dup4\n      sub\n      dup2\n      dup6\n      dup9\n      dup9\n      call\n      swap4\n      pop\n      pop\n      pop\n      pop\n      iszero\n      dup1\n      iszero\n      tag_53\n      jumpi\n      returndatasize\n      0x00\n      dup1\n      returndatacopy\n      revert(0x00, returndatasize)\n    tag_53:\n      pop\n        /* \"contracts/Marketplace.sol\":2737:2749  _nftContract */\n      dup5\n        /* \"contracts/Marketplace.sol\":2729:2768  IERC721(_nftContract).setApprovalForAll */\n      0xffffffffffffffffffffffffffffffffffffffff\n      and\n      0xa22cb465\n        /* \"contracts/Marketplace.sol\":2769:2774  buyer */\n      dup3\n        /* \"contracts/Marketplace.sol\":2776:2780  true */\n      0x01\n        /* \"contracts/Marketplace.sol\":2729:2781  IERC721(_nftContract).setApprovalForAll(buyer, true) */\n      mload(0x40)\n      dup4\n      0xffffffff\n      and\n      0xe0\n      shl\n      dup2\n      mstore\n      0x04\n      add\n      tag_54\n      swap3\n      swap2\n      swap1\n      tag_55\n      jump\t// in\n    tag_54:\n      0x00\n      mload(0x40)\n      dup1\n      dup4\n      sub\n      dup2\n      0x00\n      dup8\n      dup1\n      extcodesize\n      iszero\n      dup1\n      iszero\n      tag_56\n      jumpi\n      0x00\n      dup1\n      revert\n    tag_56:\n      pop\n      gas\n      call\n      iszero\n      dup1\n      iszero\n      tag_58\n      jumpi\n      returndatasize\n      0x00\n      dup1\n      returndatacopy\n      revert(0x00, returndatasize)\n    tag_58:\n      pop\n      pop\n      pop\n      pop\n        /* \"contracts/Marketplace.sol\":2796:2808  _nftContract */\n      dup5\n        /* \"contracts/Marketplace.sol\":2788:2817  IERC721(_nftContract).approve */\n      0xffffffffffffffffffffffffffffffffffffffff\n      and\n      0x095ea7b3\n        /* \"contracts/Marketplace.sol\":2818:2823  buyer */\n      dup3\n        /* \"contracts/Marketplace.sol\":2825:2828  nft */\n      dup6\n        /* \"contracts/Marketplace.sol\":2825:2836  nft.tokenId */\n      0x01\n      add\n      sload\n        /* \"contracts/Marketplace.sol\":2788:2837  IERC721(_nftContract).approve(buyer, nft.tokenId) */\n      mload(0x40)\n      dup4\n      0xffffffff\n      and\n      0xe0\n      shl\n      dup2\n      mstore\n      0x04\n      add\n      tag_59\n      swap3\n      swap2\n      swap1\n      tag_60\n      jump\t// in\n    tag_59:\n      0x00\n      mload(0x40)\n      dup1\n      dup4\n      sub\n      dup2\n      0x00\n      dup8\n      dup1\n      extcodesize\n      iszero\n      dup1\n      iszero\n      tag_61\n      jumpi\n      0x00\n      dup1\n      revert\n    tag_61:\n      pop\n      gas\n      call\n      iszero\n      dup1\n      iszero\n      tag_63\n      jumpi\n      returndatasize\n      0x00\n      dup1\n      returndatacopy\n      revert(0x00, returndatasize)\n    tag_63:\n      pop\n      pop\n      pop\n      pop\n        /* \"contracts/Marketplace.sol\":2852:2864  _nftContract */\n      dup5\n        /* \"contracts/Marketplace.sol\":2844:2878  IERC721(_nftContract).transferFrom */\n      0xffffffffffffffffffffffffffffffffffffffff\n      and\n      0x23b872dd\n        /* \"contracts/Marketplace.sol\":2879:2884  owner */\n      dup4\n        /* \"contracts/Marketplace.sol\":2886:2891  buyer */\n      dup4\n        /* \"contracts/Marketplace.sol\":2893:2896  nft */\n      dup7\n        /* \"contracts/Marketplace.sol\":2893:2904  nft.tokenId */\n      0x01\n      add\n      sload\n        /* \"contracts/Marketplace.sol\":2844:2905  IERC721(_nftContract).transferFrom(owner, buyer, nft.tokenId) */\n      mload(0x40)\n      dup5\n      0xffffffff\n      and\n      0xe0\n      shl\n      dup2\n      mstore\n      0x04\n      add\n      tag_64\n      swap4\n      swap3\n      swap2\n      swap1\n      tag_32\n      jump\t// in\n    tag_64:\n      0x00\n      mload(0x40)\n      dup1\n      dup4\n      sub\n      dup2\n      0x00\n      dup8\n      dup1\n      extcodesize\n      iszero\n      dup1\n      iszero\n      tag_65\n      jumpi\n      0x00\n      dup1\n      revert\n    tag_65:\n      pop\n      gas\n      call\n      iszero\n      dup1\n      iszero\n      tag_67\n      jumpi\n      returndatasize\n      0x00\n      dup1\n      returndatacopy\n      revert(0x00, returndatasize)\n    tag_67:\n      pop\n      pop\n      pop\n      pop\n        /* \"contracts/Marketplace.sol\":2914:2926  _marketOwner */\n      0x04\n      0x00\n      swap1\n      sload\n      swap1\n      0x0100\n      exp\n      swap1\n      div\n      0xffffffffffffffffffffffffffffffffffffffff\n      and\n        /* \"contracts/Marketplace.sol\":2914:2935  _marketOwner.transfer */\n      0xffffffffffffffffffffffffffffffffffffffff\n      and\n        /* \"contracts/Marketplace.sol\":2914:2948  _marketOwner.transfer(LISTING_FEE) */\n      0x08fc\n        /* \"contracts/Marketplace.sol\":2936:2947  LISTING_FEE */\n      sload(0x03)\n        /* \"contracts/Marketplace.sol\":2914:2948  _marketOwner.transfer(LISTING_FEE) */\n      swap1\n      dup2\n      iszero\n      mul\n      swap1\n      mload(0x40)\n      0x00\n      mload(0x40)\n      dup1\n      dup4\n      sub\n      dup2\n      dup6\n      dup9\n      dup9\n      call\n      swap4\n      pop\n      pop\n      pop\n      pop\n      iszero\n      dup1\n      iszero\n      tag_69\n      jumpi\n      returndatasize\n      0x00\n      dup1\n      returndatacopy\n      revert(0x00, returndatasize)\n    tag_69:\n      pop\n        /* \"contracts/Marketplace.sol\":2975:2980  buyer */\n      dup1\n        /* \"contracts/Marketplace.sol\":2955:2958  nft */\n      dup4\n        /* \"contracts/Marketplace.sol\":2955:2964  nft.owner */\n      0x03\n      add\n      0x00\n        /* \"contracts/Marketplace.sol\":2955:2981  nft.owner = payable(buyer) */\n      0x0100\n      exp\n      dup2\n      sload\n      dup2\n      0xffffffffffffffffffffffffffffffffffffffff\n      mul\n      not\n      and\n      swap1\n      dup4\n      0xffffffffffffffffffffffffffffffffffffffff\n      and\n      mul\n      or\n      swap1\n      sstore\n      pop\n        /* \"contracts/Marketplace.sol\":3003:3008  false */\n      0x00\n        /* \"contracts/Marketplace.sol\":2988:2991  nft */\n      dup4\n        /* \"contracts/Marketplace.sol\":2988:3000  nft.isListed */\n      0x07\n      add\n      0x00\n        /* \"contracts/Marketplace.sol\":2988:3008  nft.isListed = false */\n      0x0100\n      exp\n      dup2\n      sload\n      dup2\n      0xff\n      mul\n      not\n      and\n      swap1\n      dup4\n      iszero\n      iszero\n      mul\n      or\n      swap1\n      sstore\n      pop\n        /* \"contracts/Marketplace.sol\":3017:3038  _nftsSold.increment() */\n      tag_70\n        /* \"contracts/Marketplace.sol\":3017:3026  _nftsSold */\n      0x01\n        /* \"contracts/Marketplace.sol\":3017:3036  _nftsSold.increment */\n      tag_71\n        /* \"contracts/Marketplace.sol\":3017:3038  _nftsSold.increment() */\n      jump\t// in\n    tag_70:\n        /* \"contracts/Marketplace.sol\":3050:3114  NFTSold(_nftContract, nft.tokenId, nft.seller, buyer, msg.value) */\n      0x16f1dbd97e6bf646d429ed186cce832f1f7fd9907814293b83181e9970ab7bd2\n        /* \"contracts/Marketplace.sol\":3058:3070  _nftContract */\n      dup6\n        /* \"contracts/Marketplace.sol\":3072:3075  nft */\n      dup5\n        /* \"contracts/Marketplace.sol\":3072:3083  nft.tokenId */\n      0x01\n      add\n      sload\n        /* \"contracts/Marketplace.sol\":3085:3088  nft */\n      dup6\n        /* \"contracts/Marketplace.sol\":3085:3095  nft.seller */\n      0x02\n      add\n      0x00\n      swap1\n      sload\n      swap1\n      0x0100\n      exp\n      swap1\n      div\n      0xffffffffffffffffffffffffffffffffffffffff\n      and\n        /* \"contracts/Marketplace.sol\":3097:3102  buyer */\n      dup5\n        /* \"contracts/Marketplace.sol\":3104:3113  msg.value */\n      callvalue\n        /* \"contracts/Marketplace.sol\":3050:3114  NFTSold(_nftContract, nft.tokenId, nft.seller, buyer, msg.value) */\n      mload(0x40)\n      tag_72\n      swap6\n      swap5\n      swap4\n      swap3\n      swap2\n      swap1\n      tag_73\n      jump\t// in\n    tag_72:\n      mload(0x40)\n      dup1\n      swap2\n      sub\n      swap1\n      log1\n        /* \"contracts/Marketplace.sol\":2432:3120  {... */\n      pop\n      pop\n      pop\n        /* \"@openzeppelin/contracts/security/ReentrancyGuard.sol\":2303:2323  _nonReentrantAfter() */\n      tag_74\n        /* \"@openzeppelin/contracts/security/ReentrancyGuard.sol\":2303:2321  _nonReentrantAfter */\n      tag_41\n        /* \"@openzeppelin/contracts/security/ReentrancyGuard.sol\":2303:2323  _nonReentrantAfter() */\n      jump\t// in\n    tag_74:\n        /* \"contracts/Marketplace.sol\":2347:3120  function buyNFT(address _nftContract, uint256 _tokenId) public payable nonReentrant  {... */\n      pop\n      pop\n      jump\t// out\n        /* \"contracts/Marketplace.sol\":1621:2323  function listNFT(address _nftContract, uint256 _tokenId, string memory _name, string memory _tokenURI) public payable nonReentrant {... */\n    tag_21:\n        /* \"@openzeppelin/contracts/security/ReentrancyGuard.sol\":2261:2282  _nonReentrantBefore() */\n      tag_76\n        /* \"@openzeppelin/contracts/security/ReentrancyGuard.sol\":2261:2280  _nonReentrantBefore */\n      tag_24\n        /* \"@openzeppelin/contracts/security/ReentrancyGuard.sol\":2261:2282  _nonReentrantBefore() */\n      jump\t// in\n    tag_76:\n        /* \"contracts/Marketplace.sol\":1779:1780  0 */\n      0x00\n        /* \"contracts/Marketplace.sol\":1767:1776  msg.value */\n      callvalue\n        /* \"contracts/Marketplace.sol\":1767:1780  msg.value > 0 */\n      gt\n        /* \"contracts/Marketplace.sol\":1759:1820  require(msg.value > 0, \"Price must be at least 0.0001 ether\") */\n      tag_78\n      jumpi\n      mload(0x40)\n      0x08c379a000000000000000000000000000000000000000000000000000000000\n      dup2\n      mstore\n      0x04\n      add\n      tag_79\n      swap1\n      tag_80\n      jump\t// in\n    tag_79:\n      mload(0x40)\n      dup1\n      swap2\n      sub\n      swap1\n      revert\n    tag_78:\n        /* \"contracts/Marketplace.sol\":1848:1859  LISTING_FEE */\n      sload(0x03)\n        /* \"contracts/Marketplace.sol\":1835:1844  msg.value */\n      callvalue\n        /* \"contracts/Marketplace.sol\":1835:1859  msg.value == LISTING_FEE */\n      eq\n        /* \"contracts/Marketplace.sol\":1827:1896  require(msg.value == LISTING_FEE, \"Not enough ether for listing fee\") */\n      tag_81\n      jumpi\n      mload(0x40)\n      0x08c379a000000000000000000000000000000000000000000000000000000000\n      dup2\n      mstore\n      0x04\n      add\n      tag_82\n      swap1\n      tag_83\n      jump\t// in\n    tag_82:\n      mload(0x40)\n      dup1\n      swap2\n      sub\n      swap1\n      revert\n    tag_81:\n        /* \"contracts/Marketplace.sol\":1913:1925  _nftContract */\n      dup4\n        /* \"contracts/Marketplace.sol\":1905:1939  IERC721(_nftContract).transferFrom */\n      0xffffffffffffffffffffffffffffffffffffffff\n      and\n      0x23b872dd\n        /* \"contracts/Marketplace.sol\":1940:1950  msg.sender */\n      caller\n        /* \"contracts/Marketplace.sol\":1960:1964  this */\n      address\n        /* \"contracts/Marketplace.sol\":1967:1975  _tokenId */\n      dup7\n        /* \"contracts/Marketplace.sol\":1905:1976  IERC721(_nftContract).transferFrom(msg.sender, address(this), _tokenId) */\n      mload(0x40)\n      dup5\n      0xffffffff\n      and\n      0xe0\n      shl\n      dup2\n      mstore\n      0x04\n      add\n      tag_84\n      swap4\n      swap3\n      swap2\n      swap1\n      tag_32\n      jump\t// in\n    tag_84:\n      0x00\n      mload(0x40)\n      dup1\n      dup4\n      sub\n      dup2\n      0x00\n      dup8\n      dup1\n      extcodesize\n      iszero\n      dup1\n      iszero\n      tag_85\n      jumpi\n      0x00\n      dup1\n      revert\n    tag_85:\n      pop\n      gas\n      call\n      iszero\n      dup1\n      iszero\n      tag_87\n      jumpi\n      returndatasize\n      0x00\n      dup1\n      returndatacopy\n      revert(0x00, returndatasize)\n    tag_87:\n      pop\n      pop\n      pop\n      pop\n        /* \"contracts/Marketplace.sol\":1985:2006  _nftCount.increment() */\n      tag_88\n        /* \"contracts/Marketplace.sol\":1985:1994  _nftCount */\n      0x02\n        /* \"contracts/Marketplace.sol\":1985:2004  _nftCount.increment */\n      tag_71\n        /* \"contracts/Marketplace.sol\":1985:2006  _nftCount.increment() */\n      jump\t// in\n    tag_88:\n        /* \"contracts/Marketplace.sol\":2038:2212  Token(... */\n      mload(0x40)\n      dup1\n      0x0100\n      add\n      0x40\n      mstore\n      dup1\n        /* \"contracts/Marketplace.sol\":2052:2064  _nftContract */\n      dup6\n        /* \"contracts/Marketplace.sol\":2038:2212  Token(... */\n      0xffffffffffffffffffffffffffffffffffffffff\n      and\n      dup2\n      mstore\n      0x20\n      add\n        /* \"contracts/Marketplace.sol\":2073:2081  _tokenId */\n      dup5\n        /* \"contracts/Marketplace.sol\":2038:2212  Token(... */\n      dup2\n      mstore\n      0x20\n      add\n        /* \"contracts/Marketplace.sol\":2098:2108  msg.sender */\n      caller\n        /* \"contracts/Marketplace.sol\":2038:2212  Token(... */\n      0xffffffffffffffffffffffffffffffffffffffff\n      and\n      dup2\n      mstore\n      0x20\n      add\n        /* \"contracts/Marketplace.sol\":2134:2138  this */\n      address\n        /* \"contracts/Marketplace.sol\":2038:2212  Token(... */\n      0xffffffffffffffffffffffffffffffffffffffff\n      and\n      dup2\n      mstore\n      0x20\n      add\n        /* \"contracts/Marketplace.sol\":2149:2158  _tokenURI */\n      dup3\n        /* \"contracts/Marketplace.sol\":2038:2212  Token(... */\n      dup2\n      mstore\n      0x20\n      add\n        /* \"contracts/Marketplace.sol\":2167:2172  _name */\n      dup4\n        /* \"contracts/Marketplace.sol\":2038:2212  Token(... */\n      dup2\n      mstore\n      0x20\n      add\n        /* \"contracts/Marketplace.sol\":2181:2192  LISTING_FEE */\n      sload(0x03)\n        /* \"contracts/Marketplace.sol\":2038:2212  Token(... */\n      dup2\n      mstore\n      0x20\n      add\n        /* \"contracts/Marketplace.sol\":2201:2205  true */\n      0x01\n        /* \"contracts/Marketplace.sol\":2038:2212  Token(... */\n      iszero\n      iszero\n      dup2\n      mstore\n      pop\n        /* \"contracts/Marketplace.sol\":2015:2025  _idToToken */\n      0x05\n        /* \"contracts/Marketplace.sol\":2015:2035  _idToToken[_tokenId] */\n      0x00\n        /* \"contracts/Marketplace.sol\":2026:2034  _tokenId */\n      dup6\n        /* \"contracts/Marketplace.sol\":2015:2035  _idToToken[_tokenId] */\n      dup2\n      mstore\n      0x20\n      add\n      swap1\n      dup2\n      mstore\n      0x20\n      add\n      0x00\n      keccak256\n        /* \"contracts/Marketplace.sol\":2015:2212  _idToToken[_tokenId] = Token(... */\n      0x00\n      dup3\n      add\n      mload\n      dup2\n      0x00\n      add\n      exp(0x0100, 0x00)\n      dup2\n      sload\n      dup2\n      0xffffffffffffffffffffffffffffffffffffffff\n      mul\n      not\n      and\n      swap1\n      dup4\n      0xffffffffffffffffffffffffffffffffffffffff\n      and\n      mul\n      or\n      swap1\n      sstore\n      pop\n      0x20\n      dup3\n      add\n      mload\n      dup2\n      0x01\n      add\n      sstore\n      0x40\n      dup3\n      add\n      mload\n      dup2\n      0x02\n      add\n      exp(0x0100, 0x00)\n      dup2\n      sload\n      dup2\n      0xffffffffffffffffffffffffffffffffffffffff\n      mul\n      not\n      and\n      swap1\n      dup4\n      0xffffffffffffffffffffffffffffffffffffffff\n      and\n      mul\n      or\n      swap1\n      sstore\n      pop\n      0x60\n      dup3\n      add\n      mload\n      dup2\n      0x03\n      add\n      exp(0x0100, 0x00)\n      dup2\n      sload\n      dup2\n      0xffffffffffffffffffffffffffffffffffffffff\n      mul\n      not\n      and\n      swap1\n      dup4\n      0xffffffffffffffffffffffffffffffffffffffff\n      and\n      mul\n      or\n      swap1\n      sstore\n      pop\n      0x80\n      dup3\n      add\n      mload\n      dup2\n      0x04\n      add\n      swap1\n      dup2\n      tag_89\n      swap2\n      swap1\n      tag_90\n      jump\t// in\n    tag_89:\n      pop\n      0xa0\n      dup3\n      add\n      mload\n      dup2\n      0x05\n      add\n      swap1\n      dup2\n      tag_91\n      swap2\n      swap1\n      tag_90\n      jump\t// in\n    tag_91:\n      pop\n      0xc0\n      dup3\n      add\n      mload\n      dup2\n      0x06\n      add\n      sstore\n      0xe0\n      dup3\n      add\n      mload\n      dup2\n      0x07\n      add\n      exp(0x0100, 0x00)\n      dup2\n      sload\n      dup2\n      0xff\n      mul\n      not\n      and\n      swap1\n      dup4\n      iszero\n      iszero\n      mul\n      or\n      swap1\n      sstore\n      pop\n      swap1\n      pop\n      pop\n        /* \"contracts/Marketplace.sol\":2226:2317  NFTListed(_nftContract, _tokenId, payable(msg.sender), payable(address(this)), LISTING_FEE) */\n      0xa0c6c0d02d86fdacecbaa5fdf5894bab204e31a778250474108540733a9b8d19\n        /* \"contracts/Marketplace.sol\":2236:2248  _nftContract */\n      dup5\n        /* \"contracts/Marketplace.sol\":2250:2258  _tokenId */\n      dup5\n        /* \"contracts/Marketplace.sol\":2268:2278  msg.sender */\n      caller\n        /* \"contracts/Marketplace.sol\":2297:2301  this */\n      address\n        /* \"contracts/Marketplace.sol\":2305:2316  LISTING_FEE */\n      sload(0x03)\n        /* \"contracts/Marketplace.sol\":2226:2317  NFTListed(_nftContract, _tokenId, payable(msg.sender), payable(address(this)), LISTING_FEE) */\n      mload(0x40)\n      tag_92\n      swap6\n      swap5\n      swap4\n      swap3\n      swap2\n      swap1\n      tag_93\n      jump\t// in\n    tag_92:\n      mload(0x40)\n      dup1\n      swap2\n      sub\n      swap1\n      log1\n        /* \"@openzeppelin/contracts/security/ReentrancyGuard.sol\":2303:2323  _nonReentrantAfter() */\n      tag_94\n        /* \"@openzeppelin/contracts/security/ReentrancyGuard.sol\":2303:2321  _nonReentrantAfter */\n      tag_41\n        /* \"@openzeppelin/contracts/security/ReentrancyGuard.sol\":2303:2323  _nonReentrantAfter() */\n      jump\t// in\n    tag_94:\n        /* \"contracts/Marketplace.sol\":1621:2323  function listNFT(address _nftContract, uint256 _tokenId, string memory _name, string memory _tokenURI) public payable nonReentrant {... */\n      pop\n      pop\n      pop\n      pop\n      jump\t// out\n        /* \"@openzeppelin/contracts/security/ReentrancyGuard.sol\":2336:2623  function _nonReentrantBefore() private {... */\n    tag_24:\n        /* \"@openzeppelin/contracts/security/ReentrancyGuard.sol\":1759:1760  2 */\n      0x02\n        /* \"@openzeppelin/contracts/security/ReentrancyGuard.sol\":2468:2475  _status */\n      sload(0x00)\n        /* \"@openzeppelin/contracts/security/ReentrancyGuard.sol\":2468:2487  _status != _ENTERED */\n      sub\n        /* \"@openzeppelin/contracts/security/ReentrancyGuard.sol\":2460:2523  require(_status != _ENTERED, \"ReentrancyGuard: reentrant call\") */\n      tag_96\n      jumpi\n      mload(0x40)\n      0x08c379a000000000000000000000000000000000000000000000000000000000\n      dup2\n      mstore\n      0x04\n      add\n      tag_97\n      swap1\n      tag_98\n      jump\t// in\n    tag_97:\n      mload(0x40)\n      dup1\n      swap2\n      sub\n      swap1\n      revert\n    tag_96:\n        /* \"@openzeppelin/contracts/security/ReentrancyGuard.sol\":1759:1760  2 */\n      0x02\n        /* \"@openzeppelin/contracts/security/ReentrancyGuard.sol\":2598:2605  _status */\n      0x00\n        /* \"@openzeppelin/contracts/security/ReentrancyGuard.sol\":2598:2616  _status = _ENTERED */\n      dup2\n      swap1\n      sstore\n      pop\n        /* \"@openzeppelin/contracts/security/ReentrancyGuard.sol\":2336:2623  function _nonReentrantBefore() private {... */\n      jump\t// out\n        /* \"@openzeppelin/contracts/utils/Counters.sol\":1074:1303  function decrement(Counter storage counter) internal {... */\n    tag_37:\n        /* \"@openzeppelin/contracts/utils/Counters.sol\":1137:1150  uint256 value */\n      0x00\n        /* \"@openzeppelin/contracts/utils/Counters.sol\":1153:1160  counter */\n      dup2\n        /* \"@openzeppelin/contracts/utils/Counters.sol\":1153:1167  counter._value */\n      0x00\n      add\n      sload\n        /* \"@openzeppelin/contracts/utils/Counters.sol\":1137:1167  uint256 value = counter._value */\n      swap1\n      pop\n        /* \"@openzeppelin/contracts/utils/Counters.sol\":1193:1194  0 */\n      0x00\n        /* \"@openzeppelin/contracts/utils/Counters.sol\":1185:1190  value */\n      dup2\n        /* \"@openzeppelin/contracts/utils/Counters.sol\":1185:1194  value > 0 */\n      gt\n        /* \"@openzeppelin/contracts/utils/Counters.sol\":1177:1226  require(value > 0, \"Counter: decrement overflow\") */\n      tag_100\n      jumpi\n      mload(0x40)\n      0x08c379a000000000000000000000000000000000000000000000000000000000\n      dup2\n      mstore\n      0x04\n      add\n      tag_101\n      swap1\n      tag_102\n      jump\t// in\n    tag_101:\n      mload(0x40)\n      dup1\n      swap2\n      sub\n      swap1\n      revert\n    tag_100:\n        /* \"@openzeppelin/contracts/utils/Counters.sol\":1285:1286  1 */\n      0x01\n        /* \"@openzeppelin/contracts/utils/Counters.sol\":1277:1282  value */\n      dup2\n        /* \"@openzeppelin/contracts/utils/Counters.sol\":1277:1286  value - 1 */\n      sub\n        /* \"@openzeppelin/contracts/utils/Counters.sol\":1260:1267  counter */\n      dup3\n        /* \"@openzeppelin/contracts/utils/Counters.sol\":1260:1274  counter._value */\n      0x00\n      add\n        /* \"@openzeppelin/contracts/utils/Counters.sol\":1260:1286  counter._value = value - 1 */\n      dup2\n      swap1\n      sstore\n      pop\n        /* \"@openzeppelin/contracts/utils/Counters.sol\":1127:1303  {... */\n      pop\n        /* \"@openzeppelin/contracts/utils/Counters.sol\":1074:1303  function decrement(Counter storage counter) internal {... */\n      pop\n      jump\t// out\n        /* \"@openzeppelin/contracts/security/ReentrancyGuard.sol\":2629:2838  function _nonReentrantAfter() private {... */\n    tag_41:\n        /* \"@openzeppelin/contracts/security/ReentrancyGuard.sol\":1716:1717  1 */\n      0x01\n        /* \"@openzeppelin/contracts/security/ReentrancyGuard.sol\":2809:2816  _status */\n      0x00\n        /* \"@openzeppelin/contracts/security/ReentrancyGuard.sol\":2809:2831  _status = _NOT_ENTERED */\n      dup2\n      swap1\n      sstore\n      pop\n        /* \"@openzeppelin/contracts/security/ReentrancyGuard.sol\":2629:2838  function _nonReentrantAfter() private {... */\n      jump\t// out\n        /* \"@openzeppelin/contracts/utils/Counters.sol\":945:1068  function increment(Counter storage counter) internal {... */\n    tag_71:\n        /* \"@openzeppelin/contracts/utils/Counters.sol\":1050:1051  1 */\n      0x01\n        /* \"@openzeppelin/contracts/utils/Counters.sol\":1032:1039  counter */\n      dup2\n        /* \"@openzeppelin/contracts/utils/Counters.sol\":1032:1046  counter._value */\n      0x00\n      add\n      0x00\n        /* \"@openzeppelin/contracts/utils/Counters.sol\":1032:1051  counter._value += 1 */\n      dup3\n      dup3\n      sload\n      add\n      swap3\n      pop\n      pop\n      dup2\n      swap1\n      sstore\n      pop\n        /* \"@openzeppelin/contracts/utils/Counters.sol\":945:1068  function increment(Counter storage counter) internal {... */\n      pop\n      jump\t// out\n        /* \"#utility.yul\":7:84   */\n    tag_105:\n        /* \"#utility.yul\":44:51   */\n      0x00\n        /* \"#utility.yul\":73:78   */\n      dup2\n        /* \"#utility.yul\":62:78   */\n      swap1\n      pop\n        /* \"#utility.yul\":7:84   */\n      swap2\n      swap1\n      pop\n      jump\t// out\n        /* \"#utility.yul\":90:208   */\n    tag_106:\n        /* \"#utility.yul\":177:201   */\n      tag_166\n        /* \"#utility.yul\":195:200   */\n      dup2\n        /* \"#utility.yul\":177:201   */\n      tag_105\n      jump\t// in\n    tag_166:\n        /* \"#utility.yul\":172:175   */\n      dup3\n        /* \"#utility.yul\":165:202   */\n      mstore\n        /* \"#utility.yul\":90:208   */\n      pop\n      pop\n      jump\t// out\n        /* \"#utility.yul\":214:436   */\n    tag_10:\n        /* \"#utility.yul\":307:311   */\n      0x00\n        /* \"#utility.yul\":345:347   */\n      0x20\n        /* \"#utility.yul\":334:343   */\n      dup3\n        /* \"#utility.yul\":330:348   */\n      add\n        /* \"#utility.yul\":322:348   */\n      swap1\n      pop\n        /* \"#utility.yul\":358:429   */\n      tag_168\n        /* \"#utility.yul\":426:427   */\n      0x00\n        /* \"#utility.yul\":415:424   */\n      dup4\n        /* \"#utility.yul\":411:428   */\n      add\n        /* \"#utility.yul\":402:408   */\n      dup5\n        /* \"#utility.yul\":358:429   */\n      tag_106\n      jump\t// in\n    tag_168:\n        /* \"#utility.yul\":214:436   */\n      swap3\n      swap2\n      pop\n      pop\n      jump\t// out\n        /* \"#utility.yul\":442:517   */\n    tag_107:\n        /* \"#utility.yul\":475:481   */\n      0x00\n        /* \"#utility.yul\":508:510   */\n      0x40\n        /* \"#utility.yul\":502:511   */\n      mload\n        /* \"#utility.yul\":492:511   */\n      swap1\n      pop\n        /* \"#utility.yul\":442:517   */\n      swap1\n      jump\t// out\n        /* \"#utility.yul\":523:640   */\n    tag_108:\n        /* \"#utility.yul\":632:633   */\n      0x00\n        /* \"#utility.yul\":629:630   */\n      dup1\n        /* \"#utility.yul\":622:634   */\n      revert\n        /* \"#utility.yul\":646:763   */\n    tag_109:\n        /* \"#utility.yul\":755:756   */\n      0x00\n        /* \"#utility.yul\":752:753   */\n      dup1\n        /* \"#utility.yul\":745:757   */\n      revert\n        /* \"#utility.yul\":769:895   */\n    tag_110:\n        /* \"#utility.yul\":806:813   */\n      0x00\n        /* \"#utility.yul\":846:888   */\n      0xffffffffffffffffffffffffffffffffffffffff\n        /* \"#utility.yul\":839:844   */\n      dup3\n        /* \"#utility.yul\":835:889   */\n      and\n        /* \"#utility.yul\":824:889   */\n      swap1\n      pop\n        /* \"#utility.yul\":769:895   */\n      swap2\n      swap1\n      pop\n      jump\t// out\n        /* \"#utility.yul\":901:997   */\n    tag_111:\n        /* \"#utility.yul\":938:945   */\n      0x00\n        /* \"#utility.yul\":967:991   */\n      tag_174\n        /* \"#utility.yul\":985:990   */\n      dup3\n        /* \"#utility.yul\":967:991   */\n      tag_110\n      jump\t// in\n    tag_174:\n        /* \"#utility.yul\":956:991   */\n      swap1\n      pop\n        /* \"#utility.yul\":901:997   */\n      swap2\n      swap1\n      pop\n      jump\t// out\n        /* \"#utility.yul\":1003:1125   */\n    tag_112:\n        /* \"#utility.yul\":1076:1100   */\n      tag_176\n        /* \"#utility.yul\":1094:1099   */\n      dup2\n        /* \"#utility.yul\":1076:1100   */\n      tag_111\n      jump\t// in\n    tag_176:\n        /* \"#utility.yul\":1069:1074   */\n      dup2\n        /* \"#utility.yul\":1066:1101   */\n      eq\n        /* \"#utility.yul\":1056:1119   */\n      tag_177\n      jumpi\n        /* \"#utility.yul\":1115:1116   */\n      0x00\n        /* \"#utility.yul\":1112:1113   */\n      dup1\n        /* \"#utility.yul\":1105:1117   */\n      revert\n        /* \"#utility.yul\":1056:1119   */\n    tag_177:\n        /* \"#utility.yul\":1003:1125   */\n      pop\n      jump\t// out\n        /* \"#utility.yul\":1131:1270   */\n    tag_113:\n        /* \"#utility.yul\":1177:1182   */\n      0x00\n        /* \"#utility.yul\":1215:1221   */\n      dup2\n        /* \"#utility.yul\":1202:1222   */\n      calldataload\n        /* \"#utility.yul\":1193:1222   */\n      swap1\n      pop\n        /* \"#utility.yul\":1231:1264   */\n      tag_179\n        /* \"#utility.yul\":1258:1263   */\n      dup2\n        /* \"#utility.yul\":1231:1264   */\n      tag_112\n      jump\t// in\n    tag_179:\n        /* \"#utility.yul\":1131:1270   */\n      swap3\n      swap2\n      pop\n      pop\n      jump\t// out\n        /* \"#utility.yul\":1276:1398   */\n    tag_114:\n        /* \"#utility.yul\":1349:1373   */\n      tag_181\n        /* \"#utility.yul\":1367:1372   */\n      dup2\n        /* \"#utility.yul\":1349:1373   */\n      tag_105\n      jump\t// in\n    tag_181:\n        /* \"#utility.yul\":1342:1347   */\n      dup2\n        /* \"#utility.yul\":1339:1374   */\n      eq\n        /* \"#utility.yul\":1329:1392   */\n      tag_182\n      jumpi\n        /* \"#utility.yul\":1388:1389   */\n      0x00\n        /* \"#utility.yul\":1385:1386   */\n      dup1\n        /* \"#utility.yul\":1378:1390   */\n      revert\n        /* \"#utility.yul\":1329:1392   */\n    tag_182:\n        /* \"#utility.yul\":1276:1398   */\n      pop\n      jump\t// out\n        /* \"#utility.yul\":1404:1543   */\n    tag_115:\n        /* \"#utility.yul\":1450:1455   */\n      0x00\n        /* \"#utility.yul\":1488:1494   */\n      dup2\n        /* \"#utility.yul\":1475:1495   */\n      calldataload\n        /* \"#utility.yul\":1466:1495   */\n      swap1\n      pop\n        /* \"#utility.yul\":1504:1537   */\n      tag_184\n        /* \"#utility.yul\":1531:1536   */\n      dup2\n        /* \"#utility.yul\":1504:1537   */\n      tag_114\n      jump\t// in\n    tag_184:\n        /* \"#utility.yul\":1404:1543   */\n      swap3\n      swap2\n      pop\n      pop\n      jump\t// out\n        /* \"#utility.yul\":1549:2023   */\n    tag_13:\n        /* \"#utility.yul\":1617:1623   */\n      0x00\n        /* \"#utility.yul\":1625:1631   */\n      dup1\n        /* \"#utility.yul\":1674:1676   */\n      0x40\n        /* \"#utility.yul\":1662:1671   */\n      dup4\n        /* \"#utility.yul\":1653:1660   */\n      dup6\n        /* \"#utility.yul\":1649:1672   */\n      sub\n        /* \"#utility.yul\":1645:1677   */\n      slt\n        /* \"#utility.yul\":1642:1761   */\n      iszero\n      tag_186\n      jumpi\n        /* \"#utility.yul\":1680:1759   */\n      tag_187\n      tag_108\n      jump\t// in\n    tag_187:\n        /* \"#utility.yul\":1642:1761   */\n    tag_186:\n        /* \"#utility.yul\":1800:1801   */\n      0x00\n        /* \"#utility.yul\":1825:1878   */\n      tag_188\n        /* \"#utility.yul\":1870:1877   */\n      dup6\n        /* \"#utility.yul\":1861:1867   */\n      dup3\n        /* \"#utility.yul\":1850:1859   */\n      dup7\n        /* \"#utility.yul\":1846:1868   */\n      add\n        /* \"#utility.yul\":1825:1878   */\n      tag_113\n      jump\t// in\n    tag_188:\n        /* \"#utility.yul\":1815:1878   */\n      swap3\n      pop\n        /* \"#utility.yul\":1771:1888   */\n      pop\n        /* \"#utility.yul\":1927:1929   */\n      0x20\n        /* \"#utility.yul\":1953:2006   */\n      tag_189\n        /* \"#utility.yul\":1998:2005   */\n      dup6\n        /* \"#utility.yul\":1989:1995   */\n      dup3\n        /* \"#utility.yul\":1978:1987   */\n      dup7\n        /* \"#utility.yul\":1974:1996   */\n      add\n        /* \"#utility.yul\":1953:2006   */\n      tag_115\n      jump\t// in\n    tag_189:\n        /* \"#utility.yul\":1943:2006   */\n      swap2\n      pop\n        /* \"#utility.yul\":1898:2016   */\n      pop\n        /* \"#utility.yul\":1549:2023   */\n      swap3\n      pop\n      swap3\n      swap1\n      pop\n      jump\t// out\n        /* \"#utility.yul\":2029:2146   */\n    tag_116:\n        /* \"#utility.yul\":2138:2139   */\n      0x00\n        /* \"#utility.yul\":2135:2136   */\n      dup1\n        /* \"#utility.yul\":2128:2140   */\n      revert\n        /* \"#utility.yul\":2152:2269   */\n    tag_117:\n        /* \"#utility.yul\":2261:2262   */\n      0x00\n        /* \"#utility.yul\":2258:2259   */\n      dup1\n        /* \"#utility.yul\":2251:2263   */\n      revert\n        /* \"#utility.yul\":2275:2377   */\n    tag_118:\n        /* \"#utility.yul\":2316:2322   */\n      0x00\n        /* \"#utility.yul\":2367:2369   */\n      0x1f\n        /* \"#utility.yul\":2363:2370   */\n      not\n        /* \"#utility.yul\":2358:2360   */\n      0x1f\n        /* \"#utility.yul\":2351:2356   */\n      dup4\n        /* \"#utility.yul\":2347:2361   */\n      add\n        /* \"#utility.yul\":2343:2371   */\n      and\n        /* \"#utility.yul\":2333:2371   */\n      swap1\n      pop\n        /* \"#utility.yul\":2275:2377   */\n      swap2\n      swap1\n      pop\n      jump\t// out\n        /* \"#utility.yul\":2383:2563   */\n    tag_119:\n        /* \"#utility.yul\":2431:2508   */\n      0x4e487b7100000000000000000000000000000000000000000000000000000000\n        /* \"#utility.yul\":2428:2429   */\n      0x00\n        /* \"#utility.yul\":2421:2509   */\n      mstore\n        /* \"#utility.yul\":2528:2532   */\n      0x41\n        /* \"#utility.yul\":2525:2526   */\n      0x04\n        /* \"#utility.yul\":2518:2533   */\n      mstore\n        /* \"#utility.yul\":2552:2556   */\n      0x24\n        /* \"#utility.yul\":2549:2550   */\n      0x00\n        /* \"#utility.yul\":2542:2557   */\n      revert\n        /* \"#utility.yul\":2569:2850   */\n    tag_120:\n        /* \"#utility.yul\":2652:2679   */\n      tag_195\n        /* \"#utility.yul\":2674:2678   */\n      dup3\n        /* \"#utility.yul\":2652:2679   */\n      tag_118\n      jump\t// in\n    tag_195:\n        /* \"#utility.yul\":2644:2650   */\n      dup2\n        /* \"#utility.yul\":2640:2680   */\n      add\n        /* \"#utility.yul\":2782:2788   */\n      dup2\n        /* \"#utility.yul\":2770:2780   */\n      dup2\n        /* \"#utility.yul\":2767:2789   */\n      lt\n        /* \"#utility.yul\":2746:2764   */\n      0xffffffffffffffff\n        /* \"#utility.yul\":2734:2744   */\n      dup3\n        /* \"#utility.yul\":2731:2765   */\n      gt\n        /* \"#utility.yul\":2728:2790   */\n      or\n        /* \"#utility.yul\":2725:2813   */\n      iszero\n      tag_196\n      jumpi\n        /* \"#utility.yul\":2793:2811   */\n      tag_197\n      tag_119\n      jump\t// in\n    tag_197:\n        /* \"#utility.yul\":2725:2813   */\n    tag_196:\n        /* \"#utility.yul\":2833:2843   */\n      dup1\n        /* \"#utility.yul\":2829:2831   */\n      0x40\n        /* \"#utility.yul\":2822:2844   */\n      mstore\n        /* \"#utility.yul\":2612:2850   */\n      pop\n        /* \"#utility.yul\":2569:2850   */\n      pop\n      pop\n      jump\t// out\n        /* \"#utility.yul\":2856:2985   */\n    tag_121:\n        /* \"#utility.yul\":2890:2896   */\n      0x00\n        /* \"#utility.yul\":2917:2937   */\n      tag_199\n      tag_107\n      jump\t// in\n    tag_199:\n        /* \"#utility.yul\":2907:2937   */\n      swap1\n      pop\n        /* \"#utility.yul\":2946:2979   */\n      tag_200\n        /* \"#utility.yul\":2974:2978   */\n      dup3\n        /* \"#utility.yul\":2966:2972   */\n      dup3\n        /* \"#utility.yul\":2946:2979   */\n      tag_120\n      jump\t// in\n    tag_200:\n        /* \"#utility.yul\":2856:2985   */\n      swap2\n      swap1\n      pop\n      jump\t// out\n        /* \"#utility.yul\":2991:3299   */\n    tag_122:\n        /* \"#utility.yul\":3053:3057   */\n      0x00\n        /* \"#utility.yul\":3143:3161   */\n      0xffffffffffffffff\n        /* \"#utility.yul\":3135:3141   */\n      dup3\n        /* \"#utility.yul\":3132:3162   */\n      gt\n        /* \"#utility.yul\":3129:3185   */\n      iszero\n      tag_202\n      jumpi\n        /* \"#utility.yul\":3165:3183   */\n      tag_203\n      tag_119\n      jump\t// in\n    tag_203:\n        /* \"#utility.yul\":3129:3185   */\n    tag_202:\n        /* \"#utility.yul\":3203:3232   */\n      tag_204\n        /* \"#utility.yul\":3225:3231   */\n      dup3\n        /* \"#utility.yul\":3203:3232   */\n      tag_118\n      jump\t// in\n    tag_204:\n        /* \"#utility.yul\":3195:3232   */\n      swap1\n      pop\n        /* \"#utility.yul\":3287:3291   */\n      0x20\n        /* \"#utility.yul\":3281:3285   */\n      dup2\n        /* \"#utility.yul\":3277:3292   */\n      add\n        /* \"#utility.yul\":3269:3292   */\n      swap1\n      pop\n        /* \"#utility.yul\":2991:3299   */\n      swap2\n      swap1\n      pop\n      jump\t// out\n        /* \"#utility.yul\":3305:3453   */\n    tag_123:\n        /* \"#utility.yul\":3403:3409   */\n      dup3\n        /* \"#utility.yul\":3398:3401   */\n      dup2\n        /* \"#utility.yul\":3393:3396   */\n      dup4\n        /* \"#utility.yul\":3380:3410   */\n      calldatacopy\n        /* \"#utility.yul\":3444:3445   */\n      0x00\n        /* \"#utility.yul\":3435:3441   */\n      dup4\n        /* \"#utility.yul\":3430:3433   */\n      dup4\n        /* \"#utility.yul\":3426:3442   */\n      add\n        /* \"#utility.yul\":3419:3446   */\n      mstore\n        /* \"#utility.yul\":3305:3453   */\n      pop\n      pop\n      pop\n      jump\t// out\n        /* \"#utility.yul\":3459:3884   */\n    tag_124:\n        /* \"#utility.yul\":3537:3542   */\n      0x00\n        /* \"#utility.yul\":3562:3628   */\n      tag_207\n        /* \"#utility.yul\":3578:3627   */\n      tag_208\n        /* \"#utility.yul\":3620:3626   */\n      dup5\n        /* \"#utility.yul\":3578:3627   */\n      tag_122\n      jump\t// in\n    tag_208:\n        /* \"#utility.yul\":3562:3628   */\n      tag_121\n      jump\t// in\n    tag_207:\n        /* \"#utility.yul\":3553:3628   */\n      swap1\n      pop\n        /* \"#utility.yul\":3651:3657   */\n      dup3\n        /* \"#utility.yul\":3644:3649   */\n      dup2\n        /* \"#utility.yul\":3637:3658   */\n      mstore\n        /* \"#utility.yul\":3689:3693   */\n      0x20\n        /* \"#utility.yul\":3682:3687   */\n      dup2\n        /* \"#utility.yul\":3678:3694   */\n      add\n        /* \"#utility.yul\":3727:3730   */\n      dup5\n        /* \"#utility.yul\":3718:3724   */\n      dup5\n        /* \"#utility.yul\":3713:3716   */\n      dup5\n        /* \"#utility.yul\":3709:3725   */\n      add\n        /* \"#utility.yul\":3706:3731   */\n      gt\n        /* \"#utility.yul\":3703:3815   */\n      iszero\n      tag_209\n      jumpi\n        /* \"#utility.yul\":3734:3813   */\n      tag_210\n      tag_117\n      jump\t// in\n    tag_210:\n        /* \"#utility.yul\":3703:3815   */\n    tag_209:\n        /* \"#utility.yul\":3824:3878   */\n      tag_211\n        /* \"#utility.yul\":3871:3877   */\n      dup5\n        /* \"#utility.yul\":3866:3869   */\n      dup3\n        /* \"#utility.yul\":3861:3864   */\n      dup6\n        /* \"#utility.yul\":3824:3878   */\n      tag_123\n      jump\t// in\n    tag_211:\n        /* \"#utility.yul\":3543:3884   */\n      pop\n        /* \"#utility.yul\":3459:3884   */\n      swap4\n      swap3\n      pop\n      pop\n      pop\n      jump\t// out\n        /* \"#utility.yul\":3904:4244   */\n    tag_125:\n        /* \"#utility.yul\":3960:3965   */\n      0x00\n        /* \"#utility.yul\":4009:4012   */\n      dup3\n        /* \"#utility.yul\":4002:4006   */\n      0x1f\n        /* \"#utility.yul\":3994:4000   */\n      dup4\n        /* \"#utility.yul\":3990:4007   */\n      add\n        /* \"#utility.yul\":3986:4013   */\n      slt\n        /* \"#utility.yul\":3976:4098   */\n      tag_213\n      jumpi\n        /* \"#utility.yul\":4017:4096   */\n      tag_214\n      tag_116\n      jump\t// in\n    tag_214:\n        /* \"#utility.yul\":3976:4098   */\n    tag_213:\n        /* \"#utility.yul\":4134:4140   */\n      dup2\n        /* \"#utility.yul\":4121:4141   */\n      calldataload\n        /* \"#utility.yul\":4159:4238   */\n      tag_215\n        /* \"#utility.yul\":4234:4237   */\n      dup5\n        /* \"#utility.yul\":4226:4232   */\n      dup3\n        /* \"#utility.yul\":4219:4223   */\n      0x20\n        /* \"#utility.yul\":4211:4217   */\n      dup7\n        /* \"#utility.yul\":4207:4224   */\n      add\n        /* \"#utility.yul\":4159:4238   */\n      tag_124\n      jump\t// in\n    tag_215:\n        /* \"#utility.yul\":4150:4238   */\n      swap2\n      pop\n        /* \"#utility.yul\":3966:4244   */\n      pop\n        /* \"#utility.yul\":3904:4244   */\n      swap3\n      swap2\n      pop\n      pop\n      jump\t// out\n        /* \"#utility.yul\":4250:5375   */\n    tag_20:\n        /* \"#utility.yul\":4356:4362   */\n      0x00\n        /* \"#utility.yul\":4364:4370   */\n      dup1\n        /* \"#utility.yul\":4372:4378   */\n      0x00\n        /* \"#utility.yul\":4380:4386   */\n      dup1\n        /* \"#utility.yul\":4429:4432   */\n      0x80\n        /* \"#utility.yul\":4417:4426   */\n      dup6\n        /* \"#utility.yul\":4408:4415   */\n      dup8\n        /* \"#utility.yul\":4404:4427   */\n      sub\n        /* \"#utility.yul\":4400:4433   */\n      slt\n        /* \"#utility.yul\":4397:4517   */\n      iszero\n      tag_217\n      jumpi\n        /* \"#utility.yul\":4436:4515   */\n      tag_218\n      tag_108\n      jump\t// in\n    tag_218:\n        /* \"#utility.yul\":4397:4517   */\n    tag_217:\n        /* \"#utility.yul\":4556:4557   */\n      0x00\n        /* \"#utility.yul\":4581:4634   */\n      tag_219\n        /* \"#utility.yul\":4626:4633   */\n      dup8\n        /* \"#utility.yul\":4617:4623   */\n      dup3\n        /* \"#utility.yul\":4606:4615   */\n      dup9\n        /* \"#utility.yul\":4602:4624   */\n      add\n        /* \"#utility.yul\":4581:4634   */\n      tag_113\n      jump\t// in\n    tag_219:\n        /* \"#utility.yul\":4571:4634   */\n      swap5\n      pop\n        /* \"#utility.yul\":4527:4644   */\n      pop\n        /* \"#utility.yul\":4683:4685   */\n      0x20\n        /* \"#utility.yul\":4709:4762   */\n      tag_220\n        /* \"#utility.yul\":4754:4761   */\n      dup8\n        /* \"#utility.yul\":4745:4751   */\n      dup3\n        /* \"#utility.yul\":4734:4743   */\n      dup9\n        /* \"#utility.yul\":4730:4752   */\n      add\n        /* \"#utility.yul\":4709:4762   */\n      tag_115\n      jump\t// in\n    tag_220:\n        /* \"#utility.yul\":4699:4762   */\n      swap4\n      pop\n        /* \"#utility.yul\":4654:4772   */\n      pop\n        /* \"#utility.yul\":4839:4841   */\n      0x40\n        /* \"#utility.yul\":4828:4837   */\n      dup6\n        /* \"#utility.yul\":4824:4842   */\n      add\n        /* \"#utility.yul\":4811:4843   */\n      calldataload\n        /* \"#utility.yul\":4870:4888   */\n      0xffffffffffffffff\n        /* \"#utility.yul\":4862:4868   */\n      dup2\n        /* \"#utility.yul\":4859:4889   */\n      gt\n        /* \"#utility.yul\":4856:4973   */\n      iszero\n      tag_221\n      jumpi\n        /* \"#utility.yul\":4892:4971   */\n      tag_222\n      tag_109\n      jump\t// in\n    tag_222:\n        /* \"#utility.yul\":4856:4973   */\n    tag_221:\n        /* \"#utility.yul\":4997:5060   */\n      tag_223\n        /* \"#utility.yul\":5052:5059   */\n      dup8\n        /* \"#utility.yul\":5043:5049   */\n      dup3\n        /* \"#utility.yul\":5032:5041   */\n      dup9\n        /* \"#utility.yul\":5028:5050   */\n      add\n        /* \"#utility.yul\":4997:5060   */\n      tag_125\n      jump\t// in\n    tag_223:\n        /* \"#utility.yul\":4987:5060   */\n      swap3\n      pop\n        /* \"#utility.yul\":4782:5070   */\n      pop\n        /* \"#utility.yul\":5137:5139   */\n      0x60\n        /* \"#utility.yul\":5126:5135   */\n      dup6\n        /* \"#utility.yul\":5122:5140   */\n      add\n        /* \"#utility.yul\":5109:5141   */\n      calldataload\n        /* \"#utility.yul\":5168:5186   */\n      0xffffffffffffffff\n        /* \"#utility.yul\":5160:5166   */\n      dup2\n        /* \"#utility.yul\":5157:5187   */\n      gt\n        /* \"#utility.yul\":5154:5271   */\n      iszero\n      tag_224\n      jumpi\n        /* \"#utility.yul\":5190:5269   */\n      tag_225\n      tag_109\n      jump\t// in\n    tag_225:\n        /* \"#utility.yul\":5154:5271   */\n    tag_224:\n        /* \"#utility.yul\":5295:5358   */\n      tag_226\n        /* \"#utility.yul\":5350:5357   */\n      dup8\n        /* \"#utility.yul\":5341:5347   */\n      dup3\n        /* \"#utility.yul\":5330:5339   */\n      dup9\n        /* \"#utility.yul\":5326:5348   */\n      add\n        /* \"#utility.yul\":5295:5358   */\n      tag_125\n      jump\t// in\n    tag_226:\n        /* \"#utility.yul\":5285:5358   */\n      swap2\n      pop\n        /* \"#utility.yul\":5080:5368   */\n      pop\n        /* \"#utility.yul\":4250:5375   */\n      swap3\n      swap6\n      swap2\n      swap5\n      pop\n      swap3\n      pop\n      jump\t// out\n        /* \"#utility.yul\":5381:5524   */\n    tag_126:\n        /* \"#utility.yul\":5438:5443   */\n      0x00\n        /* \"#utility.yul\":5469:5475   */\n      dup2\n        /* \"#utility.yul\":5463:5476   */\n      mload\n        /* \"#utility.yul\":5454:5476   */\n      swap1\n      pop\n        /* \"#utility.yul\":5485:5518   */\n      tag_228\n        /* \"#utility.yul\":5512:5517   */\n      dup2\n        /* \"#utility.yul\":5485:5518   */\n      tag_112\n      jump\t// in\n    tag_228:\n        /* \"#utility.yul\":5381:5524   */\n      swap3\n      swap2\n      pop\n      pop\n      jump\t// out\n        /* \"#utility.yul\":5530:5881   */\n    tag_30:\n        /* \"#utility.yul\":5600:5606   */\n      0x00\n        /* \"#utility.yul\":5649:5651   */\n      0x20\n        /* \"#utility.yul\":5637:5646   */\n      dup3\n        /* \"#utility.yul\":5628:5635   */\n      dup5\n        /* \"#utility.yul\":5624:5647   */\n      sub\n        /* \"#utility.yul\":5620:5652   */\n      slt\n        /* \"#utility.yul\":5617:5736   */\n      iszero\n      tag_230\n      jumpi\n        /* \"#utility.yul\":5655:5734   */\n      tag_231\n      tag_108\n      jump\t// in\n    tag_231:\n        /* \"#utility.yul\":5617:5736   */\n    tag_230:\n        /* \"#utility.yul\":5775:5776   */\n      0x00\n        /* \"#utility.yul\":5800:5864   */\n      tag_232\n        /* \"#utility.yul\":5856:5863   */\n      dup5\n        /* \"#utility.yul\":5847:5853   */\n      dup3\n        /* \"#utility.yul\":5836:5845   */\n      dup6\n        /* \"#utility.yul\":5832:5854   */\n      add\n        /* \"#utility.yul\":5800:5864   */\n      tag_126\n      jump\t// in\n    tag_232:\n        /* \"#utility.yul\":5790:5864   */\n      swap2\n      pop\n        /* \"#utility.yul\":5746:5874   */\n      pop\n        /* \"#utility.yul\":5530:5881   */\n      swap3\n      swap2\n      pop\n      pop\n      jump\t// out\n        /* \"#utility.yul\":5887:6005   */\n    tag_127:\n        /* \"#utility.yul\":5974:5998   */\n      tag_234\n        /* \"#utility.yul\":5992:5997   */\n      dup2\n        /* \"#utility.yul\":5974:5998   */\n      tag_111\n      jump\t// in\n    tag_234:\n        /* \"#utility.yul\":5969:5972   */\n      dup3\n        /* \"#utility.yul\":5962:5999   */\n      mstore\n        /* \"#utility.yul\":5887:6005   */\n      pop\n      pop\n      jump\t// out\n        /* \"#utility.yul\":6011:6453   */\n    tag_32:\n        /* \"#utility.yul\":6160:6164   */\n      0x00\n        /* \"#utility.yul\":6198:6200   */\n      0x60\n        /* \"#utility.yul\":6187:6196   */\n      dup3\n        /* \"#utility.yul\":6183:6201   */\n      add\n        /* \"#utility.yul\":6175:6201   */\n      swap1\n      pop\n        /* \"#utility.yul\":6211:6282   */\n      tag_236\n        /* \"#utility.yul\":6279:6280   */\n      0x00\n        /* \"#utility.yul\":6268:6277   */\n      dup4\n        /* \"#utility.yul\":6264:6281   */\n      add\n        /* \"#utility.yul\":6255:6261   */\n      dup7\n        /* \"#utility.yul\":6211:6282   */\n      tag_127\n      jump\t// in\n    tag_236:\n        /* \"#utility.yul\":6292:6364   */\n      tag_237\n        /* \"#utility.yul\":6360:6362   */\n      0x20\n        /* \"#utility.yul\":6349:6358   */\n      dup4\n        /* \"#utility.yul\":6345:6363   */\n      add\n        /* \"#utility.yul\":6336:6342   */\n      dup6\n        /* \"#utility.yul\":6292:6364   */\n      tag_127\n      jump\t// in\n    tag_237:\n        /* \"#utility.yul\":6374:6446   */\n      tag_238\n        /* \"#utility.yul\":6442:6444   */\n      0x40\n        /* \"#utility.yul\":6431:6440   */\n      dup4\n        /* \"#utility.yul\":6427:6445   */\n      add\n        /* \"#utility.yul\":6418:6424   */\n      dup5\n        /* \"#utility.yul\":6374:6446   */\n      tag_106\n      jump\t// in\n    tag_238:\n        /* \"#utility.yul\":6011:6453   */\n      swap5\n      swap4\n      pop\n      pop\n      pop\n      pop\n      jump\t// out\n        /* \"#utility.yul\":6459:7123   */\n    tag_39:\n        /* \"#utility.yul\":6664:6668   */\n      0x00\n        /* \"#utility.yul\":6702:6705   */\n      0xa0\n        /* \"#utility.yul\":6691:6700   */\n      dup3\n        /* \"#utility.yul\":6687:6706   */\n      add\n        /* \"#utility.yul\":6679:6706   */\n      swap1\n      pop\n        /* \"#utility.yul\":6716:6787   */\n      tag_240\n        /* \"#utility.yul\":6784:6785   */\n      0x00\n        /* \"#utility.yul\":6773:6782   */\n      dup4\n        /* \"#utility.yul\":6769:6786   */\n      add\n        /* \"#utility.yul\":6760:6766   */\n      dup9\n        /* \"#utility.yul\":6716:6787   */\n      tag_127\n      jump\t// in\n    tag_240:\n        /* \"#utility.yul\":6797:6869   */\n      tag_241\n        /* \"#utility.yul\":6865:6867   */\n      0x20\n        /* \"#utility.yul\":6854:6863   */\n      dup4\n        /* \"#utility.yul\":6850:6868   */\n      add\n        /* \"#utility.yul\":6841:6847   */\n      dup8\n        /* \"#utility.yul\":6797:6869   */\n      tag_106\n      jump\t// in\n    tag_241:\n        /* \"#utility.yul\":6879:6951   */\n      tag_242\n        /* \"#utility.yul\":6947:6949   */\n      0x40\n        /* \"#utility.yul\":6936:6945   */\n      dup4\n        /* \"#utility.yul\":6932:6950   */\n      add\n        /* \"#utility.yul\":6923:6929   */\n      dup7\n        /* \"#utility.yul\":6879:6951   */\n      tag_127\n      jump\t// in\n    tag_242:\n        /* \"#utility.yul\":6961:7033   */\n      tag_243\n        /* \"#utility.yul\":7029:7031   */\n      0x60\n        /* \"#utility.yul\":7018:7027   */\n      dup4\n        /* \"#utility.yul\":7014:7032   */\n      add\n        /* \"#utility.yul\":7005:7011   */\n      dup6\n        /* \"#utility.yul\":6961:7033   */\n      tag_127\n      jump\t// in\n    tag_243:\n        /* \"#utility.yul\":7043:7116   */\n      tag_244\n        /* \"#utility.yul\":7111:7114   */\n      0x80\n        /* \"#utility.yul\":7100:7109   */\n      dup4\n        /* \"#utility.yul\":7096:7115   */\n      add\n        /* \"#utility.yul\":7087:7093   */\n      dup5\n        /* \"#utility.yul\":7043:7116   */\n      tag_106\n      jump\t// in\n    tag_244:\n        /* \"#utility.yul\":6459:7123   */\n      swap7\n      swap6\n      pop\n      pop\n      pop\n      pop\n      pop\n      pop\n      jump\t// out\n        /* \"#utility.yul\":7129:7298   */\n    tag_128:\n        /* \"#utility.yul\":7213:7224   */\n      0x00\n        /* \"#utility.yul\":7247:7253   */\n      dup3\n        /* \"#utility.yul\":7242:7245   */\n      dup3\n        /* \"#utility.yul\":7235:7254   */\n      mstore\n        /* \"#utility.yul\":7287:7291   */\n      0x20\n        /* \"#utility.yul\":7282:7285   */\n      dup3\n        /* \"#utility.yul\":7278:7292   */\n      add\n        /* \"#utility.yul\":7263:7292   */\n      swap1\n      pop\n        /* \"#utility.yul\":7129:7298   */\n      swap3\n      swap2\n      pop\n      pop\n      jump\t// out\n        /* \"#utility.yul\":7304:7528   */\n    tag_129:\n        /* \"#utility.yul\":7444:7478   */\n      0x4e6f7420656e6f75676820657468657220746f20636f76657220746f6b656e20\n        /* \"#utility.yul\":7440:7441   */\n      0x00\n        /* \"#utility.yul\":7432:7438   */\n      dup3\n        /* \"#utility.yul\":7428:7442   */\n      add\n        /* \"#utility.yul\":7421:7479   */\n      mstore\n        /* \"#utility.yul\":7513:7520   */\n      0x7072696365000000000000000000000000000000000000000000000000000000\n        /* \"#utility.yul\":7508:7510   */\n      0x20\n        /* \"#utility.yul\":7500:7506   */\n      dup3\n        /* \"#utility.yul\":7496:7511   */\n      add\n        /* \"#utility.yul\":7489:7521   */\n      mstore\n        /* \"#utility.yul\":7304:7528   */\n      pop\n      jump\t// out\n        /* \"#utility.yul\":7534:7900   */\n    tag_130:\n        /* \"#utility.yul\":7676:7679   */\n      0x00\n        /* \"#utility.yul\":7697:7764   */\n      tag_248\n        /* \"#utility.yul\":7761:7763   */\n      0x25\n        /* \"#utility.yul\":7756:7759   */\n      dup4\n        /* \"#utility.yul\":7697:7764   */\n      tag_128\n      jump\t// in\n    tag_248:\n        /* \"#utility.yul\":7690:7764   */\n      swap2\n      pop\n        /* \"#utility.yul\":7773:7866   */\n      tag_249\n        /* \"#utility.yul\":7862:7865   */\n      dup3\n        /* \"#utility.yul\":7773:7866   */\n      tag_129\n      jump\t// in\n    tag_249:\n        /* \"#utility.yul\":7891:7893   */\n      0x40\n        /* \"#utility.yul\":7886:7889   */\n      dup3\n        /* \"#utility.yul\":7882:7894   */\n      add\n        /* \"#utility.yul\":7875:7894   */\n      swap1\n      pop\n        /* \"#utility.yul\":7534:7900   */\n      swap2\n      swap1\n      pop\n      jump\t// out\n        /* \"#utility.yul\":7906:8325   */\n    tag_47:\n        /* \"#utility.yul\":8072:8076   */\n      0x00\n        /* \"#utility.yul\":8110:8112   */\n      0x20\n        /* \"#utility.yul\":8099:8108   */\n      dup3\n        /* \"#utility.yul\":8095:8113   */\n      add\n        /* \"#utility.yul\":8087:8113   */\n      swap1\n      pop\n        /* \"#utility.yul\":8159:8168   */\n      dup2\n        /* \"#utility.yul\":8153:8157   */\n      dup2\n        /* \"#utility.yul\":8149:8169   */\n      sub\n        /* \"#utility.yul\":8145:8146   */\n      0x00\n        /* \"#utility.yul\":8134:8143   */\n      dup4\n        /* \"#utility.yul\":8130:8147   */\n      add\n        /* \"#utility.yul\":8123:8170   */\n      mstore\n        /* \"#utility.yul\":8187:8318   */\n      tag_251\n        /* \"#utility.yul\":8313:8317   */\n      dup2\n        /* \"#utility.yul\":8187:8318   */\n      tag_130\n      jump\t// in\n    tag_251:\n        /* \"#utility.yul\":8179:8318   */\n      swap1\n      pop\n        /* \"#utility.yul\":7906:8325   */\n      swap2\n      swap1\n      pop\n      jump\t// out\n        /* \"#utility.yul\":8331:8421   */\n    tag_131:\n        /* \"#utility.yul\":8365:8372   */\n      0x00\n        /* \"#utility.yul\":8408:8413   */\n      dup2\n        /* \"#utility.yul\":8401:8414   */\n      iszero\n        /* \"#utility.yul\":8394:8415   */\n      iszero\n        /* \"#utility.yul\":8383:8415   */\n      swap1\n      pop\n        /* \"#utility.yul\":8331:8421   */\n      swap2\n      swap1\n      pop\n      jump\t// out\n        /* \"#utility.yul\":8427:8536   */\n    tag_132:\n        /* \"#utility.yul\":8508:8529   */\n      tag_254\n        /* \"#utility.yul\":8523:8528   */\n      dup2\n        /* \"#utility.yul\":8508:8529   */\n      tag_131\n      jump\t// in\n    tag_254:\n        /* \"#utility.yul\":8503:8506   */\n      dup3\n        /* \"#utility.yul\":8496:8530   */\n      mstore\n        /* \"#utility.yul\":8427:8536   */\n      pop\n      pop\n      jump\t// out\n        /* \"#utility.yul\":8542:8862   */\n    tag_55:\n        /* \"#utility.yul\":8657:8661   */\n      0x00\n        /* \"#utility.yul\":8695:8697   */\n      0x40\n        /* \"#utility.yul\":8684:8693   */\n      dup3\n        /* \"#utility.yul\":8680:8698   */\n      add\n        /* \"#utility.yul\":8672:8698   */\n      swap1\n      pop\n        /* \"#utility.yul\":8708:8779   */\n      tag_256\n        /* \"#utility.yul\":8776:8777   */\n      0x00\n        /* \"#utility.yul\":8765:8774   */\n      dup4\n        /* \"#utility.yul\":8761:8778   */\n      add\n        /* \"#utility.yul\":8752:8758   */\n      dup6\n        /* \"#utility.yul\":8708:8779   */\n      tag_127\n      jump\t// in\n    tag_256:\n        /* \"#utility.yul\":8789:8855   */\n      tag_257\n        /* \"#utility.yul\":8851:8853   */\n      0x20\n        /* \"#utility.yul\":8840:8849   */\n      dup4\n        /* \"#utility.yul\":8836:8854   */\n      add\n        /* \"#utility.yul\":8827:8833   */\n      dup5\n        /* \"#utility.yul\":8789:8855   */\n      tag_132\n      jump\t// in\n    tag_257:\n        /* \"#utility.yul\":8542:8862   */\n      swap4\n      swap3\n      pop\n      pop\n      pop\n      jump\t// out\n        /* \"#utility.yul\":8868:9200   */\n    tag_60:\n        /* \"#utility.yul\":8989:8993   */\n      0x00\n        /* \"#utility.yul\":9027:9029   */\n      0x40\n        /* \"#utility.yul\":9016:9025   */\n      dup3\n        /* \"#utility.yul\":9012:9030   */\n      add\n        /* \"#utility.yul\":9004:9030   */\n      swap1\n      pop\n        /* \"#utility.yul\":9040:9111   */\n      tag_259\n        /* \"#utility.yul\":9108:9109   */\n      0x00\n        /* \"#utility.yul\":9097:9106   */\n      dup4\n        /* \"#utility.yul\":9093:9110   */\n      add\n        /* \"#utility.yul\":9084:9090   */\n      dup6\n        /* \"#utility.yul\":9040:9111   */\n      tag_127\n      jump\t// in\n    tag_259:\n        /* \"#utility.yul\":9121:9193   */\n      tag_260\n        /* \"#utility.yul\":9189:9191   */\n      0x20\n        /* \"#utility.yul\":9178:9187   */\n      dup4\n        /* \"#utility.yul\":9174:9192   */\n      add\n        /* \"#utility.yul\":9165:9171   */\n      dup5\n        /* \"#utility.yul\":9121:9193   */\n      tag_106\n      jump\t// in\n    tag_260:\n        /* \"#utility.yul\":8868:9200   */\n      swap4\n      swap3\n      pop\n      pop\n      pop\n      jump\t// out\n        /* \"#utility.yul\":9206:9266   */\n    tag_133:\n        /* \"#utility.yul\":9234:9237   */\n      0x00\n        /* \"#utility.yul\":9255:9260   */\n      dup2\n        /* \"#utility.yul\":9248:9260   */\n      swap1\n      pop\n        /* \"#utility.yul\":9206:9266   */\n      swap2\n      swap1\n      pop\n      jump\t// out\n        /* \"#utility.yul\":9272:9414   */\n    tag_134:\n        /* \"#utility.yul\":9322:9331   */\n      0x00\n        /* \"#utility.yul\":9355:9408   */\n      tag_263\n        /* \"#utility.yul\":9373:9407   */\n      tag_264\n        /* \"#utility.yul\":9382:9406   */\n      tag_265\n        /* \"#utility.yul\":9400:9405   */\n      dup5\n        /* \"#utility.yul\":9382:9406   */\n      tag_110\n      jump\t// in\n    tag_265:\n        /* \"#utility.yul\":9373:9407   */\n      tag_133\n      jump\t// in\n    tag_264:\n        /* \"#utility.yul\":9355:9408   */\n      tag_110\n      jump\t// in\n    tag_263:\n        /* \"#utility.yul\":9342:9408   */\n      swap1\n      pop\n        /* \"#utility.yul\":9272:9414   */\n      swap2\n      swap1\n      pop\n      jump\t// out\n        /* \"#utility.yul\":9420:9546   */\n    tag_135:\n        /* \"#utility.yul\":9470:9479   */\n      0x00\n        /* \"#utility.yul\":9503:9540   */\n      tag_267\n        /* \"#utility.yul\":9534:9539   */\n      dup3\n        /* \"#utility.yul\":9503:9540   */\n      tag_134\n      jump\t// in\n    tag_267:\n        /* \"#utility.yul\":9490:9540   */\n      swap1\n      pop\n        /* \"#utility.yul\":9420:9546   */\n      swap2\n      swap1\n      pop\n      jump\t// out\n        /* \"#utility.yul\":9552:9686   */\n    tag_136:\n        /* \"#utility.yul\":9610:9619   */\n      0x00\n        /* \"#utility.yul\":9643:9680   */\n      tag_269\n        /* \"#utility.yul\":9674:9679   */\n      dup3\n        /* \"#utility.yul\":9643:9680   */\n      tag_135\n      jump\t// in\n    tag_269:\n        /* \"#utility.yul\":9630:9680   */\n      swap1\n      pop\n        /* \"#utility.yul\":9552:9686   */\n      swap2\n      swap1\n      pop\n      jump\t// out\n        /* \"#utility.yul\":9692:9839   */\n    tag_137:\n        /* \"#utility.yul\":9787:9832   */\n      tag_271\n        /* \"#utility.yul\":9826:9831   */\n      dup2\n        /* \"#utility.yul\":9787:9832   */\n      tag_136\n      jump\t// in\n    tag_271:\n        /* \"#utility.yul\":9782:9785   */\n      dup3\n        /* \"#utility.yul\":9775:9833   */\n      mstore\n        /* \"#utility.yul\":9692:9839   */\n      pop\n      pop\n      jump\t// out\n        /* \"#utility.yul\":9845:10525   */\n    tag_73:\n        /* \"#utility.yul\":10058:10062   */\n      0x00\n        /* \"#utility.yul\":10096:10099   */\n      0xa0\n        /* \"#utility.yul\":10085:10094   */\n      dup3\n        /* \"#utility.yul\":10081:10100   */\n      add\n        /* \"#utility.yul\":10073:10100   */\n      swap1\n      pop\n        /* \"#utility.yul\":10110:10181   */\n      tag_273\n        /* \"#utility.yul\":10178:10179   */\n      0x00\n        /* \"#utility.yul\":10167:10176   */\n      dup4\n        /* \"#utility.yul\":10163:10180   */\n      add\n        /* \"#utility.yul\":10154:10160   */\n      dup9\n        /* \"#utility.yul\":10110:10181   */\n      tag_127\n      jump\t// in\n    tag_273:\n        /* \"#utility.yul\":10191:10263   */\n      tag_274\n        /* \"#utility.yul\":10259:10261   */\n      0x20\n        /* \"#utility.yul\":10248:10257   */\n      dup4\n        /* \"#utility.yul\":10244:10262   */\n      add\n        /* \"#utility.yul\":10235:10241   */\n      dup8\n        /* \"#utility.yul\":10191:10263   */\n      tag_106\n      jump\t// in\n    tag_274:\n        /* \"#utility.yul\":10273:10353   */\n      tag_275\n        /* \"#utility.yul\":10349:10351   */\n      0x40\n        /* \"#utility.yul\":10338:10347   */\n      dup4\n        /* \"#utility.yul\":10334:10352   */\n      add\n        /* \"#utility.yul\":10325:10331   */\n      dup7\n        /* \"#utility.yul\":10273:10353   */\n      tag_137\n      jump\t// in\n    tag_275:\n        /* \"#utility.yul\":10363:10435   */\n      tag_276\n        /* \"#utility.yul\":10431:10433   */\n      0x60\n        /* \"#utility.yul\":10420:10429   */\n      dup4\n        /* \"#utility.yul\":10416:10434   */\n      add\n        /* \"#utility.yul\":10407:10413   */\n      dup6\n        /* \"#utility.yul\":10363:10435   */\n      tag_127\n      jump\t// in\n    tag_276:\n        /* \"#utility.yul\":10445:10518   */\n      tag_277\n        /* \"#utility.yul\":10513:10516   */\n      0x80\n        /* \"#utility.yul\":10502:10511   */\n      dup4\n        /* \"#utility.yul\":10498:10517   */\n      add\n        /* \"#utility.yul\":10489:10495   */\n      dup5\n        /* \"#utility.yul\":10445:10518   */\n      tag_106\n      jump\t// in\n    tag_277:\n        /* \"#utility.yul\":9845:10525   */\n      swap7\n      swap6\n      pop\n      pop\n      pop\n      pop\n      pop\n      pop\n      jump\t// out\n        /* \"#utility.yul\":10531:10753   */\n    tag_138:\n        /* \"#utility.yul\":10671:10705   */\n      0x5072696365206d757374206265206174206c6561737420302e30303031206574\n        /* \"#utility.yul\":10667:10668   */\n      0x00\n        /* \"#utility.yul\":10659:10665   */\n      dup3\n        /* \"#utility.yul\":10655:10669   */\n      add\n        /* \"#utility.yul\":10648:10706   */\n      mstore\n        /* \"#utility.yul\":10740:10745   */\n      0x6865720000000000000000000000000000000000000000000000000000000000\n        /* \"#utility.yul\":10735:10737   */\n      0x20\n        /* \"#utility.yul\":10727:10733   */\n      dup3\n        /* \"#utility.yul\":10723:10738   */\n      add\n        /* \"#utility.yul\":10716:10746   */\n      mstore\n        /* \"#utility.yul\":10531:10753   */\n      pop\n      jump\t// out\n        /* \"#utility.yul\":10759:11125   */\n    tag_139:\n        /* \"#utility.yul\":10901:10904   */\n      0x00\n        /* \"#utility.yul\":10922:10989   */\n      tag_280\n        /* \"#utility.yul\":10986:10988   */\n      0x23\n        /* \"#utility.yul\":10981:10984   */\n      dup4\n        /* \"#utility.yul\":10922:10989   */\n      tag_128\n      jump\t// in\n    tag_280:\n        /* \"#utility.yul\":10915:10989   */\n      swap2\n      pop\n        /* \"#utility.yul\":10998:11091   */\n      tag_281\n        /* \"#utility.yul\":11087:11090   */\n      dup3\n        /* \"#utility.yul\":10998:11091   */\n      tag_138\n      jump\t// in\n    tag_281:\n        /* \"#utility.yul\":11116:11118   */\n      0x40\n        /* \"#utility.yul\":11111:11114   */\n      dup3\n        /* \"#utility.yul\":11107:11119   */\n      add\n        /* \"#utility.yul\":11100:11119   */\n      swap1\n      pop\n        /* \"#utility.yul\":10759:11125   */\n      swap2\n      swap1\n      pop\n      jump\t// out\n        /* \"#utility.yul\":11131:11550   */\n    tag_80:\n        /* \"#utility.yul\":11297:11301   */\n      0x00\n        /* \"#utility.yul\":11335:11337   */\n      0x20\n        /* \"#utility.yul\":11324:11333   */\n      dup3\n        /* \"#utility.yul\":11320:11338   */\n      add\n        /* \"#utility.yul\":11312:11338   */\n      swap1\n      pop\n        /* \"#utility.yul\":11384:11393   */\n      dup2\n        /* \"#utility.yul\":11378:11382   */\n      dup2\n        /* \"#utility.yul\":11374:11394   */\n      sub\n        /* \"#utility.yul\":11370:11371   */\n      0x00\n        /* \"#utility.yul\":11359:11368   */\n      dup4\n        /* \"#utility.yul\":11355:11372   */\n      add\n        /* \"#utility.yul\":11348:11395   */\n      mstore\n        /* \"#utility.yul\":11412:11543   */\n      tag_283\n        /* \"#utility.yul\":11538:11542   */\n      dup2\n        /* \"#utility.yul\":11412:11543   */\n      tag_139\n      jump\t// in\n    tag_283:\n        /* \"#utility.yul\":11404:11543   */\n      swap1\n      pop\n        /* \"#utility.yul\":11131:11550   */\n      swap2\n      swap1\n      pop\n      jump\t// out\n        /* \"#utility.yul\":11556:11738   */\n    tag_140:\n        /* \"#utility.yul\":11696:11730   */\n      0x4e6f7420656e6f75676820657468657220666f72206c697374696e6720666565\n        /* \"#utility.yul\":11692:11693   */\n      0x00\n        /* \"#utility.yul\":11684:11690   */\n      dup3\n        /* \"#utility.yul\":11680:11694   */\n      add\n        /* \"#utility.yul\":11673:11731   */\n      mstore\n        /* \"#utility.yul\":11556:11738   */\n      pop\n      jump\t// out\n        /* \"#utility.yul\":11744:12110   */\n    tag_141:\n        /* \"#utility.yul\":11886:11889   */\n      0x00\n        /* \"#utility.yul\":11907:11974   */\n      tag_286\n        /* \"#utility.yul\":11971:11973   */\n      0x20\n        /* \"#utility.yul\":11966:11969   */\n      dup4\n        /* \"#utility.yul\":11907:11974   */\n      tag_128\n      jump\t// in\n    tag_286:\n        /* \"#utility.yul\":11900:11974   */\n      swap2\n      pop\n        /* \"#utility.yul\":11983:12076   */\n      tag_287\n        /* \"#utility.yul\":12072:12075   */\n      dup3\n        /* \"#utility.yul\":11983:12076   */\n      tag_140\n      jump\t// in\n    tag_287:\n        /* \"#utility.yul\":12101:12103   */\n      0x20\n        /* \"#utility.yul\":12096:12099   */\n      dup3\n        /* \"#utility.yul\":12092:12104   */\n      add\n        /* \"#utility.yul\":12085:12104   */\n      swap1\n      pop\n        /* \"#utility.yul\":11744:12110   */\n      swap2\n      swap1\n      pop\n      jump\t// out\n        /* \"#utility.yul\":12116:12535   */\n    tag_83:\n        /* \"#utility.yul\":12282:12286   */\n      0x00\n        /* \"#utility.yul\":12320:12322   */\n      0x20\n        /* \"#utility.yul\":12309:12318   */\n      dup3\n        /* \"#utility.yul\":12305:12323   */\n      add\n        /* \"#utility.yul\":12297:12323   */\n      swap1\n      pop\n        /* \"#utility.yul\":12369:12378   */\n      dup2\n        /* \"#utility.yul\":12363:12367   */\n      dup2\n        /* \"#utility.yul\":12359:12379   */\n      sub\n        /* \"#utility.yul\":12355:12356   */\n      0x00\n        /* \"#utility.yul\":12344:12353   */\n      dup4\n        /* \"#utility.yul\":12340:12357   */\n      add\n        /* \"#utility.yul\":12333:12380   */\n      mstore\n        /* \"#utility.yul\":12397:12528   */\n      tag_289\n        /* \"#utility.yul\":12523:12527   */\n      dup2\n        /* \"#utility.yul\":12397:12528   */\n      tag_141\n      jump\t// in\n    tag_289:\n        /* \"#utility.yul\":12389:12528   */\n      swap1\n      pop\n        /* \"#utility.yul\":12116:12535   */\n      swap2\n      swap1\n      pop\n      jump\t// out\n        /* \"#utility.yul\":12541:12640   */\n    tag_142:\n        /* \"#utility.yul\":12593:12599   */\n      0x00\n        /* \"#utility.yul\":12627:12632   */\n      dup2\n        /* \"#utility.yul\":12621:12633   */\n      mload\n        /* \"#utility.yul\":12611:12633   */\n      swap1\n      pop\n        /* \"#utility.yul\":12541:12640   */\n      swap2\n      swap1\n      pop\n      jump\t// out\n        /* \"#utility.yul\":12646:12826   */\n    tag_143:\n        /* \"#utility.yul\":12694:12771   */\n      0x4e487b7100000000000000000000000000000000000000000000000000000000\n        /* \"#utility.yul\":12691:12692   */\n      0x00\n        /* \"#utility.yul\":12684:12772   */\n      mstore\n        /* \"#utility.yul\":12791:12795   */\n      0x22\n        /* \"#utility.yul\":12788:12789   */\n      0x04\n        /* \"#utility.yul\":12781:12796   */\n      mstore\n        /* \"#utility.yul\":12815:12819   */\n      0x24\n        /* \"#utility.yul\":12812:12813   */\n      0x00\n        /* \"#utility.yul\":12805:12820   */\n      revert\n        /* \"#utility.yul\":12832:13152   */\n    tag_144:\n        /* \"#utility.yul\":12876:12882   */\n      0x00\n        /* \"#utility.yul\":12913:12914   */\n      0x02\n        /* \"#utility.yul\":12907:12911   */\n      dup3\n        /* \"#utility.yul\":12903:12915   */\n      div\n        /* \"#utility.yul\":12893:12915   */\n      swap1\n      pop\n        /* \"#utility.yul\":12960:12961   */\n      0x01\n        /* \"#utility.yul\":12954:12958   */\n      dup3\n        /* \"#utility.yul\":12950:12962   */\n      and\n        /* \"#utility.yul\":12981:12999   */\n      dup1\n        /* \"#utility.yul\":12971:13052   */\n      tag_293\n      jumpi\n        /* \"#utility.yul\":13037:13041   */\n      0x7f\n        /* \"#utility.yul\":13029:13035   */\n      dup3\n        /* \"#utility.yul\":13025:13042   */\n      and\n        /* \"#utility.yul\":13015:13042   */\n      swap2\n      pop\n        /* \"#utility.yul\":12971:13052   */\n    tag_293:\n        /* \"#utility.yul\":13099:13101   */\n      0x20\n        /* \"#utility.yul\":13091:13097   */\n      dup3\n        /* \"#utility.yul\":13088:13102   */\n      lt\n        /* \"#utility.yul\":13068:13086   */\n      dup2\n        /* \"#utility.yul\":13065:13103   */\n      sub\n        /* \"#utility.yul\":13062:13146   */\n      tag_294\n      jumpi\n        /* \"#utility.yul\":13118:13136   */\n      tag_295\n      tag_143\n      jump\t// in\n    tag_295:\n        /* \"#utility.yul\":13062:13146   */\n    tag_294:\n        /* \"#utility.yul\":12883:13152   */\n      pop\n        /* \"#utility.yul\":12832:13152   */\n      swap2\n      swap1\n      pop\n      jump\t// out\n        /* \"#utility.yul\":13158:13299   */\n    tag_145:\n        /* \"#utility.yul\":13207:13211   */\n      0x00\n        /* \"#utility.yul\":13230:13233   */\n      dup2\n        /* \"#utility.yul\":13222:13233   */\n      swap1\n      pop\n        /* \"#utility.yul\":13253:13256   */\n      dup2\n        /* \"#utility.yul\":13250:13251   */\n      0x00\n        /* \"#utility.yul\":13243:13257   */\n      mstore\n        /* \"#utility.yul\":13287:13291   */\n      0x20\n        /* \"#utility.yul\":13284:13285   */\n      0x00\n        /* \"#utility.yul\":13274:13292   */\n      keccak256\n        /* \"#utility.yul\":13266:13292   */\n      swap1\n      pop\n        /* \"#utility.yul\":13158:13299   */\n      swap2\n      swap1\n      pop\n      jump\t// out\n        /* \"#utility.yul\":13305:13398   */\n    tag_146:\n        /* \"#utility.yul\":13342:13348   */\n      0x00\n        /* \"#utility.yul\":13389:13391   */\n      0x20\n        /* \"#utility.yul\":13384:13386   */\n      0x1f\n        /* \"#utility.yul\":13377:13382   */\n      dup4\n        /* \"#utility.yul\":13373:13387   */\n      add\n        /* \"#utility.yul\":13369:13392   */\n      div\n        /* \"#utility.yul\":13359:13392   */\n      swap1\n      pop\n        /* \"#utility.yul\":13305:13398   */\n      swap2\n      swap1\n      pop\n      jump\t// out\n        /* \"#utility.yul\":13404:13511   */\n    tag_147:\n        /* \"#utility.yul\":13448:13456   */\n      0x00\n        /* \"#utility.yul\":13498:13503   */\n      dup3\n        /* \"#utility.yul\":13492:13496   */\n      dup3\n        /* \"#utility.yul\":13488:13504   */\n      shl\n        /* \"#utility.yul\":13467:13504   */\n      swap1\n      pop\n        /* \"#utility.yul\":13404:13511   */\n      swap3\n      swap2\n      pop\n      pop\n      jump\t// out\n        /* \"#utility.yul\":13517:13910   */\n    tag_148:\n        /* \"#utility.yul\":13586:13592   */\n      0x00\n        /* \"#utility.yul\":13636:13637   */\n      0x08\n        /* \"#utility.yul\":13624:13634   */\n      dup4\n        /* \"#utility.yul\":13620:13638   */\n      mul\n        /* \"#utility.yul\":13659:13756   */\n      tag_300\n        /* \"#utility.yul\":13689:13755   */\n      0xffffffffffffffffffffffffffffffffffffffffffffffffffffffffffffffff\n        /* \"#utility.yul\":13678:13687   */\n      dup3\n        /* \"#utility.yul\":13659:13756   */\n      tag_147\n      jump\t// in\n    tag_300:\n        /* \"#utility.yul\":13777:13816   */\n      tag_301\n        /* \"#utility.yul\":13807:13815   */\n      dup7\n        /* \"#utility.yul\":13796:13805   */\n      dup4\n        /* \"#utility.yul\":13777:13816   */\n      tag_147\n      jump\t// in\n    tag_301:\n        /* \"#utility.yul\":13765:13816   */\n      swap6\n      pop\n        /* \"#utility.yul\":13849:13853   */\n      dup1\n        /* \"#utility.yul\":13845:13854   */\n      not\n        /* \"#utility.yul\":13838:13843   */\n      dup5\n        /* \"#utility.yul\":13834:13855   */\n      and\n        /* \"#utility.yul\":13825:13855   */\n      swap4\n      pop\n        /* \"#utility.yul\":13898:13902   */\n      dup1\n        /* \"#utility.yul\":13888:13896   */\n      dup7\n        /* \"#utility.yul\":13884:13903   */\n      and\n        /* \"#utility.yul\":13877:13882   */\n      dup5\n        /* \"#utility.yul\":13874:13904   */\n      or\n        /* \"#utility.yul\":13864:13904   */\n      swap3\n      pop\n        /* \"#utility.yul\":13593:13910   */\n      pop\n      pop\n        /* \"#utility.yul\":13517:13910   */\n      swap4\n      swap3\n      pop\n      pop\n      pop\n      jump\t// out\n        /* \"#utility.yul\":13916:14058   */\n    tag_149:\n        /* \"#utility.yul\":13966:13975   */\n      0x00\n        /* \"#utility.yul\":13999:14052   */\n      tag_303\n        /* \"#utility.yul\":14017:14051   */\n      tag_304\n        /* \"#utility.yul\":14026:14050   */\n      tag_305\n        /* \"#utility.yul\":14044:14049   */\n      dup5\n        /* \"#utility.yul\":14026:14050   */\n      tag_105\n      jump\t// in\n    tag_305:\n        /* \"#utility.yul\":14017:14051   */\n      tag_133\n      jump\t// in\n    tag_304:\n        /* \"#utility.yul\":13999:14052   */\n      tag_105\n      jump\t// in\n    tag_303:\n        /* \"#utility.yul\":13986:14052   */\n      swap1\n      pop\n        /* \"#utility.yul\":13916:14058   */\n      swap2\n      swap1\n      pop\n      jump\t// out\n        /* \"#utility.yul\":14064:14139   */\n    tag_150:\n        /* \"#utility.yul\":14107:14110   */\n      0x00\n        /* \"#utility.yul\":14128:14133   */\n      dup2\n        /* \"#utility.yul\":14121:14133   */\n      swap1\n      pop\n        /* \"#utility.yul\":14064:14139   */\n      swap2\n      swap1\n      pop\n      jump\t// out\n        /* \"#utility.yul\":14145:14414   */\n    tag_151:\n        /* \"#utility.yul\":14255:14294   */\n      tag_308\n        /* \"#utility.yul\":14286:14293   */\n      dup4\n        /* \"#utility.yul\":14255:14294   */\n      tag_149\n      jump\t// in\n    tag_308:\n        /* \"#utility.yul\":14316:14407   */\n      tag_309\n        /* \"#utility.yul\":14365:14406   */\n      tag_310\n        /* \"#utility.yul\":14389:14405   */\n      dup3\n        /* \"#utility.yul\":14365:14406   */\n      tag_150\n      jump\t// in\n    tag_310:\n        /* \"#utility.yul\":14357:14363   */\n      dup5\n        /* \"#utility.yul\":14350:14354   */\n      dup5\n        /* \"#utility.yul\":14344:14355   */\n      sload\n        /* \"#utility.yul\":14316:14407   */\n      tag_148\n      jump\t// in\n    tag_309:\n        /* \"#utility.yul\":14310:14314   */\n      dup3\n        /* \"#utility.yul\":14303:14408   */\n      sstore\n        /* \"#utility.yul\":14221:14414   */\n      pop\n        /* \"#utility.yul\":14145:14414   */\n      pop\n      pop\n      pop\n      jump\t// out\n        /* \"#utility.yul\":14420:14493   */\n    tag_152:\n        /* \"#utility.yul\":14465:14468   */\n      0x00\n        /* \"#utility.yul\":14420:14493   */\n      swap1\n      jump\t// out\n        /* \"#utility.yul\":14499:14688   */\n    tag_153:\n        /* \"#utility.yul\":14576:14608   */\n      tag_313\n      tag_152\n      jump\t// in\n    tag_313:\n        /* \"#utility.yul\":14617:14682   */\n      tag_314\n        /* \"#utility.yul\":14675:14681   */\n      dup2\n        /* \"#utility.yul\":14667:14673   */\n      dup5\n        /* \"#utility.yul\":14661:14665   */\n      dup5\n        /* \"#utility.yul\":14617:14682   */\n      tag_151\n      jump\t// in\n    tag_314:\n        /* \"#utility.yul\":14552:14688   */\n      pop\n        /* \"#utility.yul\":14499:14688   */\n      pop\n      pop\n      jump\t// out\n        /* \"#utility.yul\":14694:14880   */\n    tag_154:\n        /* \"#utility.yul\":14754:14874   */\n    tag_316:\n        /* \"#utility.yul\":14771:14774   */\n      dup2\n        /* \"#utility.yul\":14764:14769   */\n      dup2\n        /* \"#utility.yul\":14761:14775   */\n      lt\n        /* \"#utility.yul\":14754:14874   */\n      iszero\n      tag_318\n      jumpi\n        /* \"#utility.yul\":14825:14864   */\n      tag_319\n        /* \"#utility.yul\":14862:14863   */\n      0x00\n        /* \"#utility.yul\":14855:14860   */\n      dup3\n        /* \"#utility.yul\":14825:14864   */\n      tag_153\n      jump\t// in\n    tag_319:\n        /* \"#utility.yul\":14798:14799   */\n      0x01\n        /* \"#utility.yul\":14791:14796   */\n      dup2\n        /* \"#utility.yul\":14787:14800   */\n      add\n        /* \"#utility.yul\":14778:14800   */\n      swap1\n      pop\n        /* \"#utility.yul\":14754:14874   */\n      jump(tag_316)\n    tag_318:\n        /* \"#utility.yul\":14694:14880   */\n      pop\n      pop\n      jump\t// out\n        /* \"#utility.yul\":14886:15429   */\n    tag_155:\n        /* \"#utility.yul\":14987:14989   */\n      0x1f\n        /* \"#utility.yul\":14982:14985   */\n      dup3\n        /* \"#utility.yul\":14979:14990   */\n      gt\n        /* \"#utility.yul\":14976:15422   */\n      iszero\n      tag_321\n      jumpi\n        /* \"#utility.yul\":15021:15059   */\n      tag_322\n        /* \"#utility.yul\":15053:15058   */\n      dup2\n        /* \"#utility.yul\":15021:15059   */\n      tag_145\n      jump\t// in\n    tag_322:\n        /* \"#utility.yul\":15105:15134   */\n      tag_323\n        /* \"#utility.yul\":15123:15133   */\n      dup5\n        /* \"#utility.yul\":15105:15134   */\n      tag_146\n      jump\t// in\n    tag_323:\n        /* \"#utility.yul\":15095:15103   */\n      dup2\n        /* \"#utility.yul\":15091:15135   */\n      add\n        /* \"#utility.yul\":15288:15290   */\n      0x20\n        /* \"#utility.yul\":15276:15286   */\n      dup6\n        /* \"#utility.yul\":15273:15291   */\n      lt\n        /* \"#utility.yul\":15270:15319   */\n      iszero\n      tag_324\n      jumpi\n        /* \"#utility.yul\":15309:15317   */\n      dup2\n        /* \"#utility.yul\":15294:15317   */\n      swap1\n      pop\n        /* \"#utility.yul\":15270:15319   */\n    tag_324:\n        /* \"#utility.yul\":15332:15412   */\n      tag_325\n        /* \"#utility.yul\":15388:15410   */\n      tag_326\n        /* \"#utility.yul\":15406:15409   */\n      dup6\n        /* \"#utility.yul\":15388:15410   */\n      tag_146\n      jump\t// in\n    tag_326:\n        /* \"#utility.yul\":15378:15386   */\n      dup4\n        /* \"#utility.yul\":15374:15411   */\n      add\n        /* \"#utility.yul\":15361:15372   */\n      dup3\n        /* \"#utility.yul\":15332:15412   */\n      tag_154\n      jump\t// in\n    tag_325:\n        /* \"#utility.yul\":14991:15422   */\n      pop\n      pop\n        /* \"#utility.yul\":14976:15422   */\n    tag_321:\n        /* \"#utility.yul\":14886:15429   */\n      pop\n      pop\n      pop\n      jump\t// out\n        /* \"#utility.yul\":15435:15552   */\n    tag_156:\n        /* \"#utility.yul\":15489:15497   */\n      0x00\n        /* \"#utility.yul\":15539:15544   */\n      dup3\n        /* \"#utility.yul\":15533:15537   */\n      dup3\n        /* \"#utility.yul\":15529:15545   */\n      shr\n        /* \"#utility.yul\":15508:15545   */\n      swap1\n      pop\n        /* \"#utility.yul\":15435:15552   */\n      swap3\n      swap2\n      pop\n      pop\n      jump\t// out\n        /* \"#utility.yul\":15558:15727   */\n    tag_157:\n        /* \"#utility.yul\":15602:15608   */\n      0x00\n        /* \"#utility.yul\":15635:15686   */\n      tag_329\n        /* \"#utility.yul\":15683:15684   */\n      0x00\n        /* \"#utility.yul\":15679:15685   */\n      not\n        /* \"#utility.yul\":15671:15676   */\n      dup5\n        /* \"#utility.yul\":15668:15669   */\n      0x08\n        /* \"#utility.yul\":15664:15677   */\n      mul\n        /* \"#utility.yul\":15635:15686   */\n      tag_156\n      jump\t// in\n    tag_329:\n        /* \"#utility.yul\":15631:15687   */\n      not\n        /* \"#utility.yul\":15716:15720   */\n      dup1\n        /* \"#utility.yul\":15710:15714   */\n      dup4\n        /* \"#utility.yul\":15706:15721   */\n      and\n        /* \"#utility.yul\":15696:15721   */\n      swap2\n      pop\n        /* \"#utility.yul\":15609:15727   */\n      pop\n        /* \"#utility.yul\":15558:15727   */\n      swap3\n      swap2\n      pop\n      pop\n      jump\t// out\n        /* \"#utility.yul\":15732:16027   */\n    tag_158:\n        /* \"#utility.yul\":15808:15812   */\n      0x00\n        /* \"#utility.yul\":15954:15983   */\n      tag_331\n        /* \"#utility.yul\":15979:15982   */\n      dup4\n        /* \"#utility.yul\":15973:15977   */\n      dup4\n        /* \"#utility.yul\":15954:15983   */\n      tag_157\n      jump\t// in\n    tag_331:\n        /* \"#utility.yul\":15946:15983   */\n      swap2\n      pop\n        /* \"#utility.yul\":16016:16019   */\n      dup3\n        /* \"#utility.yul\":16013:16014   */\n      0x02\n        /* \"#utility.yul\":16009:16020   */\n      mul\n        /* \"#utility.yul\":16003:16007   */\n      dup3\n        /* \"#utility.yul\":16000:16021   */\n      or\n        /* \"#utility.yul\":15992:16021   */\n      swap1\n      pop\n        /* \"#utility.yul\":15732:16027   */\n      swap3\n      swap2\n      pop\n      pop\n      jump\t// out\n        /* \"#utility.yul\":16032:17427   */\n    tag_90:\n        /* \"#utility.yul\":16149:16186   */\n      tag_333\n        /* \"#utility.yul\":16182:16185   */\n      dup3\n        /* \"#utility.yul\":16149:16186   */\n      tag_142\n      jump\t// in\n    tag_333:\n        /* \"#utility.yul\":16251:16269   */\n      0xffffffffffffffff\n        /* \"#utility.yul\":16243:16249   */\n      dup2\n        /* \"#utility.yul\":16240:16270   */\n      gt\n        /* \"#utility.yul\":16237:16293   */\n      iszero\n      tag_334\n      jumpi\n        /* \"#utility.yul\":16273:16291   */\n      tag_335\n      tag_119\n      jump\t// in\n    tag_335:\n        /* \"#utility.yul\":16237:16293   */\n    tag_334:\n        /* \"#utility.yul\":16317:16355   */\n      tag_336\n        /* \"#utility.yul\":16349:16353   */\n      dup3\n        /* \"#utility.yul\":16343:16354   */\n      sload\n        /* \"#utility.yul\":16317:16355   */\n      tag_144\n      jump\t// in\n    tag_336:\n        /* \"#utility.yul\":16402:16469   */\n      tag_337\n        /* \"#utility.yul\":16462:16468   */\n      dup3\n        /* \"#utility.yul\":16454:16460   */\n      dup3\n        /* \"#utility.yul\":16448:16452   */\n      dup6\n        /* \"#utility.yul\":16402:16469   */\n      tag_155\n      jump\t// in\n    tag_337:\n        /* \"#utility.yul\":16496:16497   */\n      0x00\n        /* \"#utility.yul\":16520:16524   */\n      0x20\n        /* \"#utility.yul\":16507:16524   */\n      swap1\n      pop\n        /* \"#utility.yul\":16552:16554   */\n      0x1f\n        /* \"#utility.yul\":16544:16550   */\n      dup4\n        /* \"#utility.yul\":16541:16555   */\n      gt\n        /* \"#utility.yul\":16569:16570   */\n      0x01\n        /* \"#utility.yul\":16564:17182   */\n      dup2\n      eq\n      tag_339\n      jumpi\n        /* \"#utility.yul\":17226:17227   */\n      0x00\n        /* \"#utility.yul\":17243:17249   */\n      dup5\n        /* \"#utility.yul\":17240:17317   */\n      iszero\n      tag_340\n      jumpi\n        /* \"#utility.yul\":17292:17301   */\n      dup3\n        /* \"#utility.yul\":17287:17290   */\n      dup8\n        /* \"#utility.yul\":17283:17302   */\n      add\n        /* \"#utility.yul\":17277:17303   */\n      mload\n        /* \"#utility.yul\":17268:17303   */\n      swap1\n      pop\n        /* \"#utility.yul\":17240:17317   */\n    tag_340:\n        /* \"#utility.yul\":17343:17410   */\n      tag_341\n        /* \"#utility.yul\":17403:17409   */\n      dup6\n        /* \"#utility.yul\":17396:17401   */\n      dup3\n        /* \"#utility.yul\":17343:17410   */\n      tag_158\n      jump\t// in\n    tag_341:\n        /* \"#utility.yul\":17337:17341   */\n      dup7\n        /* \"#utility.yul\":17330:17411   */\n      sstore\n        /* \"#utility.yul\":17199:17421   */\n      pop\n        /* \"#utility.yul\":16534:17421   */\n      jump(tag_338)\n        /* \"#utility.yul\":16564:17182   */\n    tag_339:\n        /* \"#utility.yul\":16616:16620   */\n      0x1f\n        /* \"#utility.yul\":16612:16621   */\n      not\n        /* \"#utility.yul\":16604:16610   */\n      dup5\n        /* \"#utility.yul\":16600:16622   */\n      and\n        /* \"#utility.yul\":16650:16687   */\n      tag_342\n        /* \"#utility.yul\":16682:16686   */\n      dup7\n        /* \"#utility.yul\":16650:16687   */\n      tag_145\n      jump\t// in\n    tag_342:\n        /* \"#utility.yul\":16709:16710   */\n      0x00\n        /* \"#utility.yul\":16723:16931   */\n    tag_343:\n        /* \"#utility.yul\":16737:16744   */\n      dup3\n        /* \"#utility.yul\":16734:16735   */\n      dup2\n        /* \"#utility.yul\":16731:16745   */\n      lt\n        /* \"#utility.yul\":16723:16931   */\n      iszero\n      tag_345\n      jumpi\n        /* \"#utility.yul\":16816:16825   */\n      dup5\n        /* \"#utility.yul\":16811:16814   */\n      dup10\n        /* \"#utility.yul\":16807:16826   */\n      add\n        /* \"#utility.yul\":16801:16827   */\n      mload\n        /* \"#utility.yul\":16793:16799   */\n      dup3\n        /* \"#utility.yul\":16786:16828   */\n      sstore\n        /* \"#utility.yul\":16867:16868   */\n      0x01\n        /* \"#utility.yul\":16859:16865   */\n      dup3\n        /* \"#utility.yul\":16855:16869   */\n      add\n        /* \"#utility.yul\":16845:16869   */\n      swap2\n      pop\n        /* \"#utility.yul\":16914:16916   */\n      0x20\n        /* \"#utility.yul\":16903:16912   */\n      dup6\n        /* \"#utility.yul\":16899:16917   */\n      add\n        /* \"#utility.yul\":16886:16917   */\n      swap5\n      pop\n        /* \"#utility.yul\":16760:16764   */\n      0x20\n        /* \"#utility.yul\":16757:16758   */\n      dup2\n        /* \"#utility.yul\":16753:16765   */\n      add\n        /* \"#utility.yul\":16748:16765   */\n      swap1\n      pop\n        /* \"#utility.yul\":16723:16931   */\n      jump(tag_343)\n    tag_345:\n        /* \"#utility.yul\":16959:16965   */\n      dup7\n        /* \"#utility.yul\":16950:16957   */\n      dup4\n        /* \"#utility.yul\":16947:16966   */\n      lt\n        /* \"#utility.yul\":16944:17123   */\n      iszero\n      tag_346\n      jumpi\n        /* \"#utility.yul\":17017:17026   */\n      dup5\n        /* \"#utility.yul\":17012:17015   */\n      dup10\n        /* \"#utility.yul\":17008:17027   */\n      add\n        /* \"#utility.yul\":17002:17028   */\n      mload\n        /* \"#utility.yul\":17060:17108   */\n      tag_347\n        /* \"#utility.yul\":17102:17106   */\n      0x1f\n        /* \"#utility.yul\":17094:17100   */\n      dup10\n        /* \"#utility.yul\":17090:17107   */\n      and\n        /* \"#utility.yul\":17079:17088   */\n      dup3\n        /* \"#utility.yul\":17060:17108   */\n      tag_157\n      jump\t// in\n    tag_347:\n        /* \"#utility.yul\":17052:17058   */\n      dup4\n        /* \"#utility.yul\":17045:17109   */\n      sstore\n        /* \"#utility.yul\":16967:17123   */\n      pop\n        /* \"#utility.yul\":16944:17123   */\n    tag_346:\n        /* \"#utility.yul\":17169:17170   */\n      0x01\n        /* \"#utility.yul\":17165:17166   */\n      0x02\n        /* \"#utility.yul\":17157:17163   */\n      dup9\n        /* \"#utility.yul\":17153:17167   */\n      mul\n        /* \"#utility.yul\":17149:17171   */\n      add\n        /* \"#utility.yul\":17143:17147   */\n      dup9\n        /* \"#utility.yul\":17136:17172   */\n      sstore\n        /* \"#utility.yul\":16571:17182   */\n      pop\n      pop\n      pop\n        /* \"#utility.yul\":16534:17421   */\n    tag_338:\n      pop\n        /* \"#utility.yul\":16124:17427   */\n      pop\n      pop\n      pop\n        /* \"#utility.yul\":16032:17427   */\n      pop\n      pop\n      jump\t// out\n        /* \"#utility.yul\":17433:18129   */\n    tag_93:\n        /* \"#utility.yul\":17654:17658   */\n      0x00\n        /* \"#utility.yul\":17692:17695   */\n      0xa0\n        /* \"#utility.yul\":17681:17690   */\n      dup3\n        /* \"#utility.yul\":17677:17696   */\n      add\n        /* \"#utility.yul\":17669:17696   */\n      swap1\n      pop\n        /* \"#utility.yul\":17706:17777   */\n      tag_349\n        /* \"#utility.yul\":17774:17775   */\n      0x00\n        /* \"#utility.yul\":17763:17772   */\n      dup4\n        /* \"#utility.yul\":17759:17776   */\n      add\n        /* \"#utility.yul\":17750:17756   */\n      dup9\n        /* \"#utility.yul\":17706:17777   */\n      tag_127\n      jump\t// in\n    tag_349:\n        /* \"#utility.yul\":17787:17859   */\n      tag_350\n        /* \"#utility.yul\":17855:17857   */\n      0x20\n        /* \"#utility.yul\":17844:17853   */\n      dup4\n        /* \"#utility.yul\":17840:17858   */\n      add\n        /* \"#utility.yul\":17831:17837   */\n      dup8\n        /* \"#utility.yul\":17787:17859   */\n      tag_106\n      jump\t// in\n    tag_350:\n        /* \"#utility.yul\":17869:17949   */\n      tag_351\n        /* \"#utility.yul\":17945:17947   */\n      0x40\n        /* \"#utility.yul\":17934:17943   */\n      dup4\n        /* \"#utility.yul\":17930:17948   */\n      add\n        /* \"#utility.yul\":17921:17927   */\n      dup7\n        /* \"#utility.yul\":17869:17949   */\n      tag_137\n      jump\t// in\n    tag_351:\n        /* \"#utility.yul\":17959:18039   */\n      tag_352\n        /* \"#utility.yul\":18035:18037   */\n      0x60\n        /* \"#utility.yul\":18024:18033   */\n      dup4\n        /* \"#utility.yul\":18020:18038   */\n      add\n        /* \"#utility.yul\":18011:18017   */\n      dup6\n        /* \"#utility.yul\":17959:18039   */\n      tag_137\n      jump\t// in\n    tag_352:\n        /* \"#utility.yul\":18049:18122   */\n      tag_353\n        /* \"#utility.yul\":18117:18120   */\n      0x80\n        /* \"#utility.yul\":18106:18115   */\n      dup4\n        /* \"#utility.yul\":18102:18121   */\n      add\n        /* \"#utility.yul\":18093:18099   */\n      dup5\n        /* \"#utility.yul\":18049:18122   */\n      tag_106\n      jump\t// in\n    tag_353:\n        /* \"#utility.yul\":17433:18129   */\n      swap7\n      swap6\n      pop\n      pop\n      pop\n      pop\n      pop\n      pop\n      jump\t// out\n        /* \"#utility.yul\":18135:18316   */\n    tag_159:\n        /* \"#utility.yul\":18275:18308   */\n      0x5265656e7472616e637947756172643a207265656e7472616e742063616c6c00\n        /* \"#utility.yul\":18271:18272   */\n      0x00\n        /* \"#utility.yul\":18263:18269   */\n      dup3\n        /* \"#utility.yul\":18259:18273   */\n      add\n        /* \"#utility.yul\":18252:18309   */\n      mstore\n        /* \"#utility.yul\":18135:18316   */\n      pop\n      jump\t// out\n        /* \"#utility.yul\":18322:18688   */\n    tag_160:\n        /* \"#utility.yul\":18464:18467   */\n      0x00\n        /* \"#utility.yul\":18485:18552   */\n      tag_356\n        /* \"#utility.yul\":18549:18551   */\n      0x1f\n        /* \"#utility.yul\":18544:18547   */\n      dup4\n        /* \"#utility.yul\":18485:18552   */\n      tag_128\n      jump\t// in\n    tag_356:\n        /* \"#utility.yul\":18478:18552   */\n      swap2\n      pop\n        /* \"#utility.yul\":18561:18654   */\n      tag_357\n        /* \"#utility.yul\":18650:18653   */\n      dup3\n        /* \"#utility.yul\":18561:18654   */\n      tag_159\n      jump\t// in\n    tag_357:\n        /* \"#utility.yul\":18679:18681   */\n      0x20\n        /* \"#utility.yul\":18674:18677   */\n      dup3\n        /* \"#utility.yul\":18670:18682   */\n      add\n        /* \"#utility.yul\":18663:18682   */\n      swap1\n      pop\n        /* \"#utility.yul\":18322:18688   */\n      swap2\n      swap1\n      pop\n      jump\t// out\n        /* \"#utility.yul\":18694:19113   */\n    tag_98:\n        /* \"#utility.yul\":18860:18864   */\n      0x00\n        /* \"#utility.yul\":18898:18900   */\n      0x20\n        /* \"#utility.yul\":18887:18896   */\n      dup3\n        /* \"#utility.yul\":18883:18901   */\n      add\n        /* \"#utility.yul\":18875:18901   */\n      swap1\n      pop\n        /* \"#utility.yul\":18947:18956   */\n      dup2\n        /* \"#utility.yul\":18941:18945   */\n      dup2\n        /* \"#utility.yul\":18937:18957   */\n      sub\n        /* \"#utility.yul\":18933:18934   */\n      0x00\n        /* \"#utility.yul\":18922:18931   */\n      dup4\n        /* \"#utility.yul\":18918:18935   */\n      add\n        /* \"#utility.yul\":18911:18958   */\n      mstore\n        /* \"#utility.yul\":18975:19106   */\n      tag_359\n        /* \"#utility.yul\":19101:19105   */\n      dup2\n        /* \"#utility.yul\":18975:19106   */\n      tag_160\n      jump\t// in\n    tag_359:\n        /* \"#utility.yul\":18967:19106   */\n      swap1\n      pop\n        /* \"#utility.yul\":18694:19113   */\n      swap2\n      swap1\n      pop\n      jump\t// out\n        /* \"#utility.yul\":19119:19296   */\n    tag_161:\n        /* \"#utility.yul\":19259:19288   */\n      0x436f756e7465723a2064656372656d656e74206f766572666c6f770000000000\n        /* \"#utility.yul\":19255:19256   */\n      0x00\n        /* \"#utility.yul\":19247:19253   */\n      dup3\n        /* \"#utility.yul\":19243:19257   */\n      add\n        /* \"#utility.yul\":19236:19289   */\n      mstore\n        /* \"#utility.yul\":19119:19296   */\n      pop\n      jump\t// out\n        /* \"#utility.yul\":19302:19668   */\n    tag_162:\n        /* \"#utility.yul\":19444:19447   */\n      0x00\n        /* \"#utility.yul\":19465:19532   */\n      tag_362\n        /* \"#utility.yul\":19529:19531   */\n      0x1b\n        /* \"#utility.yul\":19524:19527   */\n      dup4\n        /* \"#utility.yul\":19465:19532   */\n      tag_128\n      jump\t// in\n    tag_362:\n        /* \"#utility.yul\":19458:19532   */\n      swap2\n      pop\n        /* \"#utility.yul\":19541:19634   */\n      tag_363\n        /* \"#utility.yul\":19630:19633   */\n      dup3\n        /* \"#utility.yul\":19541:19634   */\n      tag_161\n      jump\t// in\n    tag_363:\n        /* \"#utility.yul\":19659:19661   */\n      0x20\n        /* \"#utility.yul\":19654:19657   */\n      dup3\n        /* \"#utility.yul\":19650:19662   */\n      add\n        /* \"#utility.yul\":19643:19662   */\n      swap1\n      pop\n        /* \"#utility.yul\":19302:19668   */\n      swap2\n      swap1\n      pop\n      jump\t// out\n        /* \"#utility.yul\":19674:20093   */\n    tag_102:\n        /* \"#utility.yul\":19840:19844   */\n      0x00\n        /* \"#utility.yul\":19878:19880   */\n      0x20\n        /* \"#utility.yul\":19867:19876   */\n      dup3\n        /* \"#utility.yul\":19863:19881   */\n      add\n        /* \"#utility.yul\":19855:19881   */\n      swap1\n      pop\n        /* \"#utility.yul\":19927:19936   */\n      dup2\n        /* \"#utility.yul\":19921:19925   */\n      dup2\n        /* \"#utility.yul\":19917:19937   */\n      sub\n        /* \"#utility.yul\":19913:19914   */\n      0x00\n        /* \"#utility.yul\":19902:19911   */\n      dup4\n        /* \"#utility.yul\":19898:19915   */\n      add\n        /* \"#utility.yul\":19891:19938   */\n      mstore\n        /* \"#utility.yul\":19955:20086   */\n      tag_365\n        /* \"#utility.yul\":20081:20085   */\n      dup2\n        /* \"#utility.yul\":19955:20086   */\n      tag_162\n      jump\t// in\n    tag_365:\n        /* \"#utility.yul\":19947:20086   */\n      swap1\n      pop\n        /* \"#utility.yul\":19674:20093   */\n      swap2\n      swap1\n      pop\n      jump\t// out\n\n    auxdata: 0xa26469706673582212201905d93f1f34b96b95e8e6e76c6143b8a9772e8e2d9df492bf737055942530b364736f6c63430008190033\n}\n",
				"bytecode": {
					"linkReferences": {},
					"object": "6080604052655af3107a40006003553480156018575f80fd5b5060015f819055503360045f6101000a81548173ffffffffffffffffffffffffffffffffffffffff021916908373ffffffffffffffffffffffffffffffffffffffff1602179055506114df8061006d5f395ff3fe60806040526004361061003e575f3560e01c80632b86ae38146100425780639e1001b01461006c578063a82ba76f14610088578063dbcc7575146100a4575b5f80fd5b34801561004d575f80fd5b506100566100c0565b6040516100639190610a7e565b60405180910390f35b61008660048036038101906100819190610b2c565b6100c6565b005b6100a2600480360381019061009d9190610b2c565b6102c0565b005b6100be60048036038101906100b99190610ca6565b61068f565b005b60035481565b6100ce6109a4565b5f8273ffffffffffffffffffffffffffffffffffffffff16636352211e836040518263ffffffff1660e01b81526004016101089190610a7e565b602060405180830381865afa158015610123573d5f803e3d5ffd5b505050506040513d601f19601f820116820180604052508101906101479190610d56565b90505f60055f8481526020019081526020015f2090508373ffffffffffffffffffffffffffffffffffffffff166323b872dd8330866040518463ffffffff1660e01b815260040161019a93929190610d90565b5f604051808303815f87803b1580156101b1575f80fd5b505af11580156101c3573d5f803e3d5ffd5b5050505033816002015f6101000a81548173ffffffffffffffffffffffffffffffffffffffff021916908373ffffffffffffffffffffffffffffffffffffffff16021790555030816003015f6101000a81548173ffffffffffffffffffffffffffffffffffffffff021916908373ffffffffffffffffffffffffffffffffffffffff1602179055506001816007015f6101000a81548160ff02191690831515021790555061027160016109f1565b7fa0c6c0d02d86fdacecbaa5fdf5894bab204e31a778250474108540733a9b8d19848433306003546040516102aa959493929190610dc5565b60405180910390a150506102bc610a49565b5050565b6102c86109a4565b5f60055f8381526020019081526020015f2090508060060154341015610323576040517f08c379a000000000000000000000000000000000000000000000000000000000815260040161031a90610e96565b60405180910390fd5b5f8373ffffffffffffffffffffffffffffffffffffffff16636352211e846040518263ffffffff1660e01b815260040161035d9190610a7e565b602060405180830381865afa158015610378573d5f803e3d5ffd5b505050506040513d601f19601f8201168201806040525081019061039c9190610d56565b90505f339050826002015f9054906101000a900473ffffffffffffffffffffffffffffffffffffffff1673ffffffffffffffffffffffffffffffffffffffff166108fc3490811502906040515f60405180830381858888f19350505050158015610408573d5f803e3d5ffd5b508473ffffffffffffffffffffffffffffffffffffffff1663a22cb4658260016040518363ffffffff1660e01b8152600401610445929190610ece565b5f604051808303815f87803b15801561045c575f80fd5b505af115801561046e573d5f803e3d5ffd5b505050508473ffffffffffffffffffffffffffffffffffffffff1663095ea7b38285600101546040518363ffffffff1660e01b81526004016104b1929190610ef5565b5f604051808303815f87803b1580156104c8575f80fd5b505af11580156104da573d5f803e3d5ffd5b505050508473ffffffffffffffffffffffffffffffffffffffff166323b872dd838386600101546040518463ffffffff1660e01b815260040161051f93929190610d90565b5f604051808303815f87803b158015610536575f80fd5b505af1158015610548573d5f803e3d5ffd5b5050505060045f9054906101000a900473ffffffffffffffffffffffffffffffffffffffff1673ffffffffffffffffffffffffffffffffffffffff166108fc60035490811502906040515f60405180830381858888f193505050501580156105b2573d5f803e3d5ffd5b5080836003015f6101000a81548173ffffffffffffffffffffffffffffffffffffffff021916908373ffffffffffffffffffffffffffffffffffffffff1602179055505f836007015f6101000a81548160ff02191690831515021790555061061a6001610a52565b7f16f1dbd97e6bf646d429ed186cce832f1f7fd9907814293b83181e9970ab7bd2858460010154856002015f9054906101000a900473ffffffffffffffffffffffffffffffffffffffff168434604051610678959493929190610f77565b60405180910390a150505061068b610a49565b5050565b6106976109a4565b5f34116106d9576040517f08c379a00000000000000000000000000000000000000000000000000000000081526004016106d090611038565b60405180910390fd5b600354341461071d576040517f08c379a0000000000000000000000000000000000000000000000000000000008152600401610714906110a0565b60405180910390fd5b8373ffffffffffffffffffffffffffffffffffffffff166323b872dd3330866040518463ffffffff1660e01b815260040161075a93929190610d90565b5f604051808303815f87803b158015610771575f80fd5b505af1158015610783573d5f803e3d5ffd5b505050506107916002610a52565b6040518061010001604052808573ffffffffffffffffffffffffffffffffffffffff1681526020018481526020013373ffffffffffffffffffffffffffffffffffffffff1681526020013073ffffffffffffffffffffffffffffffffffffffff16815260200182815260200183815260200160035481526020016001151581525060055f8581526020019081526020015f205f820151815f015f6101000a81548173ffffffffffffffffffffffffffffffffffffffff021916908373ffffffffffffffffffffffffffffffffffffffff160217905550602082015181600101556040820151816002015f6101000a81548173ffffffffffffffffffffffffffffffffffffffff021916908373ffffffffffffffffffffffffffffffffffffffff1602179055506060820151816003015f6101000a81548173ffffffffffffffffffffffffffffffffffffffff021916908373ffffffffffffffffffffffffffffffffffffffff160217905550608082015181600401908161091291906112b9565b5060a082015181600501908161092891906112b9565b5060c0820151816006015560e0820151816007015f6101000a81548160ff0219169083151502179055509050507fa0c6c0d02d86fdacecbaa5fdf5894bab204e31a778250474108540733a9b8d198484333060035460405161098e959493929190611388565b60405180910390a161099e610a49565b50505050565b60025f54036109e8576040517f08c379a00000000000000000000000000000000000000000000000000000000081526004016109df90611423565b60405180910390fd5b60025f81905550565b5f815f015490505f8111610a3a576040517f08c379a0000000000000000000000000000000000000000000000000000000008152600401610a319061148b565b60405180910390fd5b60018103825f01819055505050565b60015f81905550565b6001815f015f828254019250508190555050565b5f819050919050565b610a7881610a66565b82525050565b5f602082019050610a915f830184610a6f565b92915050565b5f604051905090565b5f80fd5b5f80fd5b5f73ffffffffffffffffffffffffffffffffffffffff82169050919050565b5f610ad182610aa8565b9050919050565b610ae181610ac7565b8114610aeb575f80fd5b50565b5f81359050610afc81610ad8565b92915050565b610b0b81610a66565b8114610b15575f80fd5b50565b5f81359050610b2681610b02565b92915050565b5f8060408385031215610b4257610b41610aa0565b5b5f610b4f85828601610aee565b9250506020610b6085828601610b18565b9150509250929050565b5f80fd5b5f80fd5b5f601f19601f8301169050919050565b7f4e487b71000000000000000000000000000000000000000000000000000000005f52604160045260245ffd5b610bb882610b72565b810181811067ffffffffffffffff82111715610bd757610bd6610b82565b5b80604052505050565b5f610be9610a97565b9050610bf58282610baf565b919050565b5f67ffffffffffffffff821115610c1457610c13610b82565b5b610c1d82610b72565b9050602081019050919050565b828183375f83830152505050565b5f610c4a610c4584610bfa565b610be0565b905082815260208101848484011115610c6657610c65610b6e565b5b610c71848285610c2a565b509392505050565b5f82601f830112610c8d57610c8c610b6a565b5b8135610c9d848260208601610c38565b91505092915050565b5f805f8060808587031215610cbe57610cbd610aa0565b5b5f610ccb87828801610aee565b9450506020610cdc87828801610b18565b935050604085013567ffffffffffffffff811115610cfd57610cfc610aa4565b5b610d0987828801610c79565b925050606085013567ffffffffffffffff811115610d2a57610d29610aa4565b5b610d3687828801610c79565b91505092959194509250565b5f81519050610d5081610ad8565b92915050565b5f60208284031215610d6b57610d6a610aa0565b5b5f610d7884828501610d42565b91505092915050565b610d8a81610ac7565b82525050565b5f606082019050610da35f830186610d81565b610db06020830185610d81565b610dbd6040830184610a6f565b949350505050565b5f60a082019050610dd85f830188610d81565b610de56020830187610a6f565b610df26040830186610d81565b610dff6060830185610d81565b610e0c6080830184610a6f565b9695505050505050565b5f82825260208201905092915050565b7f4e6f7420656e6f75676820657468657220746f20636f76657220746f6b656e205f8201527f7072696365000000000000000000000000000000000000000000000000000000602082015250565b5f610e80602583610e16565b9150610e8b82610e26565b604082019050919050565b5f6020820190508181035f830152610ead81610e74565b9050919050565b5f8115159050919050565b610ec881610eb4565b82525050565b5f604082019050610ee15f830185610d81565b610eee6020830184610ebf565b9392505050565b5f604082019050610f085f830185610d81565b610f156020830184610a6f565b9392505050565b5f819050919050565b5f610f3f610f3a610f3584610aa8565b610f1c565b610aa8565b9050919050565b5f610f5082610f25565b9050919050565b5f610f6182610f46565b9050919050565b610f7181610f57565b82525050565b5f60a082019050610f8a5f830188610d81565b610f976020830187610a6f565b610fa46040830186610f68565b610fb16060830185610d81565b610fbe6080830184610a6f565b9695505050505050565b7f5072696365206d757374206265206174206c6561737420302e303030312065745f8201527f6865720000000000000000000000000000000000000000000000000000000000602082015250565b5f611022602383610e16565b915061102d82610fc8565b604082019050919050565b5f6020820190508181035f83015261104f81611016565b9050919050565b7f4e6f7420656e6f75676820657468657220666f72206c697374696e67206665655f82015250565b5f61108a602083610e16565b915061109582611056565b602082019050919050565b5f6020820190508181035f8301526110b78161107e565b9050919050565b5f81519050919050565b7f4e487b71000000000000000000000000000000000000000000000000000000005f52602260045260245ffd5b5f600282049050600182168061110c57607f821691505b60208210810361111f5761111e6110c8565b5b50919050565b5f819050815f5260205f209050919050565b5f6020601f8301049050919050565b5f82821b905092915050565b5f600883026111817fffffffffffffffffffffffffffffffffffffffffffffffffffffffffffffffff82611146565b61118b8683611146565b95508019841693508086168417925050509392505050565b5f6111bd6111b86111b384610a66565b610f1c565b610a66565b9050919050565b5f819050919050565b6111d6836111a3565b6111ea6111e2826111c4565b848454611152565b825550505050565b5f90565b6111fe6111f2565b6112098184846111cd565b505050565b5b8181101561122c576112215f826111f6565b60018101905061120f565b5050565b601f8211156112715761124281611125565b61124b84611137565b8101602085101561125a578190505b61126e61126685611137565b83018261120e565b50505b505050565b5f82821c905092915050565b5f6112915f1984600802611276565b1980831691505092915050565b5f6112a98383611282565b9150826002028217905092915050565b6112c2826110be565b67ffffffffffffffff8111156112db576112da610b82565b5b6112e582546110f5565b6112f0828285611230565b5f60209050601f831160018114611321575f841561130f578287015190505b611319858261129e565b865550611380565b601f19841661132f86611125565b5f5b8281101561135657848901518255600182019150602085019450602081019050611331565b86831015611373578489015161136f601f891682611282565b8355505b6001600288020188555050505b505050505050565b5f60a08201905061139b5f830188610d81565b6113a86020830187610a6f565b6113b56040830186610f68565b6113c26060830185610f68565b6113cf6080830184610a6f565b9695505050505050565b7f5265656e7472616e637947756172643a207265656e7472616e742063616c6c005f82015250565b5f61140d601f83610e16565b9150611418826113d9565b602082019050919050565b5f6020820190508181035f83015261143a81611401565b9050919050565b7f436f756e7465723a2064656372656d656e74206f766572666c6f7700000000005f82015250565b5f611475601b83610e16565b915061148082611441565b602082019050919050565b5f6020820190508181035f8301526114a281611469565b905091905056fea26469706673582212201905d93f1f34b96b95e8e6e76c6143b8a9772e8e2d9df492bf737055942530b364736f6c63430008190033",
					"opcodes": "PUSH1 0x80 PUSH1 0x40 MSTORE PUSH6 0x5AF3107A4000 PUSH1 0x3 SSTORE CALLVALUE DUP1 ISZERO PUSH1 0x18 JUMPI PUSH0 DUP1 REVERT JUMPDEST POP PUSH1 0x1 PUSH0 DUP2 SWAP1 SSTORE POP CALLER PUSH1 0x4 PUSH0 PUSH2 0x100 EXP DUP2 SLOAD DUP2 PUSH20 0xFFFFFFFFFFFFFFFFFFFFFFFFFFFFFFFFFFFFFFFF MUL NOT AND SWAP1 DUP4 PUSH20 0xFFFFFFFFFFFFFFFFFFFFFFFFFFFFFFFFFFFFFFFF AND MUL OR SWAP1 SSTORE POP PUSH2 0x14DF DUP1 PUSH2 0x6D PUSH0 CODECOPY PUSH0 RETURN INVALID PUSH1 0x80 PUSH1 0x40 MSTORE PUSH1 0x4 CALLDATASIZE LT PUSH2 0x3E JUMPI PUSH0 CALLDATALOAD PUSH1 0xE0 SHR DUP1 PUSH4 0x2B86AE38 EQ PUSH2 0x42 JUMPI DUP1 PUSH4 0x9E1001B0 EQ PUSH2 0x6C JUMPI DUP1 PUSH4 0xA82BA76F EQ PUSH2 0x88 JUMPI DUP1 PUSH4 0xDBCC7575 EQ PUSH2 0xA4 JUMPI JUMPDEST PUSH0 DUP1 REVERT JUMPDEST CALLVALUE DUP1 ISZERO PUSH2 0x4D JUMPI PUSH0 DUP1 REVERT JUMPDEST POP PUSH2 0x56 PUSH2 0xC0 JUMP JUMPDEST PUSH1 0x40 MLOAD PUSH2 0x63 SWAP2 SWAP1 PUSH2 0xA7E JUMP JUMPDEST PUSH1 0x40 MLOAD DUP1 SWAP2 SUB SWAP1 RETURN JUMPDEST PUSH2 0x86 PUSH1 0x4 DUP1 CALLDATASIZE SUB DUP2 ADD SWAP1 PUSH2 0x81 SWAP2 SWAP1 PUSH2 0xB2C JUMP JUMPDEST PUSH2 0xC6 JUMP JUMPDEST STOP JUMPDEST PUSH2 0xA2 PUSH1 0x4 DUP1 CALLDATASIZE SUB DUP2 ADD SWAP1 PUSH2 0x9D SWAP2 SWAP1 PUSH2 0xB2C JUMP JUMPDEST PUSH2 0x2C0 JUMP JUMPDEST STOP JUMPDEST PUSH2 0xBE PUSH1 0x4 DUP1 CALLDATASIZE SUB DUP2 ADD SWAP1 PUSH2 0xB9 SWAP2 SWAP1 PUSH2 0xCA6 JUMP JUMPDEST PUSH2 0x68F JUMP JUMPDEST STOP JUMPDEST PUSH1 0x3 SLOAD DUP2 JUMP JUMPDEST PUSH2 0xCE PUSH2 0x9A4 JUMP JUMPDEST PUSH0 DUP3 PUSH20 0xFFFFFFFFFFFFFFFFFFFFFFFFFFFFFFFFFFFFFFFF AND PUSH4 0x6352211E DUP4 PUSH1 0x40 MLOAD DUP3 PUSH4 0xFFFFFFFF AND PUSH1 0xE0 SHL DUP2 MSTORE PUSH1 0x4 ADD PUSH2 0x108 SWAP2 SWAP1 PUSH2 0xA7E JUMP JUMPDEST PUSH1 0x20 PUSH1 0x40 MLOAD DUP1 DUP4 SUB DUP2 DUP7 GAS STATICCALL ISZERO DUP1 ISZERO PUSH2 0x123 JUMPI RETURNDATASIZE PUSH0 DUP1 RETURNDATACOPY RETURNDATASIZE PUSH0 REVERT JUMPDEST POP POP POP POP PUSH1 0x40 MLOAD RETURNDATASIZE PUSH1 0x1F NOT PUSH1 0x1F DUP3 ADD AND DUP3 ADD DUP1 PUSH1 0x40 MSTORE POP DUP2 ADD SWAP1 PUSH2 0x147 SWAP2 SWAP1 PUSH2 0xD56 JUMP JUMPDEST SWAP1 POP PUSH0 PUSH1 0x5 PUSH0 DUP5 DUP2 MSTORE PUSH1 0x20 ADD SWAP1 DUP2 MSTORE PUSH1 0x20 ADD PUSH0 KECCAK256 SWAP1 POP DUP4 PUSH20 0xFFFFFFFFFFFFFFFFFFFFFFFFFFFFFFFFFFFFFFFF AND PUSH4 0x23B872DD DUP4 ADDRESS DUP7 PUSH1 0x40 MLOAD DUP5 PUSH4 0xFFFFFFFF AND PUSH1 0xE0 SHL DUP2 MSTORE PUSH1 0x4 ADD PUSH2 0x19A SWAP4 SWAP3 SWAP2 SWAP1 PUSH2 0xD90 JUMP JUMPDEST PUSH0 PUSH1 0x40 MLOAD DUP1 DUP4 SUB DUP2 PUSH0 DUP8 DUP1 EXTCODESIZE ISZERO DUP1 ISZERO PUSH2 0x1B1 JUMPI PUSH0 DUP1 REVERT JUMPDEST POP GAS CALL ISZERO DUP1 ISZERO PUSH2 0x1C3 JUMPI RETURNDATASIZE PUSH0 DUP1 RETURNDATACOPY RETURNDATASIZE PUSH0 REVERT JUMPDEST POP POP POP POP CALLER DUP2 PUSH1 0x2 ADD PUSH0 PUSH2 0x100 EXP DUP2 SLOAD DUP2 PUSH20 0xFFFFFFFFFFFFFFFFFFFFFFFFFFFFFFFFFFFFFFFF MUL NOT AND SWAP1 DUP4 PUSH20 0xFFFFFFFFFFFFFFFFFFFFFFFFFFFFFFFFFFFFFFFF AND MUL OR SWAP1 SSTORE POP ADDRESS DUP2 PUSH1 0x3 ADD PUSH0 PUSH2 0x100 EXP DUP2 SLOAD DUP2 PUSH20 0xFFFFFFFFFFFFFFFFFFFFFFFFFFFFFFFFFFFFFFFF MUL NOT AND SWAP1 DUP4 PUSH20 0xFFFFFFFFFFFFFFFFFFFFFFFFFFFFFFFFFFFFFFFF AND MUL OR SWAP1 SSTORE POP PUSH1 0x1 DUP2 PUSH1 0x7 ADD PUSH0 PUSH2 0x100 EXP DUP2 SLOAD DUP2 PUSH1 0xFF MUL NOT AND SWAP1 DUP4 ISZERO ISZERO MUL OR SWAP1 SSTORE POP PUSH2 0x271 PUSH1 0x1 PUSH2 0x9F1 JUMP JUMPDEST PUSH32 0xA0C6C0D02D86FDACECBAA5FDF5894BAB204E31A778250474108540733A9B8D19 DUP5 DUP5 CALLER ADDRESS PUSH1 0x3 SLOAD PUSH1 0x40 MLOAD PUSH2 0x2AA SWAP6 SWAP5 SWAP4 SWAP3 SWAP2 SWAP1 PUSH2 0xDC5 JUMP JUMPDEST PUSH1 0x40 MLOAD DUP1 SWAP2 SUB SWAP1 LOG1 POP POP PUSH2 0x2BC PUSH2 0xA49 JUMP JUMPDEST POP POP JUMP JUMPDEST PUSH2 0x2C8 PUSH2 0x9A4 JUMP JUMPDEST PUSH0 PUSH1 0x5 PUSH0 DUP4 DUP2 MSTORE PUSH1 0x20 ADD SWAP1 DUP2 MSTORE PUSH1 0x20 ADD PUSH0 KECCAK256 SWAP1 POP DUP1 PUSH1 0x6 ADD SLOAD CALLVALUE LT ISZERO PUSH2 0x323 JUMPI PUSH1 0x40 MLOAD PUSH32 0x8C379A000000000000000000000000000000000000000000000000000000000 DUP2 MSTORE PUSH1 0x4 ADD PUSH2 0x31A SWAP1 PUSH2 0xE96 JUMP JUMPDEST PUSH1 0x40 MLOAD DUP1 SWAP2 SUB SWAP1 REVERT JUMPDEST PUSH0 DUP4 PUSH20 0xFFFFFFFFFFFFFFFFFFFFFFFFFFFFFFFFFFFFFFFF AND PUSH4 0x6352211E DUP5 PUSH1 0x40 MLOAD DUP3 PUSH4 0xFFFFFFFF AND PUSH1 0xE0 SHL DUP2 MSTORE PUSH1 0x4 ADD PUSH2 0x35D SWAP2 SWAP1 PUSH2 0xA7E JUMP JUMPDEST PUSH1 0x20 PUSH1 0x40 MLOAD DUP1 DUP4 SUB DUP2 DUP7 GAS STATICCALL ISZERO DUP1 ISZERO PUSH2 0x378 JUMPI RETURNDATASIZE PUSH0 DUP1 RETURNDATACOPY RETURNDATASIZE PUSH0 REVERT JUMPDEST POP POP POP POP PUSH1 0x40 MLOAD RETURNDATASIZE PUSH1 0x1F NOT PUSH1 0x1F DUP3 ADD AND DUP3 ADD DUP1 PUSH1 0x40 MSTORE POP DUP2 ADD SWAP1 PUSH2 0x39C SWAP2 SWAP1 PUSH2 0xD56 JUMP JUMPDEST SWAP1 POP PUSH0 CALLER SWAP1 POP DUP3 PUSH1 0x2 ADD PUSH0 SWAP1 SLOAD SWAP1 PUSH2 0x100 EXP SWAP1 DIV PUSH20 0xFFFFFFFFFFFFFFFFFFFFFFFFFFFFFFFFFFFFFFFF AND PUSH20 0xFFFFFFFFFFFFFFFFFFFFFFFFFFFFFFFFFFFFFFFF AND PUSH2 0x8FC CALLVALUE SWAP1 DUP2 ISZERO MUL SWAP1 PUSH1 0x40 MLOAD PUSH0 PUSH1 0x40 MLOAD DUP1 DUP4 SUB DUP2 DUP6 DUP9 DUP9 CALL SWAP4 POP POP POP POP ISZERO DUP1 ISZERO PUSH2 0x408 JUMPI RETURNDATASIZE PUSH0 DUP1 RETURNDATACOPY RETURNDATASIZE PUSH0 REVERT JUMPDEST POP DUP5 PUSH20 0xFFFFFFFFFFFFFFFFFFFFFFFFFFFFFFFFFFFFFFFF AND PUSH4 0xA22CB465 DUP3 PUSH1 0x1 PUSH1 0x40 MLOAD DUP4 PUSH4 0xFFFFFFFF AND PUSH1 0xE0 SHL DUP2 MSTORE PUSH1 0x4 ADD PUSH2 0x445 SWAP3 SWAP2 SWAP1 PUSH2 0xECE JUMP JUMPDEST PUSH0 PUSH1 0x40 MLOAD DUP1 DUP4 SUB DUP2 PUSH0 DUP8 DUP1 EXTCODESIZE ISZERO DUP1 ISZERO PUSH2 0x45C JUMPI PUSH0 DUP1 REVERT JUMPDEST POP GAS CALL ISZERO DUP1 ISZERO PUSH2 0x46E JUMPI RETURNDATASIZE PUSH0 DUP1 RETURNDATACOPY RETURNDATASIZE PUSH0 REVERT JUMPDEST POP POP POP POP DUP5 PUSH20 0xFFFFFFFFFFFFFFFFFFFFFFFFFFFFFFFFFFFFFFFF AND PUSH4 0x95EA7B3 DUP3 DUP6 PUSH1 0x1 ADD SLOAD PUSH1 0x40 MLOAD DUP4 PUSH4 0xFFFFFFFF AND PUSH1 0xE0 SHL DUP2 MSTORE PUSH1 0x4 ADD PUSH2 0x4B1 SWAP3 SWAP2 SWAP1 PUSH2 0xEF5 JUMP JUMPDEST PUSH0 PUSH1 0x40 MLOAD DUP1 DUP4 SUB DUP2 PUSH0 DUP8 DUP1 EXTCODESIZE ISZERO DUP1 ISZERO PUSH2 0x4C8 JUMPI PUSH0 DUP1 REVERT JUMPDEST POP GAS CALL ISZERO DUP1 ISZERO PUSH2 0x4DA JUMPI RETURNDATASIZE PUSH0 DUP1 RETURNDATACOPY RETURNDATASIZE PUSH0 REVERT JUMPDEST POP POP POP POP DUP5 PUSH20 0xFFFFFFFFFFFFFFFFFFFFFFFFFFFFFFFFFFFFFFFF AND PUSH4 0x23B872DD DUP4 DUP4 DUP7 PUSH1 0x1 ADD SLOAD PUSH1 0x40 MLOAD DUP5 PUSH4 0xFFFFFFFF AND PUSH1 0xE0 SHL DUP2 MSTORE PUSH1 0x4 ADD PUSH2 0x51F SWAP4 SWAP3 SWAP2 SWAP1 PUSH2 0xD90 JUMP JUMPDEST PUSH0 PUSH1 0x40 MLOAD DUP1 DUP4 SUB DUP2 PUSH0 DUP8 DUP1 EXTCODESIZE ISZERO DUP1 ISZERO PUSH2 0x536 JUMPI PUSH0 DUP1 REVERT JUMPDEST POP GAS CALL ISZERO DUP1 ISZERO PUSH2 0x548 JUMPI RETURNDATASIZE PUSH0 DUP1 RETURNDATACOPY RETURNDATASIZE PUSH0 REVERT JUMPDEST POP POP POP POP PUSH1 0x4 PUSH0 SWAP1 SLOAD SWAP1 PUSH2 0x100 EXP SWAP1 DIV PUSH20 0xFFFFFFFFFFFFFFFFFFFFFFFFFFFFFFFFFFFFFFFF AND PUSH20 0xFFFFFFFFFFFFFFFFFFFFFFFFFFFFFFFFFFFFFFFF AND PUSH2 0x8FC PUSH1 0x3 SLOAD SWAP1 DUP2 ISZERO MUL SWAP1 PUSH1 0x40 MLOAD PUSH0 PUSH1 0x40 MLOAD DUP1 DUP4 SUB DUP2 DUP6 DUP9 DUP9 CALL SWAP4 POP POP POP POP ISZERO DUP1 ISZERO PUSH2 0x5B2 JUMPI RETURNDATASIZE PUSH0 DUP1 RETURNDATACOPY RETURNDATASIZE PUSH0 REVERT JUMPDEST POP DUP1 DUP4 PUSH1 0x3 ADD PUSH0 PUSH2 0x100 EXP DUP2 SLOAD DUP2 PUSH20 0xFFFFFFFFFFFFFFFFFFFFFFFFFFFFFFFFFFFFFFFF MUL NOT AND SWAP1 DUP4 PUSH20 0xFFFFFFFFFFFFFFFFFFFFFFFFFFFFFFFFFFFFFFFF AND MUL OR SWAP1 SSTORE POP PUSH0 DUP4 PUSH1 0x7 ADD PUSH0 PUSH2 0x100 EXP DUP2 SLOAD DUP2 PUSH1 0xFF MUL NOT AND SWAP1 DUP4 ISZERO ISZERO MUL OR SWAP1 SSTORE POP PUSH2 0x61A PUSH1 0x1 PUSH2 0xA52 JUMP JUMPDEST PUSH32 0x16F1DBD97E6BF646D429ED186CCE832F1F7FD9907814293B83181E9970AB7BD2 DUP6 DUP5 PUSH1 0x1 ADD SLOAD DUP6 PUSH1 0x2 ADD PUSH0 SWAP1 SLOAD SWAP1 PUSH2 0x100 EXP SWAP1 DIV PUSH20 0xFFFFFFFFFFFFFFFFFFFFFFFFFFFFFFFFFFFFFFFF AND DUP5 CALLVALUE PUSH1 0x40 MLOAD PUSH2 0x678 SWAP6 SWAP5 SWAP4 SWAP3 SWAP2 SWAP1 PUSH2 0xF77 JUMP JUMPDEST PUSH1 0x40 MLOAD DUP1 SWAP2 SUB SWAP1 LOG1 POP POP POP PUSH2 0x68B PUSH2 0xA49 JUMP JUMPDEST POP POP JUMP JUMPDEST PUSH2 0x697 PUSH2 0x9A4 JUMP JUMPDEST PUSH0 CALLVALUE GT PUSH2 0x6D9 JUMPI PUSH1 0x40 MLOAD PUSH32 0x8C379A000000000000000000000000000000000000000000000000000000000 DUP2 MSTORE PUSH1 0x4 ADD PUSH2 0x6D0 SWAP1 PUSH2 0x1038 JUMP JUMPDEST PUSH1 0x40 MLOAD DUP1 SWAP2 SUB SWAP1 REVERT JUMPDEST PUSH1 0x3 SLOAD CALLVALUE EQ PUSH2 0x71D JUMPI PUSH1 0x40 MLOAD PUSH32 0x8C379A000000000000000000000000000000000000000000000000000000000 DUP2 MSTORE PUSH1 0x4 ADD PUSH2 0x714 SWAP1 PUSH2 0x10A0 JUMP JUMPDEST PUSH1 0x40 MLOAD DUP1 SWAP2 SUB SWAP1 REVERT JUMPDEST DUP4 PUSH20 0xFFFFFFFFFFFFFFFFFFFFFFFFFFFFFFFFFFFFFFFF AND PUSH4 0x23B872DD CALLER ADDRESS DUP7 PUSH1 0x40 MLOAD DUP5 PUSH4 0xFFFFFFFF AND PUSH1 0xE0 SHL DUP2 MSTORE PUSH1 0x4 ADD PUSH2 0x75A SWAP4 SWAP3 SWAP2 SWAP1 PUSH2 0xD90 JUMP JUMPDEST PUSH0 PUSH1 0x40 MLOAD DUP1 DUP4 SUB DUP2 PUSH0 DUP8 DUP1 EXTCODESIZE ISZERO DUP1 ISZERO PUSH2 0x771 JUMPI PUSH0 DUP1 REVERT JUMPDEST POP GAS CALL ISZERO DUP1 ISZERO PUSH2 0x783 JUMPI RETURNDATASIZE PUSH0 DUP1 RETURNDATACOPY RETURNDATASIZE PUSH0 REVERT JUMPDEST POP POP POP POP PUSH2 0x791 PUSH1 0x2 PUSH2 0xA52 JUMP JUMPDEST PUSH1 0x40 MLOAD DUP1 PUSH2 0x100 ADD PUSH1 0x40 MSTORE DUP1 DUP6 PUSH20 0xFFFFFFFFFFFFFFFFFFFFFFFFFFFFFFFFFFFFFFFF AND DUP2 MSTORE PUSH1 0x20 ADD DUP5 DUP2 MSTORE PUSH1 0x20 ADD CALLER PUSH20 0xFFFFFFFFFFFFFFFFFFFFFFFFFFFFFFFFFFFFFFFF AND DUP2 MSTORE PUSH1 0x20 ADD ADDRESS PUSH20 0xFFFFFFFFFFFFFFFFFFFFFFFFFFFFFFFFFFFFFFFF AND DUP2 MSTORE PUSH1 0x20 ADD DUP3 DUP2 MSTORE PUSH1 0x20 ADD DUP4 DUP2 MSTORE PUSH1 0x20 ADD PUSH1 0x3 SLOAD DUP2 MSTORE PUSH1 0x20 ADD PUSH1 0x1 ISZERO ISZERO DUP2 MSTORE POP PUSH1 0x5 PUSH0 DUP6 DUP2 MSTORE PUSH1 0x20 ADD SWAP1 DUP2 MSTORE PUSH1 0x20 ADD PUSH0 KECCAK256 PUSH0 DUP3 ADD MLOAD DUP2 PUSH0 ADD PUSH0 PUSH2 0x100 EXP DUP2 SLOAD DUP2 PUSH20 0xFFFFFFFFFFFFFFFFFFFFFFFFFFFFFFFFFFFFFFFF MUL NOT AND SWAP1 DUP4 PUSH20 0xFFFFFFFFFFFFFFFFFFFFFFFFFFFFFFFFFFFFFFFF AND MUL OR SWAP1 SSTORE POP PUSH1 0x20 DUP3 ADD MLOAD DUP2 PUSH1 0x1 ADD SSTORE PUSH1 0x40 DUP3 ADD MLOAD DUP2 PUSH1 0x2 ADD PUSH0 PUSH2 0x100 EXP DUP2 SLOAD DUP2 PUSH20 0xFFFFFFFFFFFFFFFFFFFFFFFFFFFFFFFFFFFFFFFF MUL NOT AND SWAP1 DUP4 PUSH20 0xFFFFFFFFFFFFFFFFFFFFFFFFFFFFFFFFFFFFFFFF AND MUL OR SWAP1 SSTORE POP PUSH1 0x60 DUP3 ADD MLOAD DUP2 PUSH1 0x3 ADD PUSH0 PUSH2 0x100 EXP DUP2 SLOAD DUP2 PUSH20 0xFFFFFFFFFFFFFFFFFFFFFFFFFFFFFFFFFFFFFFFF MUL NOT AND SWAP1 DUP4 PUSH20 0xFFFFFFFFFFFFFFFFFFFFFFFFFFFFFFFFFFFFFFFF AND MUL OR SWAP1 SSTORE POP PUSH1 0x80 DUP3 ADD MLOAD DUP2 PUSH1 0x4 ADD SWAP1 DUP2 PUSH2 0x912 SWAP2 SWAP1 PUSH2 0x12B9 JUMP JUMPDEST POP PUSH1 0xA0 DUP3 ADD MLOAD DUP2 PUSH1 0x5 ADD SWAP1 DUP2 PUSH2 0x928 SWAP2 SWAP1 PUSH2 0x12B9 JUMP JUMPDEST POP PUSH1 0xC0 DUP3 ADD MLOAD DUP2 PUSH1 0x6 ADD SSTORE PUSH1 0xE0 DUP3 ADD MLOAD DUP2 PUSH1 0x7 ADD PUSH0 PUSH2 0x100 EXP DUP2 SLOAD DUP2 PUSH1 0xFF MUL NOT AND SWAP1 DUP4 ISZERO ISZERO MUL OR SWAP1 SSTORE POP SWAP1 POP POP PUSH32 0xA0C6C0D02D86FDACECBAA5FDF5894BAB204E31A778250474108540733A9B8D19 DUP5 DUP5 CALLER ADDRESS PUSH1 0x3 SLOAD PUSH1 0x40 MLOAD PUSH2 0x98E SWAP6 SWAP5 SWAP4 SWAP3 SWAP2 SWAP1 PUSH2 0x1388 JUMP JUMPDEST PUSH1 0x40 MLOAD DUP1 SWAP2 SUB SWAP1 LOG1 PUSH2 0x99E PUSH2 0xA49 JUMP JUMPDEST POP POP POP POP JUMP JUMPDEST PUSH1 0x2 PUSH0 SLOAD SUB PUSH2 0x9E8 JUMPI PUSH1 0x40 MLOAD PUSH32 0x8C379A000000000000000000000000000000000000000000000000000000000 DUP2 MSTORE PUSH1 0x4 ADD PUSH2 0x9DF SWAP1 PUSH2 0x1423 JUMP JUMPDEST PUSH1 0x40 MLOAD DUP1 SWAP2 SUB SWAP1 REVERT JUMPDEST PUSH1 0x2 PUSH0 DUP2 SWAP1 SSTORE POP JUMP JUMPDEST PUSH0 DUP2 PUSH0 ADD SLOAD SWAP1 POP PUSH0 DUP2 GT PUSH2 0xA3A JUMPI PUSH1 0x40 MLOAD PUSH32 0x8C379A000000000000000000000000000000000000000000000000000000000 DUP2 MSTORE PUSH1 0x4 ADD PUSH2 0xA31 SWAP1 PUSH2 0x148B JUMP JUMPDEST PUSH1 0x40 MLOAD DUP1 SWAP2 SUB SWAP1 REVERT JUMPDEST PUSH1 0x1 DUP2 SUB DUP3 PUSH0 ADD DUP2 SWAP1 SSTORE POP POP POP JUMP JUMPDEST PUSH1 0x1 PUSH0 DUP2 SWAP1 SSTORE POP JUMP JUMPDEST PUSH1 0x1 DUP2 PUSH0 ADD PUSH0 DUP3 DUP3 SLOAD ADD SWAP3 POP POP DUP2 SWAP1 SSTORE POP POP JUMP JUMPDEST PUSH0 DUP2 SWAP1 POP SWAP2 SWAP1 POP JUMP JUMPDEST PUSH2 0xA78 DUP2 PUSH2 0xA66 JUMP JUMPDEST DUP3 MSTORE POP POP JUMP JUMPDEST PUSH0 PUSH1 0x20 DUP3 ADD SWAP1 POP PUSH2 0xA91 PUSH0 DUP4 ADD DUP5 PUSH2 0xA6F JUMP JUMPDEST SWAP3 SWAP2 POP POP JUMP JUMPDEST PUSH0 PUSH1 0x40 MLOAD SWAP1 POP SWAP1 JUMP JUMPDEST PUSH0 DUP1 REVERT JUMPDEST PUSH0 DUP1 REVERT JUMPDEST PUSH0 PUSH20 0xFFFFFFFFFFFFFFFFFFFFFFFFFFFFFFFFFFFFFFFF DUP3 AND SWAP1 POP SWAP2 SWAP1 POP JUMP JUMPDEST PUSH0 PUSH2 0xAD1 DUP3 PUSH2 0xAA8 JUMP JUMPDEST SWAP1 POP SWAP2 SWAP1 POP JUMP JUMPDEST PUSH2 0xAE1 DUP2 PUSH2 0xAC7 JUMP JUMPDEST DUP2 EQ PUSH2 0xAEB JUMPI PUSH0 DUP1 REVERT JUMPDEST POP JUMP JUMPDEST PUSH0 DUP2 CALLDATALOAD SWAP1 POP PUSH2 0xAFC DUP2 PUSH2 0xAD8 JUMP JUMPDEST SWAP3 SWAP2 POP POP JUMP JUMPDEST PUSH2 0xB0B DUP2 PUSH2 0xA66 JUMP JUMPDEST DUP2 EQ PUSH2 0xB15 JUMPI PUSH0 DUP1 REVERT JUMPDEST POP JUMP JUMPDEST PUSH0 DUP2 CALLDATALOAD SWAP1 POP PUSH2 0xB26 DUP2 PUSH2 0xB02 JUMP JUMPDEST SWAP3 SWAP2 POP POP JUMP JUMPDEST PUSH0 DUP1 PUSH1 0x40 DUP4 DUP6 SUB SLT ISZERO PUSH2 0xB42 JUMPI PUSH2 0xB41 PUSH2 0xAA0 JUMP JUMPDEST JUMPDEST PUSH0 PUSH2 0xB4F DUP6 DUP3 DUP7 ADD PUSH2 0xAEE JUMP JUMPDEST SWAP3 POP POP PUSH1 0x20 PUSH2 0xB60 DUP6 DUP3 DUP7 ADD PUSH2 0xB18 JUMP JUMPDEST SWAP2 POP POP SWAP3 POP SWAP3 SWAP1 POP JUMP JUMPDEST PUSH0 DUP1 REVERT JUMPDEST PUSH0 DUP1 REVERT JUMPDEST PUSH0 PUSH1 0x1F NOT PUSH1 0x1F DUP4 ADD AND SWAP1 POP SWAP2 SWAP1 POP JUMP JUMPDEST PUSH32 0x4E487B7100000000000000000000000000000000000000000000000000000000 PUSH0 MSTORE PUSH1 0x41 PUSH1 0x4 MSTORE PUSH1 0x24 PUSH0 REVERT JUMPDEST PUSH2 0xBB8 DUP3 PUSH2 0xB72 JUMP JUMPDEST DUP2 ADD DUP2 DUP2 LT PUSH8 0xFFFFFFFFFFFFFFFF DUP3 GT OR ISZERO PUSH2 0xBD7 JUMPI PUSH2 0xBD6 PUSH2 0xB82 JUMP JUMPDEST JUMPDEST DUP1 PUSH1 0x40 MSTORE POP POP POP JUMP JUMPDEST PUSH0 PUSH2 0xBE9 PUSH2 0xA97 JUMP JUMPDEST SWAP1 POP PUSH2 0xBF5 DUP3 DUP3 PUSH2 0xBAF JUMP JUMPDEST SWAP2 SWAP1 POP JUMP JUMPDEST PUSH0 PUSH8 0xFFFFFFFFFFFFFFFF DUP3 GT ISZERO PUSH2 0xC14 JUMPI PUSH2 0xC13 PUSH2 0xB82 JUMP JUMPDEST JUMPDEST PUSH2 0xC1D DUP3 PUSH2 0xB72 JUMP JUMPDEST SWAP1 POP PUSH1 0x20 DUP2 ADD SWAP1 POP SWAP2 SWAP1 POP JUMP JUMPDEST DUP3 DUP2 DUP4 CALLDATACOPY PUSH0 DUP4 DUP4 ADD MSTORE POP POP POP JUMP JUMPDEST PUSH0 PUSH2 0xC4A PUSH2 0xC45 DUP5 PUSH2 0xBFA JUMP JUMPDEST PUSH2 0xBE0 JUMP JUMPDEST SWAP1 POP DUP3 DUP2 MSTORE PUSH1 0x20 DUP2 ADD DUP5 DUP5 DUP5 ADD GT ISZERO PUSH2 0xC66 JUMPI PUSH2 0xC65 PUSH2 0xB6E JUMP JUMPDEST JUMPDEST PUSH2 0xC71 DUP5 DUP3 DUP6 PUSH2 0xC2A JUMP JUMPDEST POP SWAP4 SWAP3 POP POP POP JUMP JUMPDEST PUSH0 DUP3 PUSH1 0x1F DUP4 ADD SLT PUSH2 0xC8D JUMPI PUSH2 0xC8C PUSH2 0xB6A JUMP JUMPDEST JUMPDEST DUP2 CALLDATALOAD PUSH2 0xC9D DUP5 DUP3 PUSH1 0x20 DUP7 ADD PUSH2 0xC38 JUMP JUMPDEST SWAP2 POP POP SWAP3 SWAP2 POP POP JUMP JUMPDEST PUSH0 DUP1 PUSH0 DUP1 PUSH1 0x80 DUP6 DUP8 SUB SLT ISZERO PUSH2 0xCBE JUMPI PUSH2 0xCBD PUSH2 0xAA0 JUMP JUMPDEST JUMPDEST PUSH0 PUSH2 0xCCB DUP8 DUP3 DUP9 ADD PUSH2 0xAEE JUMP JUMPDEST SWAP5 POP POP PUSH1 0x20 PUSH2 0xCDC DUP8 DUP3 DUP9 ADD PUSH2 0xB18 JUMP JUMPDEST SWAP4 POP POP PUSH1 0x40 DUP6 ADD CALLDATALOAD PUSH8 0xFFFFFFFFFFFFFFFF DUP2 GT ISZERO PUSH2 0xCFD JUMPI PUSH2 0xCFC PUSH2 0xAA4 JUMP JUMPDEST JUMPDEST PUSH2 0xD09 DUP8 DUP3 DUP9 ADD PUSH2 0xC79 JUMP JUMPDEST SWAP3 POP POP PUSH1 0x60 DUP6 ADD CALLDATALOAD PUSH8 0xFFFFFFFFFFFFFFFF DUP2 GT ISZERO PUSH2 0xD2A JUMPI PUSH2 0xD29 PUSH2 0xAA4 JUMP JUMPDEST JUMPDEST PUSH2 0xD36 DUP8 DUP3 DUP9 ADD PUSH2 0xC79 JUMP JUMPDEST SWAP2 POP POP SWAP3 SWAP6 SWAP2 SWAP5 POP SWAP3 POP JUMP JUMPDEST PUSH0 DUP2 MLOAD SWAP1 POP PUSH2 0xD50 DUP2 PUSH2 0xAD8 JUMP JUMPDEST SWAP3 SWAP2 POP POP JUMP JUMPDEST PUSH0 PUSH1 0x20 DUP3 DUP5 SUB SLT ISZERO PUSH2 0xD6B JUMPI PUSH2 0xD6A PUSH2 0xAA0 JUMP JUMPDEST JUMPDEST PUSH0 PUSH2 0xD78 DUP5 DUP3 DUP6 ADD PUSH2 0xD42 JUMP JUMPDEST SWAP2 POP POP SWAP3 SWAP2 POP POP JUMP JUMPDEST PUSH2 0xD8A DUP2 PUSH2 0xAC7 JUMP JUMPDEST DUP3 MSTORE POP POP JUMP JUMPDEST PUSH0 PUSH1 0x60 DUP3 ADD SWAP1 POP PUSH2 0xDA3 PUSH0 DUP4 ADD DUP7 PUSH2 0xD81 JUMP JUMPDEST PUSH2 0xDB0 PUSH1 0x20 DUP4 ADD DUP6 PUSH2 0xD81 JUMP JUMPDEST PUSH2 0xDBD PUSH1 0x40 DUP4 ADD DUP5 PUSH2 0xA6F JUMP JUMPDEST SWAP5 SWAP4 POP POP POP POP JUMP JUMPDEST PUSH0 PUSH1 0xA0 DUP3 ADD SWAP1 POP PUSH2 0xDD8 PUSH0 DUP4 ADD DUP9 PUSH2 0xD81 JUMP JUMPDEST PUSH2 0xDE5 PUSH1 0x20 DUP4 ADD DUP8 PUSH2 0xA6F JUMP JUMPDEST PUSH2 0xDF2 PUSH1 0x40 DUP4 ADD DUP7 PUSH2 0xD81 JUMP JUMPDEST PUSH2 0xDFF PUSH1 0x60 DUP4 ADD DUP6 PUSH2 0xD81 JUMP JUMPDEST PUSH2 0xE0C PUSH1 0x80 DUP4 ADD DUP5 PUSH2 0xA6F JUMP JUMPDEST SWAP7 SWAP6 POP POP POP POP POP POP JUMP JUMPDEST PUSH0 DUP3 DUP3 MSTORE PUSH1 0x20 DUP3 ADD SWAP1 POP SWAP3 SWAP2 POP POP JUMP JUMPDEST PUSH32 0x4E6F7420656E6F75676820657468657220746F20636F76657220746F6B656E20 PUSH0 DUP3 ADD MSTORE PUSH32 0x7072696365000000000000000000000000000000000000000000000000000000 PUSH1 0x20 DUP3 ADD MSTORE POP JUMP JUMPDEST PUSH0 PUSH2 0xE80 PUSH1 0x25 DUP4 PUSH2 0xE16 JUMP JUMPDEST SWAP2 POP PUSH2 0xE8B DUP3 PUSH2 0xE26 JUMP JUMPDEST PUSH1 0x40 DUP3 ADD SWAP1 POP SWAP2 SWAP1 POP JUMP JUMPDEST PUSH0 PUSH1 0x20 DUP3 ADD SWAP1 POP DUP2 DUP2 SUB PUSH0 DUP4 ADD MSTORE PUSH2 0xEAD DUP2 PUSH2 0xE74 JUMP JUMPDEST SWAP1 POP SWAP2 SWAP1 POP JUMP JUMPDEST PUSH0 DUP2 ISZERO ISZERO SWAP1 POP SWAP2 SWAP1 POP JUMP JUMPDEST PUSH2 0xEC8 DUP2 PUSH2 0xEB4 JUMP JUMPDEST DUP3 MSTORE POP POP JUMP JUMPDEST PUSH0 PUSH1 0x40 DUP3 ADD SWAP1 POP PUSH2 0xEE1 PUSH0 DUP4 ADD DUP6 PUSH2 0xD81 JUMP JUMPDEST PUSH2 0xEEE PUSH1 0x20 DUP4 ADD DUP5 PUSH2 0xEBF JUMP JUMPDEST SWAP4 SWAP3 POP POP POP JUMP JUMPDEST PUSH0 PUSH1 0x40 DUP3 ADD SWAP1 POP PUSH2 0xF08 PUSH0 DUP4 ADD DUP6 PUSH2 0xD81 JUMP JUMPDEST PUSH2 0xF15 PUSH1 0x20 DUP4 ADD DUP5 PUSH2 0xA6F JUMP JUMPDEST SWAP4 SWAP3 POP POP POP JUMP JUMPDEST PUSH0 DUP2 SWAP1 POP SWAP2 SWAP1 POP JUMP JUMPDEST PUSH0 PUSH2 0xF3F PUSH2 0xF3A PUSH2 0xF35 DUP5 PUSH2 0xAA8 JUMP JUMPDEST PUSH2 0xF1C JUMP JUMPDEST PUSH2 0xAA8 JUMP JUMPDEST SWAP1 POP SWAP2 SWAP1 POP JUMP JUMPDEST PUSH0 PUSH2 0xF50 DUP3 PUSH2 0xF25 JUMP JUMPDEST SWAP1 POP SWAP2 SWAP1 POP JUMP JUMPDEST PUSH0 PUSH2 0xF61 DUP3 PUSH2 0xF46 JUMP JUMPDEST SWAP1 POP SWAP2 SWAP1 POP JUMP JUMPDEST PUSH2 0xF71 DUP2 PUSH2 0xF57 JUMP JUMPDEST DUP3 MSTORE POP POP JUMP JUMPDEST PUSH0 PUSH1 0xA0 DUP3 ADD SWAP1 POP PUSH2 0xF8A PUSH0 DUP4 ADD DUP9 PUSH2 0xD81 JUMP JUMPDEST PUSH2 0xF97 PUSH1 0x20 DUP4 ADD DUP8 PUSH2 0xA6F JUMP JUMPDEST PUSH2 0xFA4 PUSH1 0x40 DUP4 ADD DUP7 PUSH2 0xF68 JUMP JUMPDEST PUSH2 0xFB1 PUSH1 0x60 DUP4 ADD DUP6 PUSH2 0xD81 JUMP JUMPDEST PUSH2 0xFBE PUSH1 0x80 DUP4 ADD DUP5 PUSH2 0xA6F JUMP JUMPDEST SWAP7 SWAP6 POP POP POP POP POP POP JUMP JUMPDEST PUSH32 0x5072696365206D757374206265206174206C6561737420302E30303031206574 PUSH0 DUP3 ADD MSTORE PUSH32 0x6865720000000000000000000000000000000000000000000000000000000000 PUSH1 0x20 DUP3 ADD MSTORE POP JUMP JUMPDEST PUSH0 PUSH2 0x1022 PUSH1 0x23 DUP4 PUSH2 0xE16 JUMP JUMPDEST SWAP2 POP PUSH2 0x102D DUP3 PUSH2 0xFC8 JUMP JUMPDEST PUSH1 0x40 DUP3 ADD SWAP1 POP SWAP2 SWAP1 POP JUMP JUMPDEST PUSH0 PUSH1 0x20 DUP3 ADD SWAP1 POP DUP2 DUP2 SUB PUSH0 DUP4 ADD MSTORE PUSH2 0x104F DUP2 PUSH2 0x1016 JUMP JUMPDEST SWAP1 POP SWAP2 SWAP1 POP JUMP JUMPDEST PUSH32 0x4E6F7420656E6F75676820657468657220666F72206C697374696E6720666565 PUSH0 DUP3 ADD MSTORE POP JUMP JUMPDEST PUSH0 PUSH2 0x108A PUSH1 0x20 DUP4 PUSH2 0xE16 JUMP JUMPDEST SWAP2 POP PUSH2 0x1095 DUP3 PUSH2 0x1056 JUMP JUMPDEST PUSH1 0x20 DUP3 ADD SWAP1 POP SWAP2 SWAP1 POP JUMP JUMPDEST PUSH0 PUSH1 0x20 DUP3 ADD SWAP1 POP DUP2 DUP2 SUB PUSH0 DUP4 ADD MSTORE PUSH2 0x10B7 DUP2 PUSH2 0x107E JUMP JUMPDEST SWAP1 POP SWAP2 SWAP1 POP JUMP JUMPDEST PUSH0 DUP2 MLOAD SWAP1 POP SWAP2 SWAP1 POP JUMP JUMPDEST PUSH32 0x4E487B7100000000000000000000000000000000000000000000000000000000 PUSH0 MSTORE PUSH1 0x22 PUSH1 0x4 MSTORE PUSH1 0x24 PUSH0 REVERT JUMPDEST PUSH0 PUSH1 0x2 DUP3 DIV SWAP1 POP PUSH1 0x1 DUP3 AND DUP1 PUSH2 0x110C JUMPI PUSH1 0x7F DUP3 AND SWAP2 POP JUMPDEST PUSH1 0x20 DUP3 LT DUP2 SUB PUSH2 0x111F JUMPI PUSH2 0x111E PUSH2 0x10C8 JUMP JUMPDEST JUMPDEST POP SWAP2 SWAP1 POP JUMP JUMPDEST PUSH0 DUP2 SWAP1 POP DUP2 PUSH0 MSTORE PUSH1 0x20 PUSH0 KECCAK256 SWAP1 POP SWAP2 SWAP1 POP JUMP JUMPDEST PUSH0 PUSH1 0x20 PUSH1 0x1F DUP4 ADD DIV SWAP1 POP SWAP2 SWAP1 POP JUMP JUMPDEST PUSH0 DUP3 DUP3 SHL SWAP1 POP SWAP3 SWAP2 POP POP JUMP JUMPDEST PUSH0 PUSH1 0x8 DUP4 MUL PUSH2 0x1181 PUSH32 0xFFFFFFFFFFFFFFFFFFFFFFFFFFFFFFFFFFFFFFFFFFFFFFFFFFFFFFFFFFFFFFFF DUP3 PUSH2 0x1146 JUMP JUMPDEST PUSH2 0x118B DUP7 DUP4 PUSH2 0x1146 JUMP JUMPDEST SWAP6 POP DUP1 NOT DUP5 AND SWAP4 POP DUP1 DUP7 AND DUP5 OR SWAP3 POP POP POP SWAP4 SWAP3 POP POP POP JUMP JUMPDEST PUSH0 PUSH2 0x11BD PUSH2 0x11B8 PUSH2 0x11B3 DUP5 PUSH2 0xA66 JUMP JUMPDEST PUSH2 0xF1C JUMP JUMPDEST PUSH2 0xA66 JUMP JUMPDEST SWAP1 POP SWAP2 SWAP1 POP JUMP JUMPDEST PUSH0 DUP2 SWAP1 POP SWAP2 SWAP1 POP JUMP JUMPDEST PUSH2 0x11D6 DUP4 PUSH2 0x11A3 JUMP JUMPDEST PUSH2 0x11EA PUSH2 0x11E2 DUP3 PUSH2 0x11C4 JUMP JUMPDEST DUP5 DUP5 SLOAD PUSH2 0x1152 JUMP JUMPDEST DUP3 SSTORE POP POP POP POP JUMP JUMPDEST PUSH0 SWAP1 JUMP JUMPDEST PUSH2 0x11FE PUSH2 0x11F2 JUMP JUMPDEST PUSH2 0x1209 DUP2 DUP5 DUP5 PUSH2 0x11CD JUMP JUMPDEST POP POP POP JUMP JUMPDEST JUMPDEST DUP2 DUP2 LT ISZERO PUSH2 0x122C JUMPI PUSH2 0x1221 PUSH0 DUP3 PUSH2 0x11F6 JUMP JUMPDEST PUSH1 0x1 DUP2 ADD SWAP1 POP PUSH2 0x120F JUMP JUMPDEST POP POP JUMP JUMPDEST PUSH1 0x1F DUP3 GT ISZERO PUSH2 0x1271 JUMPI PUSH2 0x1242 DUP2 PUSH2 0x1125 JUMP JUMPDEST PUSH2 0x124B DUP5 PUSH2 0x1137 JUMP JUMPDEST DUP2 ADD PUSH1 0x20 DUP6 LT ISZERO PUSH2 0x125A JUMPI DUP2 SWAP1 POP JUMPDEST PUSH2 0x126E PUSH2 0x1266 DUP6 PUSH2 0x1137 JUMP JUMPDEST DUP4 ADD DUP3 PUSH2 0x120E JUMP JUMPDEST POP POP JUMPDEST POP POP POP JUMP JUMPDEST PUSH0 DUP3 DUP3 SHR SWAP1 POP SWAP3 SWAP2 POP POP JUMP JUMPDEST PUSH0 PUSH2 0x1291 PUSH0 NOT DUP5 PUSH1 0x8 MUL PUSH2 0x1276 JUMP JUMPDEST NOT DUP1 DUP4 AND SWAP2 POP POP SWAP3 SWAP2 POP POP JUMP JUMPDEST PUSH0 PUSH2 0x12A9 DUP4 DUP4 PUSH2 0x1282 JUMP JUMPDEST SWAP2 POP DUP3 PUSH1 0x2 MUL DUP3 OR SWAP1 POP SWAP3 SWAP2 POP POP JUMP JUMPDEST PUSH2 0x12C2 DUP3 PUSH2 0x10BE JUMP JUMPDEST PUSH8 0xFFFFFFFFFFFFFFFF DUP2 GT ISZERO PUSH2 0x12DB JUMPI PUSH2 0x12DA PUSH2 0xB82 JUMP JUMPDEST JUMPDEST PUSH2 0x12E5 DUP3 SLOAD PUSH2 0x10F5 JUMP JUMPDEST PUSH2 0x12F0 DUP3 DUP3 DUP6 PUSH2 0x1230 JUMP JUMPDEST PUSH0 PUSH1 0x20 SWAP1 POP PUSH1 0x1F DUP4 GT PUSH1 0x1 DUP2 EQ PUSH2 0x1321 JUMPI PUSH0 DUP5 ISZERO PUSH2 0x130F JUMPI DUP3 DUP8 ADD MLOAD SWAP1 POP JUMPDEST PUSH2 0x1319 DUP6 DUP3 PUSH2 0x129E JUMP JUMPDEST DUP7 SSTORE POP PUSH2 0x1380 JUMP JUMPDEST PUSH1 0x1F NOT DUP5 AND PUSH2 0x132F DUP7 PUSH2 0x1125 JUMP JUMPDEST PUSH0 JUMPDEST DUP3 DUP2 LT ISZERO PUSH2 0x1356 JUMPI DUP5 DUP10 ADD MLOAD DUP3 SSTORE PUSH1 0x1 DUP3 ADD SWAP2 POP PUSH1 0x20 DUP6 ADD SWAP5 POP PUSH1 0x20 DUP2 ADD SWAP1 POP PUSH2 0x1331 JUMP JUMPDEST DUP7 DUP4 LT ISZERO PUSH2 0x1373 JUMPI DUP5 DUP10 ADD MLOAD PUSH2 0x136F PUSH1 0x1F DUP10 AND DUP3 PUSH2 0x1282 JUMP JUMPDEST DUP4 SSTORE POP JUMPDEST PUSH1 0x1 PUSH1 0x2 DUP9 MUL ADD DUP9 SSTORE POP POP POP JUMPDEST POP POP POP POP POP POP JUMP JUMPDEST PUSH0 PUSH1 0xA0 DUP3 ADD SWAP1 POP PUSH2 0x139B PUSH0 DUP4 ADD DUP9 PUSH2 0xD81 JUMP JUMPDEST PUSH2 0x13A8 PUSH1 0x20 DUP4 ADD DUP8 PUSH2 0xA6F JUMP JUMPDEST PUSH2 0x13B5 PUSH1 0x40 DUP4 ADD DUP7 PUSH2 0xF68 JUMP JUMPDEST PUSH2 0x13C2 PUSH1 0x60 DUP4 ADD DUP6 PUSH2 0xF68 JUMP JUMPDEST PUSH2 0x13CF PUSH1 0x80 DUP4 ADD DUP5 PUSH2 0xA6F JUMP JUMPDEST SWAP7 SWAP6 POP POP POP POP POP POP JUMP JUMPDEST PUSH32 0x5265656E7472616E637947756172643A207265656E7472616E742063616C6C00 PUSH0 DUP3 ADD MSTORE POP JUMP JUMPDEST PUSH0 PUSH2 0x140D PUSH1 0x1F DUP4 PUSH2 0xE16 JUMP JUMPDEST SWAP2 POP PUSH2 0x1418 DUP3 PUSH2 0x13D9 JUMP JUMPDEST PUSH1 0x20 DUP3 ADD SWAP1 POP SWAP2 SWAP1 POP JUMP JUMPDEST PUSH0 PUSH1 0x20 DUP3 ADD SWAP1 POP DUP2 DUP2 SUB PUSH0 DUP4 ADD MSTORE PUSH2 0x143A DUP2 PUSH2 0x1401 JUMP JUMPDEST SWAP1 POP SWAP2 SWAP1 POP JUMP JUMPDEST PUSH32 0x436F756E7465723A2064656372656D656E74206F766572666C6F770000000000 PUSH0 DUP3 ADD MSTORE POP JUMP JUMPDEST PUSH0 PUSH2 0x1475 PUSH1 0x1B DUP4 PUSH2 0xE16 JUMP JUMPDEST SWAP2 POP PUSH2 0x1480 DUP3 PUSH2 0x1441 JUMP JUMPDEST PUSH1 0x20 DUP3 ADD SWAP1 POP SWAP2 SWAP1 POP JUMP JUMPDEST PUSH0 PUSH1 0x20 DUP3 ADD SWAP1 POP DUP2 DUP2 SUB PUSH0 DUP4 ADD MSTORE PUSH2 0x14A2 DUP2 PUSH2 0x1469 JUMP JUMPDEST SWAP1 POP SWAP2 SWAP1 POP JUMP INVALID LOG2 PUSH5 0x6970667358 0x22 SLT KECCAK256 NOT SDIV 0xD9 EXTCODEHASH 0x1F CALLVALUE 0xB9 PUSH12 0x95E8E6E76C6143B8A9772E8E 0x2D SWAP14 DELEGATECALL SWAP3 0xBF PUSH20 0x7055942530B364736F6C63430008190033000000 "
				},
				"gasEstimates": {
					"creation": {
						"codeDepositCost": "1068600",
						"executionCost": "69589",
						"totalCost": "1138189"
					},
					"external": {
						"LISTING_FEE()": "2403",
						"buyNFT(address,uint256)": "infinite",
						"listNFT(address,uint256,string,string)": "infinite",
						"resellNFT(address,uint256)": "infinite"
					}
				},
				"methodIdentifiers": {
					"LISTING_FEE()": "2b86ae38",
					"buyNFT(address,uint256)": "a82ba76f",
					"listNFT(address,uint256,string,string)": "dbcc7575",
					"resellNFT(address,uint256)": "9e1001b0"
				}
			},
			"storageLayout": {
				"storage": [
					{
						"astId": 147,
						"contract": "contracts/Marketplace.sol:NFTMarketplace",
						"label": "_status",
						"offset": 0,
						"slot": "0",
						"type": "t_uint256"
					},
					{
						"astId": 2941,
						"contract": "contracts/Marketplace.sol:NFTMarketplace",
						"label": "_nftsSold",
						"offset": 0,
						"slot": "1",
						"type": "t_struct(Counter)1409_storage"
					},
					{
						"astId": 2944,
						"contract": "contracts/Marketplace.sol:NFTMarketplace",
						"label": "_nftCount",
						"offset": 0,
						"slot": "2",
						"type": "t_struct(Counter)1409_storage"
					},
					{
						"astId": 2947,
						"contract": "contracts/Marketplace.sol:NFTMarketplace",
						"label": "LISTING_FEE",
						"offset": 0,
						"slot": "3",
						"type": "t_uint256"
					},
					{
						"astId": 2949,
						"contract": "contracts/Marketplace.sol:NFTMarketplace",
						"label": "_marketOwner",
						"offset": 0,
						"slot": "4",
						"type": "t_address_payable"
					},
					{
						"astId": 2954,
						"contract": "contracts/Marketplace.sol:NFTMarketplace",
						"label": "_idToToken",
						"offset": 0,
						"slot": "5",
						"type": "t_mapping(t_uint256,t_struct(Token)2971_storage)"
					}
				],
				"types": {
					"t_address": {
						"encoding": "inplace",
						"label": "address",
						"numberOfBytes": "20"
					},
					"t_address_payable": {
						"encoding": "inplace",
						"label": "address payable",
						"numberOfBytes": "20"
					},
					"t_bool": {
						"encoding": "inplace",
						"label": "bool",
						"numberOfBytes": "1"
					},
					"t_mapping(t_uint256,t_struct(Token)2971_storage)": {
						"encoding": "mapping",
						"key": "t_uint256",
						"label": "mapping(uint256 => struct NFTMarketplace.Token)",
						"numberOfBytes": "32",
						"value": "t_struct(Token)2971_storage"
					},
					"t_string_storage": {
						"encoding": "bytes",
						"label": "string",
						"numberOfBytes": "32"
					},
					"t_struct(Counter)1409_storage": {
						"encoding": "inplace",
						"label": "struct Counters.Counter",
						"members": [
							{
								"astId": 1408,
								"contract": "contracts/Marketplace.sol:NFTMarketplace",
								"label": "_value",
								"offset": 0,
								"slot": "0",
								"type": "t_uint256"
							}
						],
						"numberOfBytes": "32"
					},
					"t_struct(Token)2971_storage": {
						"encoding": "inplace",
						"label": "struct NFTMarketplace.Token",
						"members": [
							{
								"astId": 2956,
								"contract": "contracts/Marketplace.sol:NFTMarketplace",
								"label": "nftContract",
								"offset": 0,
								"slot": "0",
								"type": "t_address"
							},
							{
								"astId": 2958,
								"contract": "contracts/Marketplace.sol:NFTMarketplace",
								"label": "tokenId",
								"offset": 0,
								"slot": "1",
								"type": "t_uint256"
							},
							{
								"astId": 2960,
								"contract": "contracts/Marketplace.sol:NFTMarketplace",
								"label": "seller",
								"offset": 0,
								"slot": "2",
								"type": "t_address_payable"
							},
							{
								"astId": 2962,
								"contract": "contracts/Marketplace.sol:NFTMarketplace",
								"label": "owner",
								"offset": 0,
								"slot": "3",
								"type": "t_address_payable"
							},
							{
								"astId": 2964,
								"contract": "contracts/Marketplace.sol:NFTMarketplace",
								"label": "tokenURI",
								"offset": 0,
								"slot": "4",
								"type": "t_string_storage"
							},
							{
								"astId": 2966,
								"contract": "contracts/Marketplace.sol:NFTMarketplace",
								"label": "name",
								"offset": 0,
								"slot": "5",
								"type": "t_string_storage"
							},
							{
								"astId": 2968,
								"contract": "contracts/Marketplace.sol:NFTMarketplace",
								"label": "price",
								"offset": 0,
								"slot": "6",
								"type": "t_uint256"
							},
							{
								"astId": 2970,
								"contract": "contracts/Marketplace.sol:NFTMarketplace",
								"label": "isListed",
								"offset": 0,
								"slot": "7",
								"type": "t_bool"
							}
						],
						"numberOfBytes": "256"
					},
					"t_uint256": {
						"encoding": "inplace",
						"label": "uint256",
						"numberOfBytes": "32"
					}
				}
			},
			"userdoc": {
				"kind": "user",
				"methods": {},
				"version": 1
			}
		}
	}
}